:020000040800F2
:1000000080080020D90100086F1F0008E11D0008CA
:100010006D1F000835090008B12400080000000029
:10002000000000000000000000000000731F000836
:10003000590A000800000000711F0008F11F0008A5
:10004000F3010008F3010008F3010008F3010008C0
:10005000F3010008F3010008F3010008F3010008B0
:10006000F3010008F3010008F3010008F3010008A0
:10007000F3010008F3010008F3010008F301000890
:100080009D090008F3010008F3010008F3010008CE
:10009000F3010008F3010008F3010008F301000870
:1000A000F3010008F3010008F3010008F301000860
:1000B000F3010008F3010008F3010008F301000850
:1000C000F3010008F3010008F3010008F301000840
:1000D000F3010008F3010008F3010008F301000830
:1000E000F3010008F3010008F3010008F301000820
:1000F000F3010008F3010008F3010008F301000810
:10010000F3010008F3010008F3010008F3010008FF
:10011000F3010008F3010008F3010008F3010008EF
:10012000A9090008F3010008F3010008F301000821
:10013000F30100080000000000000000F3010008C7
:10014000F3010008F3010008F3010008F3010008BF
:10015000F3010008F3010008F3010008F3010008AF
:10016000F3010008F3010008F3010008F30100089F
:10017000F3010008F3010008F3010008000000008B
:1001800000000000F3010008000000000000000073
:10019000F30100080000000000000000F301000867
:1001A000000000000000000000000000F301000853
:1001B000F3010008F3010008F3010008F30100084F
:1001C000F3010008DFF80CD000F02CFA00480047DB
:1001D0003D2E00088008002006488047064800475A
:1001E000FEE7FEE7FEE7FEE7FEE7FEE7FEE7FEE7E7
:1001F000FEE7FEE77D200008C50100082DE9F05F5D
:100200000546002092469B46884606468146402485
:100210001BE0284641464746224600F084F95346F3
:100220005A46C01A914110D311461846224600F092
:100230006BF92D1A67EB01084F4622460120002179
:1002400000F062F917EB00094E41201EA4F10104F1
:10025000DFDC484631462A464346BDE8F09FD2B22D
:1002600001E000F8012B491EFBD270470022F6E79F
:1002700010B513460A4604461946FFF7F0FF20461C
:1002800010BD2DE9FE4F804681EA0300C00F0C46E9
:10029000009021F0004123F00045B8EB0200A94195
:1002A00005D24046214690461C460B46024623F0A6
:1002B0000040104347D0270DC7F30A00C3F30A518B
:1002C0000290401A019040286BDAC3F3130040F407
:1002D000801B0098924620B10023D2EB030A63EB07
:1002E0000B0B01985946C0F14002504600F00CF942
:1002F00006460D4650465946019A00F024F910EB87
:1003000008006141002487EA115284EAE7731A4326
:1003100040D0009A62B3019A012A4FEA075215DCD5
:10032000001B61EB02014FF0004202EA0752CDE9E7
:100330000042001C41F5801132462B4600F024F9A2
:1003400003B0BDE8F08F40462146F9E7001B61EBA2
:100350000201001C41F5801300185B412018A2F532
:10036000001747EB030140EAD570B6196D4111E063
:100370006D084FEA360645EAC0754FEA0752001B82
:1003800061EB0201001C41F5801149084FEA300081
:100390000019514132462B4603B0BDE8F04F00F042
:1003A000E4B80098012240000023D0EB020263EB86
:1003B000E073009821464FEAE074B8EB000061EB6F
:1003C0000401E9E783F000435BE781F0004158E76F
:1003D0002DE9FE4F81EA030404F0004421F00041BE
:1003E00000944FF0000B23F0004350EA01045ED06C
:1003F00052EA03045BD0C3F30A54C1F30A552C44F8
:10040000A4F2F3340194A0FB0254C1F3130141F4AC
:100410008011C3F3130343F4801301FB024400FB78
:10042000034E840A970A44EA815447EA8357A4FB9F
:10043000076802958D0A05FB07854FEA932C04FB9C
:100440000C542705029D4FEA065847EA1637B5EBCC
:1004500008056EEB070C870E920E47EA811742EAF9
:100460008312A7FB0201B6EB0B0164EB00042B0D1A
:1004700043EA0C335E1844EB1C50DA465146E7FB66
:100480000201C5F313044FEA0B3343EA14534FEA56
:100490000432019C43EA0603A4F10C040294009C7C
:1004A000CDE900B400F070F803B0BDE8F08F002093
:1004B0000146F9E70EB5C10F80EAE0700844CA07AB
:1004C000002140F233438DE80E000A460B4600F04F
:1004D0005BF803B000BDC1F30A5210B5C1F31301BC
:1004E00040F2FF3341F480119A4201DA002010BD3E
:1004F00040F233439A42A2F2334203DC524200F00C
:1005000012F810BD904010BD202A04DB203A00FAFA
:1005100002F1002070479140C2F1200320FA03F35A
:10052000194390407047202A04DB203A21FA02F058
:100530000021704721FA02F3D040C2F1200291401D
:10054000084319467047202A06DBCB17203A41FAA8
:1005500002F043EAE07306E041FA02F3D040C2F150
:100560002002914008431946704710B5141E73F1DC
:10057000000408DA401C41F1000192185B411A4363
:1005800001D120F0010010BD2DE9F04D92469B46AF
:1005900011B1B1FA81F202E0B0FA80F22032904655
:1005A000FFF7B2FF04460F4640EA0A0041EA0B019A
:1005B00053465A46084313D0114653EA010019D056
:1005C000C8F140025046FFF7AEFF05460E465046C2
:1005D00059464246FFF798FF084305D0012004E042
:1005E00020463946BDE8F08D0020054346EAE07616
:1005F0002C4337430A986305E40AA0EB0800002265
:10060000FD0A44EA47540A3002D500200146E9E7D2
:10061000010510196941DDE9084500196941BDE886
:10062000F04DA2E7064C074D06E0E06840F00103FC
:1006300094E8070098471034AC42F6D3FFF7C6FDA4
:1006400070300008903000082DE9F04D81EA030475
:1006500004F0004B21F0004514464FF0000A23F04F
:10066000004150EA050220D054EA01021DD0C5F332
:100670000A570246C5F31303C1F31300C1F30A5628
:1006800040F4801543F48013A7EB0608101BD646F0
:1006900008F2FD3873EB050002D308F1010801E010
:1006A00092185B41B8F1000F03DA00200146BDE863
:1006B000F08D00204FF48011064684460EE0171B93
:1006C00073EB050705D3121B63EB050306434CEAE6
:1006D000010C49084FEA300092185B4150EA0107CB
:1006E000EDD152EA030012D082EA040083EA050148
:1006F000084305D0101BAB4106D20122002306E0BF
:1007000000224FF0004302E06FF0010253101AEB99
:1007100006004CEB085110EB0A0041EB0B01BDE861
:10072000F04DFFF722BF0EB540F233410291002198
:10073000CDE900110A460B46FFF726FF03B000BDC6
:1007400070B5C1F30A5201F000450024C1F3130152
:1007500040F2FF3341F480119A4201DA002070BD6B
:1007600040F233439A42A2F2334203DC5242FFF793
:10077000DAFE00E090402C43F1D0404270BD10B54D
:100780000146806B026C12F0500F05D0026CD2064D
:1007900026D500F017FA10BD016C41F40071016418
:1007A00001688A6812F0405F17D1027EAAB9CA6A4E
:1007B00012F4700F02D08A6852050ED44A6822F0F3
:1007C00020024A60016C21F480710164016CC9044B
:1007D00003D4016C41F00101016400F0F1F910BD96
:1007E000806BC26CBDE810400846104710B5806BA6
:1007F00040210164416C41F00401416400F0E2F9E0
:1008000010BD10B5806B00F0DCF910BD464910B585
:100810004A6822F440324A604A6843681A434A6090
:1008200001684A6822F480724A6001684A68036974
:1008300042EA03224A6001684A6822F040724A6034
:1008400001684A6883681A434A6001688A6822F42A
:1008500000628A6001688A68C3681A438A60816A94
:100860006FF07062D14201688A6822F070628A601B
:1008700001688A680CD0836A1A438A6001688A68B2
:1008800022F040528A6001688A68C36A1A4301E014
:1008900022F040528A6001688A6822F002028A606F
:1008A00001688A68037E42EA43028A6090F8201059
:1008B000002901684A680FD042F400624A6001686A
:1008C0004A6822F460424A6001684A68174C436AE9
:1008D00004EB43331A4301E022F400624A600168EA
:1008E000CA6A22F47002CA620168CA6A838B104C19
:1008F00004EB03531A43CA6201688A6822F4007247
:100900008A6001688A6890F8303042EA43228A603F
:1009100001688A6822F480628A6001688A68406996
:1009200042EA8020886010BD0023014000E0FFFF04
:100930000000F0FFFEE710B5846B204600F076FA69
:100940000120207110BD10B5846B204600F04AFADA
:100950000120207110BD10B5846B206940F00400A7
:100960002061204600F064FA0120207110BD10B50E
:10097000846B206940F004002061204600F034FAC6
:100980000120207110BD10B5806B00F050FA10BD31
:1009900010B5806B00F027FA10BD0000014800F090
:1009A0002DBB000020040020014800F027BB000000
:1009B000C003002001681823CAB2103AB2FBF3F258
:1009C000054B6FF30901032A9B5CC36500D9091D20
:1009D0008165084670470000302F000810B50146B9
:1009E00000208B698A6A4FF0C07453B1B3F5005F81
:1009F00015D072B1012A0CD0022A0AD0032A09D1DB
:100A000004E01AB1012A06D0022A03D1C96AC90139
:100A100000D5012010BDC96AA142FAD010BD002A3C
:100A2000F7D0012AF2D0022AF3D0032AF3D010BD66
:100A300030B50468256825F4802525600468636066
:100A40008368402B036803D099600068C26030BDA2
:100A50009A600068C16030BD7047704778B5002467
:100A6000009490F83C20012A19D0012280F83C2003
:100A70000A6807230568092A13D9EE680A3A02EBC7
:100A8000420293409E43EE600B788A680A3B03EB78
:100A900043039A400368DD682A43DA6010E00220CD
:100AA00078BD2E6902EB420293409E432E610B7883
:100AB0008A6803EB43039A4003681D692A431A615D
:100AC0004A681F23072A13D205686E6B521E02EB79
:100AD000820293409E436E630A8893B20A79521E43
:100AE00002EB820293400268556B2B43536327E06D
:100AF00005680D2A12D22E6BD21F02EB82029340A0
:100B00009E432E630B790A88DB1F92B203EB8303AB
:100B10009A4003681D6B2A431A6311E0EE6A0D3A8E
:100B200002EB820293409E43EE620B790A880D3BF2
:100B300092B203EB83039A400368DD6A2A43DA62C8
:100B40001B4B0568194A9D420AD10D68122D07D129
:100B5000556825F400055560556845F480055560D5
:100B600005689D421DD1134D0B68AB4201D0112B7E
:100B700017D1536823F480035360536843F4000390
:100B800053600968A9420CD10B490C4A0968B1FBB2
:100B9000F2F101EB8101490000E0491E00910029BA
:100BA000FBD180F83C40002078BD000000230140CC
:100BB00000200140120000100C00002040420F00F5
:100BC00070477047704770B504004FF0000503D0C0
:100BD000206C002610B107E0012070BD204600F017
:100BE0001DF8666484F83C60206CC00610D4206C4C
:100BF00020F4885040F0020020642046FFF706FEF3
:100C00006664206C20F0020040F00100206400E0E7
:100C1000012584F83C60284670BD000070B586B0A0
:100C2000064614216846FFF721FB1D4930688842BB
:100C300033D11C480025016841F4807101600068CF
:100C400000F48070059017481438016841F00101E4
:100C500001600068694600F0010005900E200090D8
:100C60000320CDE90105104800F050FB104C0F485F
:100C7000C4E900050015A560C4E903508000606167
:100C80008000C4E9060525622046656200F086FA08
:100C900008B1FFF7E2FEB463A66306B070BD0000C2
:100CA000002001404438024000000240106402402D
:100CB000C0030020F8B50E4600210446009190F8CC
:100CC0003C00012807D0012084F83C00206883689C
:100CD000DB0702D011E00220F8BD836843F0010376
:100CE00083603748374B0068B0FBF3F000EB4000FF
:100CF00000E0401E00900028FBD120688368DB07DD
:100D00005CD0236C40F20165AB4343F480732364F1
:100D10004068400505D5206C20F4005040F4805018
:100D20002064206CC00404D5606C20F00600606470
:100D300000E0616484F83C10A16B2448224DC86334
:100D4000A16B23480864A16B2248C86421686FF036
:100D5000220008602068416841F08061416020689D
:100D6000816841F4807181602168134632464C31BC
:100D7000A06B00F07DFA68681749C006206806D0AD
:100D800088421BD1816811F0405F13D016E0884281
:100D9000F8D0124A904203D1D1F80423D206F1D000
:100DA0000F4A90420AD1D1F8041301F01F01102913
:100DB000E8D303E0816841F0804181600020F8BD04
:100DC0000C00002040420F00002301407F07000874
:100DD00003080008ED070008002001400021014041
:100DE0000022014070477047704770B54379012B6E
:100DF0001AD0012646710223037105682C6840F65B
:100E0000FE7393409C43D1E900310B43934023434D
:100E10002B6001680B68C0249440A3430B600671EB
:100E200000214171084670BD022070BD70477047B7
:100E3000704770B5040003D02079002510B105E09B
:100E4000012070BD6571204600F008F80220207175
:100E5000256101202071002070BD000070B586B0B2
:100E6000054614216846FFF701FA1F4928688842A1
:100E700038D11E480026016841F000510160006829
:100E800000F00050059019481038016841F0010148
:100E900001600068694600F0010005901020009094
:100EA0000320CDE90106124800F030FA124C114837
:100EB00020604FF0606060604020C4E902060001DD
:100EC0002061400060618000A0614011E06140024B
:100ED000C4E90806204600F061F908B1FFF7BDFD3E
:100EE000AC60A56306B070BD00740040403802409D
:100EF0000000024088600240200400202DE9F041FB
:100F000004460D461746617900220698012920D033
:100F10000126667102212171F5B1D4F80CC0314966
:100F2000CCF83C10D4F80CC02F49CCF84010D4F8C1
:100F30000CC02E49CCF84C102168D1F800C04CF000
:100F4000805CC1F800C090B3042834D0082837D1A1
:100F500034E00220BDE8F081D4F808C02449CCF880
:100F60003C10D4F808C02349CCF84010D4F808C08D
:100F70002149CCF84C102168D1F800C04CF4805CB9
:100F8000C1F800C020B1042805D0082808D105E028
:100F90002268083204E022680C3201E02268103234
:100FA0002068016841F400510160A0680EE0FFE78D
:100FB0002268143204E02268183201E022681C32F0
:100FC0002068016841F000510160E068394600F096
:100FD0004FF920680168AE40314301600020607124
:100FE000B8E7000047090008910900086F090008E8
:100FF0003709000887090008570900082DE9F84358
:1010000004464FF00009CDF8009063484FF41651A4
:10101000A56D0068B0FBF1F72E6894F85C1008200D
:1010200000FA01F131420FD021680A6852070BD54E
:101030000A6822F004020A6094F85C108840A860F4
:10104000606D40F00100606594F85C104FF001089D
:1010500008FA01F0304208D021684969090604D530
:10106000A860606D40F00200606594F85C10042098
:101070008840304208D021680968890704D5A860F3
:10108000606D40F00400606594F85C1010208840AA
:10109000304218D021680968090714D5A860206873
:1010A0000168490304D50068000308D5A16C07E076
:1010B0000168C90503D4016821F008010160216CB1
:1010C00009B12046884794F85C10202088403042BF
:1010D00031D021680968C9062DD5A86094F835007B
:1010E00005282068016806D0490347D50068000339
:1010F0001DD4616C1CE021F016010160206841697B
:1011000021F080014161206C08B9A06C20B12068F9
:10111000016821F00801016094F85C103F208840CC
:10112000A86084F8349084F83580216D1FE0E16B6D
:1011300009B120468847606D00282BD0606DC0073C
:1011400014D0052084F835002068016821F00101E1
:1011500001600098401C0090B84203D820680068E5
:10116000C007F6D184F8349084F83580E16C00290A
:1011700010D001B02046BDE8F04308470168C9051A
:10118000D5D4016821F01001016084F8349084F80E
:101190003580CCE7BDE8F8830C0000202DE9F04154
:1011A000044600F085F906465CB1002584F8345009
:1011B000022084F835002068016821F001010160F7
:1011C0000DE00120BDE8F08100F072F9801B0528D8
:1011D00005D920206065032084F83500F2E72068F7
:1011E0000068C007F0D12268116820480140D4E9A6
:1011F00001031843D4E903363343184363691843A2
:10120000A3691843E3691843236A18430843616AD2
:10121000042903D1D4E90B13194308431060206853
:101220004069666A20F0070130460E430127042812
:101230000CD1A06A0643E06A40B12046FFF7CEFB1E
:1012400020B14020606584F83570BAE720684661B7
:101250002046FFF7AFFB94F85C203F21914081606E
:10126000656584F835700020ACE700003F8010F021
:101270002DE9F0410446866D90F8340000250128E0
:101280000DD0012084F8340094F835700020012F2F
:1012900007D084F8340002252846BDE8F0810220FA
:1012A000FBE7022784F8357060652046FFF7C0FB36
:1012B00094F85C103F208840B0602068016841F0DD
:1012C000160101602068416941F080014161206C94
:1012D00020B12068016841F00801016020680168C0
:1012E00041F001010160D7E770B5044600F0E0F875
:1012F0000546601C02D004480078044400F0D8F889
:10130000401BA042FAD370BD000000202DE9F84F29
:10131000DFF874B100224FF001084FF0030A4FF0DC
:101320000F090BF1040E00BF0B6808FA02F423400A
:10133000A3426ED14D68022D01D0122D0ED1D508D9
:1013400000EB850CDCF820505607F70E09FA07F67B
:10135000B5430E69BE402E43CCF8206006685500A8
:101360000F790AFA05FC07F0030726EA0C06AF40DE
:10137000374307604E68012E05D0022E03D0112E90
:1013800001D0122E0ED18668CF6826EA0C06AF4037
:10139000374387604668A6430C79C4F30014944031
:1013A00034434460C4688E6824EA0C04AE4026438B
:1013B000C6604C68E40060D5344C256845F480452F
:1013C0002560246822F0030504F480440094304C26
:1013D0002E19D6F8084895072F0F09FA07F5AC43E0
:1013E0002C4DA84201D100251FE02B4DA84201D170
:1013F00001251AE0294DA84201D1022515E0284D0A
:10140000A84201D1032510E0264DA84202D10425AF
:101410000BE032E0244DA84201D1052505E0234D23
:10142000A84201D1062500E00725BD402543C6F8A6
:101430000858DBF800405D464E689C43F60300D533
:101440001C432C60DEF8004075464E689C43B60392
:1014500000D51C432C600C4D08352C684E689C430D
:10146000F60200D51C432C60074D0C352C684E68E5
:101470009C43B60200D51C432C60521C102AFFF47A
:1014800053AFBDE8F88F0000003C014044380240F3
:101490000030014000000240000402400008024009
:1014A000000C0240001002400014024000180240EC
:1014B00001488068704700000000002002488168F1
:1014C0000278114481607047000000200B4810B57D
:1014D000016841F400710160016841F480610160BC
:1014E000016841F480710160032000F071F8002070
:1014F00000F006F800F024F8002010BD003C024087
:1015000070B50D4D04464FF47A712878B1FBF0F0B8
:101510000A490968B1FBF0F000F010FB48B9102C43
:1015200007D200222146501E00F032F800206C60E5
:1015300070BD012070BD0000000000200C000020E4
:101540000B4882B0016841F480410160006800F4FA
:10155000804000900648001F016841F08051016002
:10156000006800F080500090072002B000F030B812
:1015700044380240002809DB00F01F02012191409D
:101580004009800000F1E020C0F800117047000021
:10159000F0B40E4B1B680C46C3F30223C3F10705DE
:1015A000042D00D90425191D072901D2002300E0CC
:1015B000DB1E012606FA05F1491E214099409E4096
:1015C000761E16403143F0BC00F08BBF0CED00E0FE
:1015D000064900F0070208684FF6FF03184040EA8A
:1015E0000220034A10430860704700000CED00E041
:1015F0000000FA052DE9F0470E46050065D0DFF83A
:101600001481D8F80000F7B200F00F00B04207D202
:1016100088F80070D8F8000000F00F00B04254D1F4
:1016200028683D4C810712D5400703D5206840F457
:10163000E05020602878000703D5206840F460401F
:1016400020602068A96820F0F00008432060287816
:10165000C0072DD0304968680839012812D0022807
:1016600013D0032811D00968890700292DDA2168D1
:1016700021F0030101432160FFF71AFF814641F287
:10168000883A0EE009688903EFE709688901ECE709
:10169000FFF70EFFA0EB0901514502D90320BDE879
:1016A000F0872068696800F00C00B0EB810FEFD183
:1016B000D8F80010404601F00F01B14207D9077079
:1016C000006800F00F00B04201D00120E7E7287861
:1016D000400705D52068E96820F4E0500843206001
:1016E0002878000706D52068296920F4604040EA80
:1016F000C100206000F036F82168084AC1F30311E8
:10170000515CC840064908600020FFF7F9FE002040
:10171000C5E70000003C024008380240382F0008AE
:101720000C0000200448054900680968044AC1F318
:101730008221515CC84070470C00002008380240EC
:10174000482F00080448054900680968044AC1F3A5
:101750004231515CC84070470C00002008380240FC
:10176000482F0008224810B5006810F00C022148EC
:1017700015D04110042A11D01D4C241F082A0FD067
:101780000C2A0CD12268236802F03F025B0221D5AB
:101790002068C0F38810A0FB010120E0084610BDBE
:1017A0002268236802F03F025B0205D52068C0F37F
:1017B0008810A0FB010104E02168C1F38811A1FB9E
:1017C00000010023FEF71AFD2168C1F30141491C05
:1017D00049000AE02168C1F38811A1FB0001002340
:1017E000FEF70CFD2168C1F30271B0FBF1F010BDF2
:1017F000083802400024F4002DE9F84F0546DFF8D0
:1018000028B30078ABF10407C007A7F1040451D056
:10181000DBF800105846C1F3810101290FD001689F
:10182000C1F38101022902D13968490207D4006855
:10183000C0F38100032809D13868400206D520682A
:10184000800337D56868002872D033E06868B0F547
:10185000803F10D0B0F5A02F206810D020F4803049
:101860002060206820F4802020606868A8B1FFF71D
:101870001FFE06460DE0206840F48030F4E740F497
:1018800080202060F7E700BFFFF712FE801B64286E
:1018900078D820688003F7D50CE0FFF709FE0646EC
:1018A00005E000BFFFF704FE801B6428F0D8206825
:1018B0008003F7D42878DFF8749280074FF0000A8D
:1018C00046D5DBF80010584611F00C0F0FD0016818
:1018D000C1F38101022902D13968490207D50068A4
:1018E000C0F38100032809D13868400206D420687B
:1018F000800715D5E86801281AD111E0E868C0B161
:101900000120C9F80000FFF7D3FD064605E000BF3F
:10191000FFF7CEFD801B0228BAD820688007F7D5D4
:101920002068296920F0F80040EAC10020600FE03B
:10193000F7E0C9F800A0FFF7BBFD064605E000BFD1
:10194000FFF7B6FD801B02281CD820688007F7D45B
:101950002878000727D5DFF8D0817548696908F134
:101960006C0881B101210160FFF7A2FD064604E089
:10197000FFF79EFD801B022804D8D8F800008007DE
:10198000F6D510E089E0C0F800A0FFF791FD06460B
:1019900005E000BFFFF78CFD801B02287DD8D8F83A
:1019A00000008007F6D42878400769D55E484FF0DC
:1019B000000838300068C0000BD45B48383001683C
:1019C00041F08051016000684FF0010800F0805044
:1019D0000090584E3068C00511D4306840F48070D3
:1019E0003060FFF765FD009006E000BFFFF760FD87
:1019F0000099401A022850D83068C005F6D54A4EE2
:101A0000A868683601280FD00528306810D020F06B
:101A100001003060306820F004003060A868B8B180
:101A2000FFF746FD00900FE0306840F00100F4E75A
:101A300040F004003060F7E7FFF73AFD0099411AE3
:101A400041F28830814264D830688007F4D50EE0D6
:101A5000FFF72EFD009007E0FFF72AFD0099411ADD
:101A600041F28830814254D830688007F4D4B8F10C
:101A7000000F05D02C483830016821F080510160FA
:101A8000A869A8B3DBF80010C1F38101022948D08E
:101A90000228C9F860A005D000E03AE0FFF708FD91
:101AA000054639E0FFF704FD064604E0FFF700FDB8
:101AB000801B02282DD820688001F7D4F5E90701A2
:101AC0000843E9681C4A490802EB0141AA6841EA57
:101AD00082110843297C40EA0160297D40EA0170B7
:101AE00038600120C9F86000FFF7E2FC054606E017
:101AF00015E000BFFFF7DCFC401B022809D8206876
:101B00008001F7D50BE000BFFFF7D2FC401B022895
:101B100002D90320BDE8F88F20688001F4D40020AA
:101B2000F8E70120F6E700000838024000004742CD
:101B3000800E4742007000400000FFFF10B5401EBD
:101B4000B0F1807F01D3012010BD4FF0E02460612F
:101B50000F21601700F0C5FC0020A0610720206164
:101B6000002010BD70B590F83C20012A19D0012446
:101B700000F83C4F0222427050F83C3C5A689D6885
:101B800022F070060A684968324325F0800529432F
:101B90005A6050F83C2C9160447000210170084656
:101BA00070BD022070BD10B5040003D094F83D0054
:101BB00010B107E0012010BD002084F83C00204651
:101BC00000F00CF8022084F83D00211D206800F090
:101BD0007FFA012084F83D00002010BD08B501689F
:101BE0000B48B1F1804F0BD00A4A914207D10168EE
:101BF00041F002010160006800F00200009008BDA1
:101C0000016841F001010160006800F00100F5E7A2
:101C10004038024000040040022180F83D10016875
:101C20008A6802F00702062A03D00A6842F001021D
:101C30000A60012180F83D100020704770B504460D
:101C400090F83C00012817D0012584F83C50022070
:101C500084F83D002068826822F0770222F47F42F7
:101C600082600868502830D00DDC20284DD005DC7B
:101C700098B310283BD148E0022070BD302844D0F2
:101C8000402834D139E0602828D0702806D0B0F53B
:101C9000805F2CD0B0F5005F29D10AE0CB68D1E994
:101CA0000121206800F078FA2068816841F077010E
:101CB00009E0CB68D1E90121206800F06DFA2068C5
:101CC000816841F48041816011E0CA6849682068F8
:101CD00000F074FA5021206807E016E0CA684968ED
:101CE000206800F07CFA6021206800F05FFA84F838
:101CF0003D50002084F83C0070BDCA6849682068E7
:101D000000F05CFA40212068EFE7226801461046A7
:101D1000EBE770B5040004D094F83900002510B149
:101D200006E0012070BD84F83850204600F022F80B
:101D3000242084F839002068C16821F40051C16072
:101D4000204600F05FFA2068016921F490410161AA
:101D50002068416921F02A0141612068C16841F48D
:101D60000051C160E563202084F8390084F83A000E
:101D7000002070BD10B586B0044614216846FEF7F9
:101D800075FA14492068884221D11348016841F04E
:101D900010010160006800F0100005900E48143832
:101DA000016841F0010101600068694600F001002E
:101DB00005904FF4C0600090022001900120029035
:101DC00003200390072004900448FFF79FFA06B011
:101DD00010BD0000001001404438024000000240E5
:101DE000FEE700007FB50024184800940194029497
:101DF00015490394016001254FF480310561C0E964
:101E00000114047680F820400903C1620326C661EC
:101E10004910C460816280F830404561FEF7D3FE0E
:101E20000095CDE9015469460848FEF717FE0220E7
:101E3000019069460548FEF711FE69460348019680
:101E4000FEF70CFE7FBD00000020014014000020C2
:101E500000B587B014216846FEF708FA164800213D
:101E6000026842F004020260026802F00402059275
:101E7000026842F080020260026802F0800205926D
:101E8000026842F001020260026802F0010205925B
:101E9000026842F002020260006800F00200059051
:101EA0004FF4005000900548CDE90101694604480F
:101EB000FFF72CFA07B000BD3038024000002110B7
:101EC0000008024010B586B0002412480094019426
:101ED0000294039404944FF080410594016004211E
:101EE000C0E90114FA21C0E9031480218161FFF7E0
:101EF0005AFE4FF48050009069460648FFF79EFE58
:101F00002020CDE9040404A90248FFF72BFE06B007
:101F100010BD00007000002010B586B000241248EB
:101F2000009401940294039404940E490594016072
:101F3000C721C0E90114C0E9031480218161FFF7C2
:101F400032FE4FF48050009069460748FFF776FE56
:101F50002020CDE9040404A90348FFF703FE06B0DE
:101F600010BD000000040040B0000020FEE77047F4
:101F70007047704770B50D460646002425E02046A0
:101F8000FEF798FA9FED121B53EC112BFEF720FA87
:101F90009FED111B53EC112BFEF71AFA41EC100BBD
:101FA00000F0B2FA9FED0E1B51EC100B53EC112B0D
:101FB000FEF70EFA9FED0C1B53EC112BFEF761F9A7
:101FC000FEF789FA46F82400641CAC42D7DB70BDEA
:101FD0001C2D4454FB211940000000000000903FDC
:101FE0000000000000C04240000000000070974068
:101FF000FFF764BA30B593B034216846FEF736F97E
:1020000014210DA8FEF732F91A480025016841F0A5
:1020100080510160006800F08050129016480168FD
:1020200021F4404141F4804101600068022400F441
:1020300040401290012003901020009406940490D8
:10204000CDE907504FF4A87009900420CDE90A04A7
:1020500068460C94FFF7D0FB0DA90F2081E83100F2
:10206000E002CDE9100502210DA8FFF7C3FA13B075
:1020700030BD000040380240007000401048016848
:1020800041F4700101600F48016841F001010160F5
:102090000C4A00210832116002680B4B1A400260A2
:1020A000031D0A4A1A60026822F480220260054871
:1020B0000C30016002495806803908607047000002
:1020C00088ED00E000380240FFFFF6FE10300024EB
:1020D000F0B50268254C264D264E274F274B4FF072
:1020E000804CA04209D0604507D0A84205D0B0423C
:1020F00003D0B84201D0984204D122F0700E4A6851
:1021000042EA0E02A0421BD0604519D0A84217D067
:10211000B04215D0B84213D0984211D0184DA84201
:102120000ED0184DA8420BD0174DA84208D0174D1D
:10213000A84205D0164DA84202D0164DA84203D1A0
:1021400022F44075CA682A434D6922F080022A436E
:1021500002608A68C2620A688262A04201D0984224
:1021600001D10969016301214161F0BD0000014015
:102170000004004000080040000C00400004014042
:102180000040014000440140004801400018004068
:10219000001C00400020004010B5846842EA032281
:1021A00024F47F440A432243826010BD826822F0F7
:1021B00070020A4342F007018160704710B5036A5C
:1021C000046A24F001040462846924F0F00444EAFF
:1021D000021423F00A020A438461026210BD10B5A2
:1021E000036A23F0100303628369046A23F47043D3
:1021F00043EA023224F0A00343EA01118261016242
:1022000010BD00002DE9F041044600680169E26854
:1022100021F44051114301612169A068E26908433A
:102220006169114322680843D16849F20C639943FC
:102230000143D16020684169A26921F440711143D2
:102240004161E2696425B2F5004F974897492268D9
:102250004FF032083FD08A4201D082427CD1FFF752
:1022600071FA00EBC00101EB001061688900B0FB5E
:10227000F1F6FFF767FA00EBC00101EB00106168AF
:102280008900B0FBF1F0B0FBF5F06FF018014843A6
:1022900006EB800108EB0110B0FBF5F000F0F00652
:1022A000FFF750FA00EBC00101EB001061688900F4
:1022B000B0FBF1F0B0FBF5F006EB0016FFF742FAC9
:1022C00000EBC00101EB001061688900B0FBF1F781
:1022D000FFF738FAD2E08A4201D082423DD1FFF7BF
:1022E00031FA00EBC00101EB001061684900B0FB5E
:1022F000F1F0B0FBF5F00601FFF724FA00EBC001A6
:1023000001EB001061684900B0FBF1F7FFF71AFA22
:1023100000EBC00101EB001061684900B0FBF1F077
:10232000B0FBF5F06FF01801484307EB800108EBB4
:10233000C100B0FBF5F000F0F80006EB4006FFF737
:1023400001FA00EBC00101EB001061684900B0FB2D
:10235000F1F7FFF7F7F93CE055E0FFF7E3F900EBA1
:10236000C00101EB001061684900B0FBF1F0B0FB67
:10237000F5F00601FFF7D6F900EBC00101EB001004
:1023800061684900B0FBF1F7FFF7CCF900EBC00141
:1023900001EB001061684900B0FBF1F0B0FBF5F013
:1023A0006FF01801484307EB800108EBC100B0FB58
:1023B000F5F000F0F80006EB4006FFF7B3F900EB8C
:1023C000C00101EB001061684900B0FBF1F7FFF7B5
:1023D000A9F900EBC00101EB001061684900B0FBF6
:1023E000F1F0B0FBF5F06FF01801484307EB800106
:1023F00008EBC100B0FBF5F000F0070021683044A5
:102400008860BDE8F081FFF78DF900EBC00101EBBA
:10241000001061688900B0FBF1F6FFF783F900EB6B
:10242000C00101EB001061688900B0FBF1F0B0FB66
:10243000F5F06FF01801484306EB800108EB01103E
:10244000B0FBF5F000F0F006FFF76CF900EBC0010F
:1024500001EB001061688900B0FBF1F0B0FBF5F012
:1024600006EB0016FFF75EF900EBC00101EB001070
:1024700061688900B0FBF1F7FFF754F900EBC00188
:1024800001EB001061688900B0FBF1F0B0FBF5F0E2
:102490006FF01801484307EB800108EB0110B0FB17
:1024A000F5F000F00F00A9E7001401400010014012
:1024B000FEE703B401984100009850EAC12018BF1C
:1024C00004204A0D18BF40F0010040F2FF72B2EB49
:1024D000515F08BF40F00200012808BF052002B08C
:1024E00070470907090E002804DB00F1E02080F89E
:1024F0000014704700F00F0000F1E02080F8141D78
:10250000704700000000000010B52F499FED2C1B04
:102510002DED020B84B0059820F000408842DCBF0E
:1025200000209DED040B32DD2849884209D1049832
:1025300040B94FF0010000F06FFC00F03DFC06B028
:1025400010BD05DB9DED040B00F02AFC06B010BDAC
:1025500068469DED040B00F03BF810F0030011D02D
:10256000012818D09DED021B9DED000B02281AD00A
:1025700000F04AFA51EC100B81F0004106B041EC3A
:10258000100B10BD9DED021B9DED000B012000F016
:102590006FFB06B010BD9DED021B9DED000B00F022
:1025A00033FA06B010BD012000F062FB51EC100BB5
:1025B00081F0004106B041EC100B10BD000000009E
:1025C0000000000000000000FB21E93F0000F07F58
:1025D0002DE9F14F04462DED020B2DED088B8AB04D
:1025E0009FEDE70B80ED020B139EE74826F00045B8
:1025F00085420ADC9DED120B002084ED000B0AB031
:10260000BDEC088B03B0BDE8F08FE0489FEDE0AB78
:102610009FEDE1BBA84247DDE14F9FEDE39B9FEDBE
:10262000E48B9DED120B53EC1A2B51EC100B002E8A
:102630001CDDFDF7C7FE41EC100BBD4208D053EC8A
:102640001B2B51EC100BFDF7BDFEC4E900010BE0A4
:1026500053EC192B51EC100BFDF7B4FE53EC182B77
:10266000FDF7B0FEC4E900010120C8E7FDF709FE4F
:1026700041EC100BBD4208D053EC1B2B51EC100B5E
:10268000FDF7FFFDC4E900010BE053EC192B51EC01
:10269000100BFDF7F6FD53EC182BFDF7F2FDC4E926
:1026A00000014FF0FF30AAE7C348A84279DB9DED57
:1026B000120B51EC100B00F0B5FB41EC180B9FED29
:1026C000C00B53EC102BFDF783FE9FEDBF1B53ECAB
:1026D000112BFDF7D6FDFEF733F80746FDF7EAFEAE
:1026E00041EC190B53EC1A2BFDF772FE53EC182B2F
:1026F000FDF76BFE41EC180B53EC1B2B51EC190B47
:10270000FDF766FEDFF8C8A241EC100B4FEA155842
:102710000125FA4453EC102B51EC180BFDF752FE37
:10272000032DC4E900013DD0C1F30A5005EB45116A
:10273000A8EB00001139814234DA0AEB051BB0EE38
:1027400048AA9BED000BF0EE68AA53EC102B51EC5D
:10275000190BFDF73DFE41EC1B0B51EC1A0B53EC32
:102760001B2BFDF72FFE41EC180B51EC1A0B53EC11
:10277000182BFDF727FE53EC1B2BFDF723FE9BEDDB
:10278000020B41EC1A0B53EC102B51EC190BFDF71B
:102790001FFE53EC1A2BFDF715FE41EC100B6D1CC0
:1027A000B8E70EE0002EA8BF3846BFF628AF94ED7C
:1027B000000B51EC100B81F00041C4E9000178429C
:1027C0001DE7C6F3130040F4801EC6F30A50A0F2C2
:1027D000F530471100F01F05C5F12000DDF848B0C5
:1027E00008900020069007900520EC467949002DBE
:1027F00007EB0002794408BF51F8221009D051F8C4
:10280000223001EB8201AB404A68089922FA01F1BB
:102810001943A1FB0E26A1FB0B131A449A4234BFA5
:102820000123002303EB06080CEB8003D3E901A688
:102830000E448E4234BF0121002192448A4411B1DA
:10284000924502D903E0924501D2012100E0002126
:10285000C3E901A641444CF82010011EA0F101007B
:10286000C4DC029800F10050850F0298DDE903678F
:102870008000DDF81480FDF71DFE41EC1A0B304698
:10288000FDF751FF9FED541B53EC112BFDF7A0FDFD
:1028900041EC1B0B3846FDF746FF9FED511B53ECF7
:1028A000112BFDF795FD41EC180B4046FDF73BFF62
:1028B0009FED4D1B53EC112BFDF78AFD41EC190BDD
:1028C00051EC180B53EC192BFDF7DBFC53EC1B2BD5
:1028D000FDF7D7FC53EC1A2BFDF7D3FCCDE908012B
:1028E000002008909DED080B53EC1A2B51EC100BB7
:1028F000FDF768FD53EC1B2BFDF764FD53EC182B23
:10290000FDF760FD53EC192BFDF75FFD9FED381BC4
:1029100053EC112BFDF75CFD9FED370B41EC180BD1
:1029200053EC102B9DED080B51EC100BFDF750FDF7
:1029300053EC182BFDF7A5FC9FED310B41EC180B68
:1029400053EC102B9DED080B51EC100BFDF740FDE7
:1029500053EC182BFDF795FC41EC100B139810F07D
:10296000004F06D06D4251EC100B81F0004141EC5C
:10297000100B284684ED000B41E60000000000002B
:102980000000000000000000FB21E93F7CD902406C
:1029900000004054FB21F93F3163621A61B4D03D1D
:1029A000FB21F93F000000000000601A61B4D03D37
:1029B0007370032E8A19A33BFB21394100000000EC
:1029C00083C8C96D305FE43F000000000000E03FB5
:1029D0006A080000B8070000000000000000103E78
:1029E000000000000000103C000000000000103A51
:1029F000182D4454FB21F93D3326A611460B113CFA
:102A000000000054FB21F93D10B52DED040B2DED18
:102A1000088B82B0B0EE419AF0EE619A0B9820F0EC
:102A200000449FED4BABB4F1795F11DA9DED0A0BD9
:102A300051EC100BFDF784FE002801BFB0EE4A0AEE
:102A4000F0EE6A0A02B0BDEC088B04BF04B010BD02
:102A50009DED0A0B53EC102B51EC100BFDF7B8FC5D
:102A600041EC180B3C480621B0EE480AF0EE680A2B
:102A7000784400F081F853EC182B51EC100BFDF763
:102A8000A7FC9DED0A0B41EC1B0B53EC192B51ECF1
:102A9000100BFDF79DFC41EC190B53EC1B2B51EC7B
:102AA000180BFDF795FC53EC192BFDF78BFC9FEDF4
:102AB0002C0B41EC190B53EC102B51EC180BFDF7C0
:102AC00087FC41EC100B2848844210DA53EC192B98
:102AD00051EC100BFDF776FC53EC1A2BFDF775FC4F
:102AE00041EC100B02B0BDEC088B04B010BD1F48C8
:102AF000A042BCBF9FED1E1B8DED001B06DBA4F5A5
:102B000000100190002000909DED001B51EC100B77
:102B100053EC112BFDF756FC9DED000B41EC180B0F
:102B200053EC102B51EC1A0BFDF74CFC41EC1A0B3B
:102B300053EC192B51EC180BFDF744FC53EC1A2BFA
:102B4000FDF743FC41EC100BCCE700000000000057
:102B5000000000000000F03FDC0400000000000066
:102B6000000000000000E03F3333D33F0000E93FA6
:102B7000000000000000D23F70B504462DED028B2E
:102B80004D1E00EBC500B0EE408AF0EE608A90ED7D
:102B9000000B35F0060017D053EC182B51EC100B3E
:102BA000FDF716FC41EC100B6D1E04EBC50090ED1B
:102BB000001B51EC100B53EC112BFDF762FB41ECA9
:102BC000100B35F00600E7D1022D36D0042D1CD0B5
:102BD000062D1CBFBDEC028B70BD53EC182B51ECC5
:102BE000100BFDF7F5FB94ED0A1B53EC112BFDF7D1
:102BF00048FB53EC182BFDF7EBFB94ED081B53EC53
:102C0000112BFDF73EFB41EC100B53EC182B51EC54
:102C1000100BFDF7DDFB94ED061B53EC112BFDF7BC
:102C200030FB53EC182BFDF7D3FB94ED040B53EC66
:102C3000102BFDF726FB41EC100B53EC182B51EC3D
:102C4000100BFDF7C5FB94ED021B53EC112BFDF7A8
:102C500018FB53EC182BFDF7BBFB94ED001B53EC5A
:102C6000112BFDF70EFBBDEC028B41EC100B70BD80
:102C700031B504462DED040B2DED0A8BB0EE41BAB3
:102C8000F0EE61BA0B989DED0A0B20F00040B0F118
:102C9000795F0DDA51EC100BFFF70BFC042808BF2D
:102CA00000F09AF89DED0A0BBDEC0A8B05B030BD23
:102CB00053EC102B51EC100BFDF78AFB41EC180B79
:102CC0009DED0A0B53EC182B51EC100BFDF780FB1C
:102CD00041EC190B2C48B0EE480AF0EE680A0521C9
:102CE0007844FFF749FF9FED2ACBB0EE40AAF0EE03
:102CF00060AA9CB353EC1C2B51EC190BFDF768FB3D
:102D000041EC1C0B53EC1A2B51EC190BFDF760FB3B
:102D10009FED210B41EC190B53EC102B51EC1B0BCD
:102D2000FDF756FB53EC192BFDF74CFB53EC182B1E
:102D3000FDF74EFB53EC1B2BFDF744FB53EC1C2B18
:102D4000FDF740FB9DED0A1B53EC112BFDF73DFBFE
:102D5000BDEC0A8B05B041EC100B30BDFFE753EC26
:102D60001A2B51EC180BFDF733FB53EC1C2BFDF722
:102D700088FA53EC192BFDF72BFB9DED0A1B53EC46
:102D8000112BFDF77EFAE3E764030000000000006A
:102D9000495555555555C5BF000000000000E03F9E
:102DA00010B553EC102B51EC100BFDF76AFA41EC07
:102DB000100B10BD000000009FED050B10B553EC8B
:102DC000102B51EC100BFDF73FFC41EC100B10BD2C
:102DD00000000000000000009FED050B10B553EC53
:102DE000102B51EC100BFDF7F3FA41EC100B10BD5A
:102DF000000000000000001002E008C8121F08C117
:102E0000002AFAD170477047002001E001C1121F6B
:102E1000002AFBD17047000001490860704700009C
:102E20001000002082B0CDE9000121F000400190A7
:102E30009DED000B02B051EC100B70471CB5FEF776
:102E400045FBFFF7D7F840213448FFF793F8FEF72A
:102E5000FFFF33480024016841F40011016001685C
:102E600001F400110091016841F4800101600068E3
:102E7000224600F48000009021461020FEF788FBD7
:102E80001020FEF777FB002211463820FEF780FB6A
:102E90003820FEF76FFBFEF7A5FF234821490160AC
:102EA0004FF4E131C0E901140C21C460C0E90441D0
:102EB0008461C461FEF72DFFFFF72EF81A490094D4
:102EC00094391A48019408600846FDF7B2FF24209F
:102ED000CDE900041448002269469438FDF785FFC7
:102EE000FEF7F0FF10488038FEF796FE0E48403897
:102EF000FEF792FE0C4964224031A1F58E70FDF779
:102F0000D9FE064A40230021A2F519700094FDF76E
:102F1000F5FF0A20FEF7E8F9FBE70000C0020020F9
:102F20003038024000100140F000002000740040E2
:102F30000006101600061016000000000000000039
:102F4000010203040607080900000000010203044F
:102F50004C5555555555A53F7751C1166CC156BFB7
:102F60009015CB19A001FA3EAD529C804F7E92BEC7
:102F7000C4B1B4BD9EEE213ED43888BEE9FAA8BDE6
:102F800000004054FB21F93F3163621A61B4D03D27
:102F90000000601A61B4D03D7370032E8A19A33B00
:102FA0000000002E8A19A33BC14920259A837B3952
:102FB00000000000000000006E83F9A22915444EB5
:102FC000D15727FCC0DD34F5999562DB4190433C35
:102FD000AB6351FE61C5BBDE3A6E24B7E0D24D4211
:102FE000EA2E49061C92D1091CEB1DFE3EA729B111
:102FF000F53582E88444BB2E26709CE9417E5FB49F
:1030000039D69139F43953838B5F849C3B28F9BDC1
:10301000FF97F81F0F9805DE8B112FEF1F6D0A5ACF
:10302000CF7E366DB709CB27663F464F2DEA5F9EB0
:10303000C7BA27757BF1E5EBF739073DEA92528A6B
:10304000B15FFB6B085D8D1FA6F810111111813F58
:10305000D561C119A0012ABF7DFEB157E31DC73E4E
:10306000EB9C2B8AE6E55ABE7CD5CF5A3AD9E53D92
:10307000903000080000002014000000F82D000827
:10308000A4300008140000206C080000082E00087E
:103090000100000010000000000000000024F40007
:0430A000000000002C
:04000005080001C529
:00000001FF
