:020000040800F2
:10000000A0050020D9010008FF140008EF14000823
:10001000FD140008310700088318000800000000E4
:1000200000000000000000000000000003150008B0
:10003000330700080000000001150008C115000882
:10004000F3010008F3010008F3010008F3010008C0
:10005000F3010008F3010008F3010008F3010008B0
:10006000F3010008F3010008F3010008F3010008A0
:10007000F3010008F3010008F3010008F301000890
:10008000F3010008F3010008F3010008F301000880
:10009000F3010008F3010008F3010008F301000870
:1000A000F3010008F3010008F3010008F301000860
:1000B000F3010008F3010008F3010008F301000850
:1000C000F3010008F3010008F3010008F301000840
:1000D000F3010008F301000881180008F30100088B
:1000E000F3010008F3010008F3010008F301000820
:1000F000F3010008F3010008F3010008F301000810
:10010000F3010008F3010008F3010008F3010008FF
:10011000F3010008F3010008F3010008F3010008EF
:10012000F3010008F3010008F3010008F3010008DF
:10013000F30100080000000000000000F3010008C7
:10014000F3010008F3010008F3010008F3010008BF
:10015000F3010008F3010008F3010008F3010008AF
:10016000F3010008F3010008F3010008F30100089F
:10017000F3010008F3010008F3010008000000008B
:1001800000000000F3010008000000000000000073
:10019000F30100080000000000000000F301000867
:1001A000000000000000000000000000F301000853
:1001B000F3010008F3010008F3010008F30100084F
:1001C000F3010008DFF80CD000F0A0FA0048004767
:1001D000C5180008A00500200648804706480047CB
:1001E000FEE7FEE7FEE7FEE7FEE7FEE7FEE7FEE7E7
:1001F000FEE7FEE761160008C5010008B5EEC00A7B
:10020000F1EE10FA07D2DFED1E0AB4EEE00AF1EECD
:1002100010FAA8BF7047DFED1B0AB5EEC00A60EE0A
:10022000200ABDEEE01A11EE100AF1EE10FA38BF06
:10023000401E00EE100A1549F7EE001AB8EEC00A8B
:1002400030EEC00ADFED100A60EE200ABCEEE00AD4
:1002500010EE100AC0F3080000EE100A01EB800057
:10026000B8EE400A90ED011A70EEC00A90ED000A57
:1002700071EEE01A21EE800A00EE810A704700005C
:10028000CD024CB483F9223E00000044301F000828
:100290002DE9F05F0546002092469B4688460646BB
:1002A000814640241BE0284641464746224600F04E
:1002B00076F953465A46C01A914110D31146184652
:1002C000224600F05DF92D1A67EB01084F462246E1
:1002D0000120002100F054F917EB00094E41201EC7
:1002E000A4F10104DFDC484631462A464346BDE816
:1002F000F09FD2B201E000F8012B491EFBD27047FB
:100300000022F6E710B513460A4604461946FFF7E1
:10031000F0FF204610BD2DE9FE4F804681EA030024
:10032000C00F0C46009021F0004123F00045B8EBCF
:100330000200A94105D24046214690461C460B4684
:10034000024623F00040104347D0270DC7F30A00B0
:10035000C3F30A510290401A019040286BDAC3F3AC
:10036000130040F4801B0098924620B10023D2EB8A
:10037000030A63EB0B0B01985946C0F1400250464B
:1003800000F0FEF806460D4650465946019A00F028
:1003900016F910EB08006141002487EA115284EA43
:1003A000E7731A4340D0009A62B3019A012A4FEAD8
:1003B000075215DC001B61EB02014FF0004202EA1C
:1003C0000752CDE90042001C41F5801132462B4610
:1003D00000F04DF903B0BDE8F08F40462146F9E743
:1003E000001B61EB0201001C41F5801300185B410A
:1003F0002018A2F5001747EB030140EAD570B619A3
:100400006D4111E06D084FEA360645EAC0754FEAC6
:100410000752001B61EB0201001C41F580114908E5
:100420004FEA30000019514132462B4603B0BDE877
:10043000F04F00F00DB90098012240000023D0EBEE
:10044000020263EBE073009821464FEAE074B8EBD8
:10045000000061EB0401E9E783F000435BE781F012
:10046000004158E72DE9FE4F81EA030404F00044FF
:1004700021F0004100944FF0000B23F0004350EABC
:1004800001045ED052EA03045BD0C3F30A54C1F303
:100490000A552C44A4F2F3340194A0FB0254C1F396
:1004A000130141F48011C3F3130343F4801301FBE0
:1004B000024400FB034E840A970A44EA815447EA47
:1004C0008357A4FB076802958D0A05FB07854FEA51
:1004D000932C04FB0C542705029D4FEA065847EA6B
:1004E0001637B5EB08056EEB070C870E920E47EA40
:1004F000811742EA8312A7FB0201B6EB0B0164EB02
:1005000000042B0D43EA0C335E1844EB1C50DA4612
:100510005146E7FB0201C5F313044FEA0B3343EAEC
:1005200014534FEA0432019C43EA0603A4F10C047D
:100530000294009CCDE900B400F099F803B0BDE846
:10054000F08F00200146F9E701F0004330B421F0BC
:10055000004150EA010206D00A0DA2F56072C1F313
:100560001301002A02DC30BC00207047440F44EA2B
:10057000C104C100E01830BC00EBC25000F031B83B
:10058000202A04DB203A00FA02F100207047914053
:10059000C2F1200320FA03F3194390407047202A48
:1005A00004DB203A21FA02F00021704721FA02F31D
:1005B000D040C2F120029140084319467047202ADA
:1005C00006DBCB17203A41FA02F043EAE07306E07B
:1005D00041FA02F3D040C2F120029140084319468B
:1005E00070470029A8BF7047401C490008BF20F091
:1005F0000100704710B4B0FA80FC00FA0CF050EA29
:10060000010404BF10BC704749B1CCF1200421FAA9
:1006100004F411FA0CF118BF012121430843A3EBA4
:100620000C01CB1D4FEA00614FEA102042BF0020B1
:1006300010BC704700EBC35010440029A4BF10BC8D
:100640007047401C490008BF20F0010010BC7047F3
:1006500010B5141E73F1000408DA401C41F10001CA
:1006600092185B411A4301D120F0010010BD2DE921
:10067000F04D92469B4611B1B1FA81F202E0B0FA18
:1006800080F220329046FFF77BFF04460F4640EA97
:100690000A0041EA0B0153465A46084313D011465B
:1006A00053EA010019D0C8F140025046FFF777FF26
:1006B00005460E46504659464246FFF761FF08433D
:1006C00005D0012004E020463946BDE8F08D002029
:1006D000054346EAE0762C4337430A986305E40A6B
:1006E000A0EB08000022FD0A44EA47540A3002D574
:1006F00000200146E9E7010510196941DDE90845D7
:1007000000196941BDE8F04DA2E70000064C074D15
:1007100006E0E06840F0010394E8070098471034D1
:10072000AC42F6D3FFF752FDB4270008D4270008E7
:10073000FEE7704702482021012200F0E9BA00BF1D
:100740000000024078B50022009290F83C20012A77
:1007500001D1022149E0012280F83C20D1F800E0DB
:100760001FFA8EFCBEF10A0F4FEA4C0212FA8EF20B
:1007700004D303681E3A03F10C0402E0036803F19A
:10078000100407252668954026EA050525608D6832
:1007900005FA02F225682A4322604A68062A05D82B
:1007A00002EB820203F13401053A0BE002EB820412
:1007B0000C2A87BF03F12C01A4F1410203F130019F
:1007C000A4F123021F240D6894400CFA02F225EADA
:1007D00004040C600E6832430A606D49A1F5417251
:1007E000934205D0002180F83C10084601B070BD4E
:1007F000BEF1110F0ED0154A96450BD0BEF1120F67
:10080000F0D10A6822F400020A600A6842F4800209
:100810000A60E7E70A6822F480020A600A6842F484
:1008200000020A6009498E45DCD1D149D14A0968E4
:10083000B1FBF2F101EB8101490001E000990139BE
:10084000009100990029F9D1CCE700BF12000010F7
:10085000006C70470068C06C70470000002842D0F0
:1008600010B50446006C30B9204600F099F800201D
:1008700084F83C006064206CC00636D4206C41F2E1
:100880000211444B8843023020644148016821F43E
:10089000403101606168026811430160206841686D
:1008A00021F4807141602169426842EA012141607E
:1008B000416821F040714160A16842681143416084
:1008C000816821F400618160E16882681143816080
:1008D000A16A826822F0706299428260826806D1C1
:1008E00022F040510CE00120704701204CE0114300
:1008F0008160816821F040518160E16A8268114322
:100900008160816821F002018160217E826842EA73
:100910004101816094F8202041686AB141F400618E
:100920001D4A4160416821F460414160616A02EB07
:1009300041314268114301E021F400614160174AEE
:10094000C16A21F47001C162E16902EB0151C26A1E
:100950001143C162816821F40071816094F8301004
:10096000826842EA41218160816821F4806181606E
:100970006169826842EA812101228160002060640D
:10098000216C62F301012164002184F83C1010BD48
:10099000042301400100000F00E0FFFF0000F0FF12
:1009A00010B586B0044601A81421FFF7A9FC216800
:1009B000714881421FD10021104A00F5604000912A
:1009C000536943F480735361536903F48073009354
:1009D000009B0091136843F001031360126802F05A
:1009E00001020092009A03910321029102210191D8
:1009F00001A900F0C7F806B010BD00BF30380240B2
:100A0000F8B5044600680D468168490544BF806812
:100A10005FEAC05039D400F081F906466F1C2068A7
:100A20000168890710D4002FF9D025B100F076F9BC
:100A3000801BA842F3D9002084F83C00206C40F0D1
:100A400004002064032028E06FF012010160216C93
:100A500041F400712164816811F0405F13D1217E5F
:100A600089B9C16A11F4700F02D0806840050AD4B8
:100A7000206C20F480702064206CC0045EBF206C69
:100A800040F001002064002007E0002084F83C00D2
:100A9000206C40F020002064012001B0F0BD000077
:100AA00081B00021009190F83C10012901D1022071
:100AB0005BE0012180F83C1001688A68D20711D1FF
:100AC0008A682C4B42F001028A60B74A1268B2FB76
:100AD000F3F202EB420201E0009A013A0092009A1E
:100AE000002AF9D18A68D2073ED0026C40F2017325
:100AF0009A4302F5807202644A68520504D5026C7A
:100B0000012363F30D320264026C0023D20444BF5C
:100B1000436C23F00603002280F83C2043646FF00E
:100B2000220008601448D0F80423D20603D0814282
:100B30001AD1806811E081420ED0104A914207D04C
:100B40000F4A914210D1D0F80403C0060CD103E043
:100B5000D0F80403C00607D4886810F0405F03D1C2
:100B6000886840F080408860002001B0704700BF76
:100B70000C00002040420F000020014000220140F4
:100B8000002101402DE9F84F5B4A4FF0070A4FF072
:100B9000010B4FF000084FF0000E9042574A08BF7B
:100BA0004FF0060A02444FEAB223062B38BF4FEA41
:100BB000B22A0022102A08BFBDE8F88F0B680BFA92
:100BC00002F6334200F091804B6843F01004122C7F
:100BD00013D16FF003040EF01C030F2704EA520533
:100BE00007FA03FC05442C6A24EA0C0C0C6904FA8D
:100BF00003F343EA0C032B624B68032703F003055E
:100C0000122B07FA08F4076805FA08F56FEA040CD6
:100C100027EA040747EA0507076013D80BFA03F42D
:100C200014F0061F0ED08468CD6804EA0C0405FA9F
:100C300008F52C438460C3F3001445689440B54321
:100C40002C434460C4688D68DB0004EA0C0705FA95
:100C500008F547EA0507C76047D50023284C0EF082
:100C60000C050093284BA4461F461B6843F48043A1
:100C70003B603B6803F48043009322F0030323446A
:100C8000224C009FA1461F590F24AC400AFA05F5DB
:100C9000A7432F4343F80970DCF800304D6843EA5E
:100CA0000607EC0358BF23EA0607CCF80070AC0334
:100CB000DCF8043043EA060758BF23EA0607CCF8FD
:100CC0000470EC02DCF8083043EA060758BF23EA58
:100CD00006070C4BCCF80870AD021C461B6843EAB3
:100CE000060758BF23EA0607276008F102080EF13D
:100CF000040E01325EE700BF001802400000FEBF94
:100D0000003C01400C3C01404438024008FCFFFF1D
:100D1000002A08BF09048161704700000548006887
:100D2000704700BF1F48034900780A6810440860F4
:100D3000704700BF9C01002080B50B48016841F45A
:100D400000710160016841F480610160016841F453
:100D500080710160032000F073F8002000F006F8B5
:100D600000F024F8002080BD003C024070B50D4E1C
:100D700004464FF47A713078B1FBF0F08A49096883
:100D8000B1FBF0F000F0DCFA01250F2C08D838B9DF
:100D90004FF0FF3021460022002500F033F8746048
:100DA000284670BD040000200C00002082B0002006
:100DB0000C4901904A6842F480424A604A6802F451
:100DC00080420192019A0090086840F080500860CB
:100DD000086800F0805000900098072002B000F0F2
:100DE0002FB800BF40380240002808DB00F01F0188
:100DF0000122400902FA01F1014A42F8201070472D
:100E000000E100E080B5144B1B68C3F3022CBCF179
:100E1000030E8CF007034FF0FF3C38BF4FF0000E7D
:100E2000042B28BF04230CFA03F399430CFA0EF3A6
:100E300001FA0EF19A431143BDE8804000F022BD53
:100E400005494FF6FF030A681A4060F30A22034877
:100E500010430860704700BF0CED00E00000FA0589
:100E60002DE9F041002800F08380434B044688467A
:100E7000D3F8000400F00F00884207D283F8008402
:100E8000D3F8000400F00F00404571D120688107BD
:100E900011D5410742BF996841F4E05199600107BB
:100EA00042BF996841F4604199609968A26821F055
:100EB000F00111439960C0072AD06068811E0229A1
:100EC00003D21968890109D452E0012803D11968B5
:100ED000890303D44CE01968890749D599681D46F0
:100EE00021F0030108439860FFF718FF064641F21E
:100EF0008837A86861682B4600F00C00B0EB810FC2
:100F000006D0FFF70BFF801BB842F2D9032430E074
:100F1000D3F8000400F00F00404507D983F800849F
:100F2000D3F8000400F00F00404521D120684107AC
:100F300005D59968E26821F4E051114399600007F2
:100F400006D59868216920F4604040EAC1009860A5
:100F50001C4600F02FF8A168084A0024C1F30311D1
:100F6000515CC840104908600020FFF7FFFE00E018
:100F700001242046BDE8F0810038024034270008F3
:100F800009480A490A4A00680968C1F38221515C8C
:100F9000C840704704480549054A00680968C1F31C
:100FA0004231515CC84070470C00002008380240B4
:100FB0004427000810B5204C6068C0F381011F4829
:100FC000032915D0022904D0012904BF1C4810BDF3
:100FD00010BD2168236801F03F0221685B02C1F364
:100FE000881114D4A1FB00010023FFF751F912E08E
:100FF0002168236801F03F0221685B02C1F3881178
:1010000010D4A1FB00010023FFF742F90EE00C48C9
:101010004843B0FBF2F021680222C1F3014102EB28
:10102000410106E006484843B0FBF2F02168C1F3F5
:101030000271B0FBF1F010BD043802400024F4004E
:1010400000127A002DE9FC4104460078B94EC00731
:1010500037D0B06800F00C0004282BD0B06800F046
:101060000C00082802D17068400223D4B06800F058
:101070000C000C2802D1706840021BD46768B7F5D9
:10108000803F07D03068B7F5A02F40F0138140F4BF
:1010900080203060306840F480303060FFF73EFEE2
:1010A0000546306880030CD4FFF738FE401B6428E7
:1010B000F7D9A6E03068800303D56068002800F007
:1010C000DA802078800734D5B06810F00C0F0FD08C
:1010D000B06800F00C00082802D17068400207D503
:1010E000B06800F00C000C2809D17068400206D4EA
:1010F0003068800716D5E068012813D0BBE0E068AF
:10110000002800F080808C4801210160FFF706FE76
:1011100005463068800705D4FFF700FE401B022813
:10112000F7D96EE03068216920F0F80040EAC1008C
:1011300030602078000721D5606978B17E480121B0
:10114000C0F8801EFFF7EAFD0546706F800715D4D2
:10115000FFF7E4FD401B0228F7D952E07648002152
:10116000C0F8801EFFF7DAFD0546706F800705D5D1
:10117000FFF7D4FD401B0228F7D942E02078400752
:1011800071D5306C4FF00008C0000CD4CDF804804D
:101190004FF00108306C40F080503064306C00F04B
:1011A000805001900198654F3868C0050FD43868A9
:1011B00040F480703860FFF7B1FD05463868C0051F
:1011C00005D4FFF7ABFD401B0228F7D919E0A7684B
:1011D000012F05D0306F052F26D140F00400306775
:1011E000306F40F001003067FFF798FD054641F28F
:1011F0008837306F80072FD4FFF790FD401BB8422F
:10120000F7D9032092E04C4800210160FFF786FDEA
:101210000546306880077FF58CAFFFF77FFD411BE7
:1012200003200229F5D981E020F001003067306FFA
:1012300020F004003067FFF771FD0546002FD6D17E
:1012400041F28837306F800706D5FFF767FD411BF5
:101250000320B942F6D969E0B8F1000F1EBF306C27
:1012600020F080503064A769002F5ED0B06800F095
:101270000C00082801D1012058E02F4900208846A1
:101280000866FFF74BFD0546022F09D13068800143
:1012900028D5FFF743FD411B03200229F6D945E07D
:1012A0003068800141D5FFF739FD411B0320032938
:1012B000F6D33BE020F480303060306820F48020AA
:1012C0003060FFF72BFD0546002F7FF4EAAE306853
:1012D00080037FF5F6AEFFF721FD411B0320642953
:1012E000F5D923E004F11C078FCF256B0843D90300
:1012F00040EA82104FF6FF72914340EA0760A1F581
:101300008031084340EA057070600120C8F8600031
:10131000FFF704FD04463068800106D4FFF7FEFCA9
:10132000011B03200229F6D900E0002002B0BDE82D
:10133000F08100BF003802400000474200700040CA
:10134000411E0020B0EB116F1CBF01207047044A02
:10135000F023516003490B700721906011607047C2
:1013600010E000E023ED00E050B310B5044690F823
:10137000390028B9002084F83800204600F022F80F
:10138000242084F839002068C16821F40051C1602C
:10139000204600F08BF92068016921F49041016139
:1013A000416921F02A014161C16841F40051C160E5
:1013B00000202021E06384F8391084F83A1010BD31
:1013C0000120704710B586B0044601A81421FEF72D
:1013D00097FF2168184881422CD10021174A00F557
:1013E000DE300091136943F400331361136903F491
:1013F00000330093009B0091116841F001011160DE
:10140000116801F001010091009907210591032164
:10141000049101210391022102910C21019101A962
:10142000FFF7B0FB262000210022FFF7EBFC26206F
:10143000FFF7DAFC06B010BD00440040303802402F
:101440002DE9F041044690F8390020280AD10E46D3
:101450000120002949D01746002A46D094F83800C8
:10146000012802D10220BDE8F08100201D46E06382
:10147000012084F83800212084F83900FFF74EFC61
:101480008046E784A7841DE0E08C802142462B46FD
:101490000138E0842046A76800F0C6F9B7F5805F00
:1014A0000BD1C8B9318820686FF35F214160206992
:1014B000002814BF0136023604E068B9206816F827
:1014C000011B4160E08C0028DED1204640214246CD
:1014D0002B4600F0A9F910B10320BDE8F0810020EF
:1014E000202184F8380084F83910BDE8F081FEE747
:1014F000014800F00BBD00BF4C270008FEE7704715
:1015000070477047000000002DE9F84F2DED086B83
:101510009FED231B0C4605469FED1F0B9FED268A72
:101520009FED269A51EC110B9FED1F1BCDE9021088
:101530005BEC110B9FED1E1B019057EC116B24E02F
:1015400058EC109BDDE9023248464146FEF78AFF1F
:10155000019A5B46FEF786FFFEF7F6FF00EE100AE3
:10156000FEF74CFEB0EE491A4846414632463B462D
:1015700000EE081ABCEEC10A10EE10AAFEF7CBFE70
:1015800041EC100B45F804AB013C002CD8D1BDEC6C
:10159000086B01B0BDE8F08F000000000000000003
:1015A0001C2D4454FB211940000000000000903F16
:1015B000000000000000F03F00007A440080BB44BF
:1015C000FFF7B0BB70B594B007AC1421201DFEF737
:1015D00097FE02A81421FEF793FE00251E48012263
:1015E00002260195016841F080510160006800F019
:1015F00080500190019801951848016862F38F317D
:101600000160006800F4404001900198CDE9126645
:10161000042011904FF4A870109010200F90CDE985
:101620000D65CDE90A2020460796FFF70BFD08B1AE
:10163000FFF780F84FF480500695022105900F20A7
:10164000CDE90365029002A8FFF70AFC08B1FFF795
:1016500071F814B070BD00BF403802400070004007
:1016600010B50E480F4CD0F8801041F47001C0F84E
:1016700080100B490A6842F001020A6000228A6069
:101680000B6823400B60084B4B600B6823F48023EE
:101690000B60CA604FF00061016010BD08ED00E012
:1016A00000380240FFFFF6FE103000242DE9F0471D
:1016B0000446006849F20C650169E26821F4405172
:1016C00011430161A168D4E90423E769C6681143A5
:1016D000AE43B7F5004F41EA030141EA070141EA91
:1016E0000601C1604169A26921F4407141EA020129
:1016F00041614A4940F480603FD188420CBFDFF825
:1017000020A1DFF820A1D047D4F804908046D0472C
:1017100067680646D047616819257F00684306FB65
:1017200005F34900B3FBF7F3B0FBF1F06421B0FB24
:10173000F1F202FB1102181A4FEA49031044322257
:1017400002EBC0004FF4F872B0FBF1F002EA400087
:1017500008FB05F2B2FBF3F2B2FBF1F100EB01166C
:10176000D047616868434900B0FBF1F7D047616832
:1017700068430722032349003CE0884214BFDFF896
:10178000A4A0DFF89CA0D047D4F804908046D047AE
:1017900067680646D04761681925BF00684306FBA5
:1017A00005F38900B3FBF7F3B0FBF1F06421B0FB64
:1017B000F1F202FB1102181A4FEA89031044322297
:1017C00002EB001008FB05F2B0FBF1F0B2FBF3F204
:1017D00000F0F000B2FBF1F100EB0116D0476168B8
:1017E00068438900B0FBF1F7D047616868430F2276
:1017F00004238900B0FBF1F0391A6427B0FBF7F538
:1018000005FB17000844216898403230B0FBF7F020
:10181000104030438860BDE8F08700BF00140140ED
:10182000950F0008810F00082DE9F0411D469046F4
:101830000F4604465E1C206801683940B94204BF67
:101840000020BDE8F081002EF5D035B1FFF766FA33
:10185000A0EB0800A842EED92068C16821F4D0713D
:10186000C160416921F0010141612020002184F81B
:10187000390084F8381084F83A000320BDE8F0817C
:101880007047FEE710B5074C00F00F03044AB0F1B3
:10189000FF3F2344C8BF83180801187010BD00BF64
:1018A00000E400E014ED00E0E0B50190694801A912
:1018B00001224FF6FF730430FFF7C2FD019802B01A
:1018C00080BD00BF86B0FFF737FAFFF77BFE002729
:1018D0005A4C40210197206840F480002060206825
:1018E00000F48000019001985548FFF70DFECDE906
:1018F00004770097202100224FF02008206840F054
:1019000004002060206800F0040000900098009718
:10191000206840F080002060206800F08000009087
:1019200000980097206840F001002060206800F0D7
:101930000100009000980097206840F002002060AD
:101940002068404C00F0020004F5DE390090009859
:101950004846FFF7DDF93C48039701AD2946029060
:101960004FF40050019004F5E230FFF70BF9012627
:1019700048462946CDE90377CDE90186FFF702F90C
:101980003248334B4FF4803104F55C42C76280F833
:1019900020700776836280F83070C661C0E900214C
:1019A000C0E90277C0E90477CDE90377CDE9017793
:1019B000FEF754FF08B1FEF7BDFE244801A90397C6
:1019C000CDE90166FEF7BEFE08B1FEF7B3FE1F4883
:1019D000FFF766F808B1FEF7ADFE1C480A21FFF7D5
:1019E0000FF808B1FEF7A6FE1848FEF731FF800594
:1019F00004D51648FEF72EFF164908801548002129
:101A00000C224FF4E13340F8044FC0E90131C0E942
:101A10000311C0E90521C161FFF7A6FC08B1FEF77B
:101A200089FE484620210122FFF772F90AA000F042
:101A30001BF8FFF75DFDFFF75BFDFEE73038024066
:101A40009C000020004400400000211054000020B1
:101A50000100000F1000002048656C6C6F20576F6C
:101A6000726C64210A0D00000FB4054B10B503A978
:101A7000044A029800F018F810BC5DF814FB00004E
:101A8000A91800080000002002E008C8121F08C1C1
:101A9000002AFAD170477047002001E001C1121FEF
:101AA000002AFBD1704700002DE9FF4F8DB00F4693
:101AB0000546002606E025280BD0DDE90F129047E9
:101AC0006D1C761C28780028F5D111B03046BDE891
:101AD000F08F0024A246A1460122EC4900E0044315
:101AE00015F8013F203B02FA03F00842F7D12878AD
:101AF0002A2810D06FF02F022878A0F13001092990
:101B000014D80AEB8A0102EB410144F0020400EB15
:101B1000010A6D1CF0E701CF5FEA000A03D544F427
:101B20000054CAF1000A44F002046D1C28782E28E3
:101B300017D115F8010F44F004042A280ED06FF0D5
:101B40002F022878A0F1300109290AD809EB890170
:101B500002EB410100EB01096D1CF2E757F8049B11
:101B60006D1C28786C280FD006DC4C2817D068280C
:101B70000DD06A2814D104E0742810D07A280FD12F
:101B80000DE044F400140AE044F4801401E044F44D
:101B900040146978814202D104F580146D1C6D1CDB
:101BA0002A786E2A1FD00CDC632A31D004DC002A8C
:101BB0008BD0582A11D1A3E0642A68D0692A0CD1AD
:101BC00065E0732A2ED004DC6F2A73D0702A04D10A
:101BD0009BE0752A6FD0782A6ED01046DDE90F128F
:101BE0009047761C50E1C4F30250022806D0032827
:101BF00009D0042801CF09D0066045E101CFF117D3
:101C0000C0E9006140E101CF06803DE106703BE1A3
:101C100017F8040B8DF8000000208DF80100EB464A
:101C2000012003E057F804BB4FF0FF3061074FF08D
:101C3000000102D40DE008F10101884649450FDAA0
:101C40008045F8DB1BF808100029F4D108E008F102
:101C5000010188468142FADB1BF808100029F6D101
:101C6000DDE90F23AAEB08008146214600F036F992
:101C7000304400EB080604E0DDE90F121BF8010B0D
:101C80009047B8F10108F7D221464846F7E00A210B
:101C9000C4F302534FF0000B0891022B04D001CF84
:101CA000C117032B09D00AE0FF1D27F00707F7E84B
:101CB000020108E032E01FE020E000B2C117042B6F
:101CC00001D140B2C117031E71F1000307DA4FF0D2
:101CD000000CD0EB0C006CEB01012D2302E023057E
:101CE00004D52B238DF82430012303E0E30701D032
:101CF0002023F7E7984658E00A2110E010210EE073
:101D000010204FF0000B08900CE010214FF0000B5A
:101D100044F004044FF00809089103E008214FF053
:101D2000000B0891C4F30253022B04D001CF002111
:101D3000032B06D006E0FF1D27F00707F7E8020196
:101D400003E080B2042B00D1C0B24FF0000823079B
:101D50002BD5702A07D0DDF820C08CF0100C5CEA7F
:101D60000B0C05D00EE040238DF82430012308E051
:101D700050EA010306D030238DF824308DF8252059
:101D800002239846DDF820C08CF0080C5CEA0B0CAE
:101D90000BD150EA010301D1630706D530238DF83A
:101DA00024304FF00108A9F10109582A04D038A2C3
:101DB0000B9208AA0A920BE03AA2F9E75B46089A4E
:101DC000FEF766FA0B9B9B5C0A9A521E0A921370EE
:101DD00050EA0102F2D10A98ADEB000000F1200BAD
:101DE000600702D524F4803401E04FF00109D945A1
:101DF00002DDA9EB0B0000E0002000EB0B014144E9
:101E00000890AAEB010AE00306D4DDE90F2321467E
:101E1000504600F063F806444FF0000908E009A9B5
:101E200011F80900DDE90F12904709F10109761C4C
:101E3000C145F4DBE0030CD5DDE90F232146504614
:101E400000F04CF8064404E0DDE90F123020904722
:101E5000761C0899481E08900029F5DC08E00A98CD
:101E60000A990078491C0A91DDE90F129047761C07
:101E7000BBF10001ABF1010BF1DC21465046DDE97D
:101E80000F2300F019F806446D1C1BE60928010019
:101E900030313233343536373839616263646566E0
:101EA00000000000303132333435363738394142A2
:101EB00043444546000000002DE9F041044600255A
:101EC0001E461746880404D405E039462020B04752
:101ED0006D1C641EF9D52846BDE8F0812DE9F0415E
:101EE000044600251E469046C80301D5302700E071
:101EF0002027880404D505E041463846B0476D1CCC
:101F0000641EF9D52846BDE8F081000010B50446EE
:101F100001E0FFF7C9FC14F8010B04490028F8D1CF
:101F2000BDE810400A20FFF7BFBC00000000002001
:101F300000000000920E493CB10AC93C2BC3163D7B
:101F40002EFB483D752B7B3D04A9963D80B6AF3DE9
:101F500036BDC83D2FBCE13D73B2FA3D87CF093E87
:101F60008340163EB5AB223EA2102F3ECF6E3B3EC5
:101F7000C2C5473E0115543E135C603E7F9A6C3EDD
:101F8000CCCF783EC07D823E938E883E229A8E3E94
:101F900032A0943E86A09A3EE59AA03E128FA63EBD
:101FA000D47CAC3EEF63B23E2A44B83E491DBE3EEF
:101FB00015EFC33E53B9C93ECA7BCF3E4136D53E2D
:101FC00080E8DA3E4F92E03E7533E63EBBCBEB3E17
:101FD000EA5AF13ECBE0F63E275DFC3EE4E7003FE7
:101FE0003D9C033F824B063F9BF5083F6B9A0B3F9E
:101FF000DA390E3FCDD3103F2A68133FD9F6153F8B
:10200000C07F183FC6021B3FD17F1D3FCBF61F3F4D
:102010009967223F25D2243F5636273F1594293F02
:102020004AEB2B3FDE3B2E3FBB85303FC9C8323FDA
:10203000F304353F233A373F4268393F3B8F3B3FFC
:10204000F9AE3D3F67C73F3F70D8413F01E2433F94
:1020500003E4453F65DE473F12D1493FF8BB4B3FA4
:10206000029F4D3F207A4F3F3D4D513F4918533F0E
:1020700031DB543FE595563F5348583F6AF2593F8C
:102080001A945B3F532D5D3F05BE5E3F2146603F86
:1020900097C5613F5A3C633F59AA643F880F663F2A
:1020A000D86B673F3CBF683FA7096A3F0C4B6B3F4B
:1020B0005E836C3F93B26D3F9ED86E3F73F56F3F6A
:1020C0000809713F5213723F4714733FDD0B743F91
:1020D0000BFA743FC6DE753F07BA763FC58B773F74
:1020E000F853783F9812793F9DC7793F02737A3F42
:1020F000BE147B3FCDAC7B3F283B7C3FC9BF7C3FC0
:10210000AC3A7D3FCCAB7D3F23137E3FB0707E3F2A
:102110006DC47E3F580E7F3F6D4E7F3FAB847F3F47
:102120000FB17F3F97D37F3F43EC7F3F11FB7F3F52
:102130000000803F11FB7F3F43EC7F3F97D37F3F01
:102140000FB17F3FAB847F3F6D4E7F3F580E7F3F87
:102150006DC47E3FB0707E3F23137E3FCCAB7D3F8E
:10216000AC3A7D3FC9BF7C3F283B7C3FCDAC7B3F39
:10217000BE147B3F02737A3F9DC7793F9812793F27
:10218000F853783FC58B773F07BA763FC6DE753F79
:102190000BFA743FDD0B743F4714733F5213723FC9
:1021A0000809713F73F56F3F9ED86E3F93B26D3F44
:1021B0005E836C3F0C4B6B3FA7096A3F3CBF683F97
:1021C000D86B673F880F663F59AA643F5A3C633F0C
:1021D00097C5613F2146603F05BE5E3F532D5D3F81
:1021E0001A945B3F6AF2593F5348583FE595563F72
:1021F00031DB543F4918533F3D4D513F207A4F3F0B
:10220000029F4D3FF8BB4B3F12D1493F65DE473F30
:1022100003E4453F01E2433F70D8413F67C73F3F7A
:10222000F9AE3D3F3B8F3B3F4268393F233A373F52
:10223000F304353FC9C8323FBB85303FDE3B2E3FFC
:102240004AEB2B3F1594293F5636273F25D2243F92
:102250009967223FCBF61F3FD17F1D3FC6021B3F30
:10226000C07F183FD9F6153F2A68133FCDD3103FE2
:10227000DA390E3F6B9A0B3F9BF5083F824B063FC6
:102280003D9C033FE4E7003F275DFC3ECBE0F63E8C
:10229000EA5AF13EBBCBEB3E7533E63E4F92E03E51
:1022A00080E8DA3E4136D53ECA7BCF3E53B9C93EBF
:1022B00015EFC33E491DBE3E2A44B83EEF63B23E11
:1022C000D47CAC3E128FA63EE59AA03E86A09A3EF4
:1022D00032A0943E229A8E3E938E883EC07D823EEE
:1022E000CCCF783E7F9A6C3E135C603E0115543E25
:1022F000C2C5473ECF6E3B3EA2102F3EB5AB223E3D
:102300008340163E87CF093E73B2FA3D2FBCE13DB4
:1023100036BDC83D80B6AF3D04A9963D752B7B3DCB
:102320002EFB483D2BC3163DB10AC93C920E493CD9
:1023300000000000920E49BCB10AC9BC2BC316BDF7
:102340002EFB48BD752B7BBD04A996BD80B6AFBDE5
:1023500036BDC8BD2FBCE1BD73B2FABD87CF09BE83
:10236000834016BEB5AB22BEA2102FBECF6E3BBEC1
:10237000C2C547BE011554BE135C60BE7F9A6CBED9
:10238000CCCF78BEC07D82BE938E88BE229A8EBE90
:1023900032A094BE86A09ABEE59AA0BE128FA6BEB9
:1023A000D47CACBEEF63B2BE2A44B8BE491DBEBEEB
:1023B00015EFC3BE53B9C9BECA7BCFBE4136D5BE29
:1023C00080E8DABE4F92E0BE7533E6BEBBCBEBBE13
:1023D000EA5AF1BECBE0F6BE275DFCBEE4E700BFE3
:1023E0003D9C03BF824B06BF9BF508BF6B9A0BBF9A
:1023F000DA390EBFCDD310BF2A6813BFD9F615BF87
:10240000C07F18BFC6021BBFD17F1DBFCBF61FBF49
:10241000996722BF25D224BF563627BF159429BFFE
:102420004AEB2BBFDE3B2EBFBB8530BFC9C832BFD6
:10243000F30435BF233A37BF426839BF3B8F3BBFF8
:10244000F9AE3DBF67C73FBF70D841BF01E243BF90
:1024500003E445BF65DE47BF12D149BFF8BB4BBFA0
:10246000029F4DBF207A4FBF3D4D51BF491853BF0A
:1024700031DB54BFE59556BF534858BF6AF259BF88
:102480001A945BBF532D5DBF05BE5EBF214660BF82
:1024900097C561BF5A3C63BF59AA64BF880F66BF26
:1024A000D86B67BF3CBF68BFA7096ABF0C4B6BBF47
:1024B0005E836CBF93B26DBF9ED86EBF73F56FBF66
:1024C000080971BF521372BF471473BFDD0B74BF8D
:1024D0000BFA74BFC6DE75BF07BA76BFC58B77BF70
:1024E000F85378BF981279BF9DC779BF02737ABF3E
:1024F000BE147BBFCDAC7BBF283B7CBFC9BF7CBFBC
:10250000AC3A7DBFCCAB7DBF23137EBFB0707EBF26
:102510006DC47EBF580E7FBF6D4E7FBFAB847FBF43
:102520000FB17FBF97D37FBF43EC7FBF11FB7FBF4E
:10253000000080BF11FB7FBF43EC7FBF97D37FBFFD
:102540000FB17FBFAB847FBF6D4E7FBF580E7FBF83
:102550006DC47EBFB0707EBF23137EBFCCAB7DBF8A
:10256000AC3A7DBFC9BF7CBF283B7CBFCDAC7BBF35
:10257000BE147BBF02737ABF9DC779BF981279BF23
:10258000F85378BFC58B77BF07BA76BFC6DE75BF75
:102590000BFA74BFDD0B74BF471473BF521372BFC5
:1025A000080971BF73F56FBF9ED86EBF93B26DBF40
:1025B0005E836CBF0C4B6BBFA7096ABF3CBF68BF93
:1025C000D86B67BF880F66BF59AA64BF5A3C63BF08
:1025D00097C561BF214660BF05BE5EBF532D5DBF7D
:1025E0001A945BBF6AF259BF534858BFE59556BF6E
:1025F00031DB54BF491853BF3D4D51BF207A4FBF07
:10260000029F4DBFF8BB4BBF12D149BF65DE47BF2C
:1026100003E445BF01E243BF70D841BF67C73FBF76
:10262000F9AE3DBF3B8F3BBF426839BF233A37BF4E
:10263000F30435BFC9C832BFBB8530BFDE3B2EBFF8
:102640004AEB2BBF159429BF563627BF25D224BF8E
:10265000996722BFCBF61FBFD17F1DBFC6021BBF2C
:10266000C07F18BFD9F615BF2A6813BFCDD310BFDE
:10267000DA390EBF6B9A0BBF9BF508BF824B06BFC2
:102680003D9C03BFE4E700BF275DFCBECBE0F6BE88
:10269000EA5AF1BEBBCBEBBE7533E6BE4F92E0BE4D
:1026A00080E8DABE4136D5BECA7BCFBE53B9C9BEBB
:1026B00015EFC3BE491DBEBE2A44B8BEEF63B2BE0D
:1026C000D47CACBE128FA6BEE59AA0BE86A09ABEF0
:1026D00032A094BE229A8EBE938E88BEC07D82BEEA
:1026E000CCCF78BE7F9A6CBE135C60BE011554BE21
:1026F000C2C547BECF6E3BBEA2102FBEB5AB22BE39
:10270000834016BE87CF09BE73B2FABD2FBCE1BDB0
:1027100036BDC8BD80B6AFBD04A996BD752B7BBDC7
:102720002EFB48BD2BC316BDB10AC9BC920E49BCD5
:10273000000000800000000000000000010203040F
:10274000060708090000000001020304424F584632
:1027500028302C302C3438302C3332302C31352981
:102760003B4250494328312C3138302C39302C3100
:10277000293B4250494328322C3133302C302C3203
:10278000293B534243283135293B445332342830C6
:102790002C302C2753797374656D20496E697469E8
:1027A000616C697A696E672E2E2E2E2E2E272C30A4
:1027B000293B0D00D8270008000000201000000071
:1027C000881A0008E8270008100000209005000083
:1027D000981A00080000000000000000010000003E
:0827E000100000000024F400C9
:04000005080001C529
:00000001FF
