:020000040800F2
:10000000280C0020D901000823250008D31F000870
:1000100021250008ED0900084F2D00080000000010
:100020000000000000000000000000004126000861
:10003000AB0A00080000000025250008612900081F
:10004000F3010008F3010008F3010008F3010008C0
:10005000F3010008F3010008F3010008F3010008B0
:10006000F3010008F3010008F3010008F3010008A0
:10007000F3010008F3010008F3010008F301000890
:10008000F3010008F3010008F3010008F301000880
:10009000F3010008F3010008F3010008F301000870
:1000A000F3010008F3010008F3010008F301000860
:1000B000F3010008F30100084D2A0008F3010008CD
:1000C000F3010008F3010008F3010008F301000840
:1000D000F3010008F30100084D2D0008F3010008AA
:1000E000F3010008F3010008F3010008F301000820
:1000F000F3010008F3010008F3010008F301000810
:10010000F3010008F3010008F3010008F3010008FF
:10011000F3010008F3010008F3010008F3010008EF
:10012000F3010008F3010008F3010008F3010008DF
:10013000F30100080000000000000000F3010008C7
:10014000F3010008F3010008F3010008F3010008BF
:10015000F3010008F3010008F3010008F3010008AF
:10016000F3010008F3010008F3010008F30100089F
:10017000F3010008F3010008F3010008000000008B
:1001800000000000F3010008000000000000000073
:10019000F30100080000000000000000F301000867
:1001A000000000000000000000000000F301000853
:1001B000F3010008F3010008F3010008F30100084F
:1001C000F3010008DFF80CD000F0BEFB0048004748
:1001D000012E0008280C00200648804706480047EA
:1001E000FEE7FEE7FEE7FEE7FEE7FEE7FEE7FEE7E7
:1001F000FEE7FEE7012A0008C5010008B5EEC00AC7
:10020000F1EE10FA07D2DFED1E0AB4EEE00AF1EECD
:1002100010FAA8BF7047DFED1B0AB5EEC00A60EE0A
:10022000200ABDEEE01A11EE100AF1EE10FA38BF06
:10023000401E00EE100A1549F7EE001AB8EEC00A8B
:1002400030EEC00ADFED100A60EE200ABCEEE00AD4
:1002500010EE100AC0F3080000EE100A01EB800057
:10026000B8EE400A90ED011A70EEC00A90ED000A57
:1002700071EEE01A21EE800A00EE810A704700005C
:10028000CD024CB483F9223E0000004474380008CB
:100290002DE9F05F0546002092469B4688460646BB
:1002A000814640241BE0284641464746224600F04E
:1002B00064FA53465A46C01A914110D31146184663
:1002C000224600F04BFA2D1A67EB01084F462246F2
:1002D0000120002100F042FA17EB00094E41201ED8
:1002E000A4F10104DFDC484631462A464346BDE816
:1002F000F09FD2B201E000F8012B491EFBD27047FB
:100300000022F6E710B513460A4604461946FFF7E1
:10031000F0FF204610BD2DE9FE4F804681EA030024
:10032000C00F0C46009021F0004123F00045B8EBCF
:100330000200A94105D24046214690461C460B4684
:10034000024623F00040104347D0270DC7F30A00B0
:10035000C3F30A510290401A019040286BDAC3F3AC
:10036000130040F4801B0098924620B10023D2EB8A
:10037000030A63EB0B0B01985946C0F1400250464B
:1003800000F0ECF906460D4650465946019A00F039
:1003900004FA10EB08006141002487EA115284EA54
:1003A000E7731A4340D0009A62B3019A012A4FEAD8
:1003B000075215DC001B61EB02014FF0004202EA1C
:1003C0000752CDE90042001C41F5801132462B4610
:1003D00000F03BFA03B0BDE8F08F40462146F9E754
:1003E000001B61EB0201001C41F5801300185B410A
:1003F0002018A2F5001747EB030140EAD570B619A3
:100400006D4111E06D084FEA360645EAC0754FEAC6
:100410000752001B61EB0201001C41F580114908E5
:100420004FEA30000019514132462B4603B0BDE877
:10043000F04F00F0FBB90098012240000023D0EB00
:10044000020263EBE073009821464FEAE074B8EBD8
:10045000000061EB0401E9E783F000435BE781F012
:10046000004158E72DE9FE4F81EA030404F00044FF
:1004700021F0004100944FF0000B23F0004350EABC
:1004800001045ED052EA03045BD0C3F30A54C1F303
:100490000A552C44A4F2F3340194A0FB0254C1F396
:1004A000130141F48011C3F3130343F4801301FBE0
:1004B000024400FB034E840A970A44EA815447EA47
:1004C0008357A4FB076802958D0A05FB07854FEA51
:1004D000932C04FB0C542705029D4FEA065847EA6B
:1004E0001637B5EB08056EEB070C870E920E47EA40
:1004F000811742EA8312A7FB0201B6EB0B0164EB02
:1005000000042B0D43EA0C335E1844EB1C50DA4612
:100510005146E7FB0201C5F313044FEA0B3343EAEC
:1005200014534FEA0432019C43EA0603A4F10C047D
:100530000294009CCDE900B400F087F903B0BDE857
:10054000F08F00200146F9E72DE9F04D81EA030420
:1005500004F0004B21F0004514464FF0000A23F050
:10056000004150EA050220D054EA01021DD0C5F333
:100570000A570246C5F31303C1F31300C1F30A5629
:1005800040F4801543F48013A7EB0608101BD646F1
:1005900008F2FD3873EB050002D308F1010801E011
:1005A00092185B41B8F1000F03DA00200146BDE864
:1005B000F08D00204FF48011064684460EE0171B94
:1005C00073EB050705D3121B63EB050306434CEAE7
:1005D000010C49084FEA300092185B4150EA0107CC
:1005E000EDD152EA030012D082EA040083EA050149
:1005F000084305D0101BAB4106D20122002306E0C0
:1006000000224FF0004302E06FF0010253101AEB9A
:1006100006004CEB085110EB0A0041EB0B01BDE862
:10062000F04D00F003B90EB5C10F80EAE070084448
:10063000CA07002140F233438DE80E000A460B46FC
:1006400000F003F903B000BD0EB540F23341029152
:100650000021CDE900110A460B4600F0F6F803B080
:1006600000BD70B5C1F30A5201F000450024C1F38A
:10067000130140F2FF3341F480119A4201DA002065
:1006800070BD40F233439A42A2F2334203DC52423D
:1006900000F073F800E090402C43F1D0404270BD70
:1006A000C1F30A5210B5C1F3130140F2FF3341F414
:1006B00080119A4201DA002010BD40F233439A4281
:1006C000A2F2334203DC524200F057F810BD9040D2
:1006D00010BD00F0004230F000400AD0C10D01F51D
:1006E0006071C0F3160042EA0151C208400711438D
:1006F000704700200146704701F0004330B421F0FC
:10070000004150EA010206D00A0DA2F56072C1F361
:100710001301002A02DC30BC00207047440F44EA79
:10072000C104C100E01830BC00EBC25000F047B873
:1007300030B50B46014600202022012409E021FAB1
:1007400002F59D4205D303FA02F5491B04FA02F5AE
:100750002844151EA2F10102F1DC30BD202A04DB81
:10076000203A00FA02F1002070479140C2F12003C4
:1007700020FA03F3194390407047202A04DB203A03
:1007800021FA02F00021704721FA02F3D040C2F1B1
:1007900020029140084319467047202A06DBCB17F8
:1007A000203A41FA02F043EAE07306E041FA02F32C
:1007B000D040C2F1200291400843194670470029F9
:1007C000A8BF7047401C490008BF20F001007047D7
:1007D00010B4B0FA80FC00FA0CF050EA010404BF37
:1007E00010BC704749B1CCF1200421FA04F411FA8D
:1007F0000CF118BF012121430843A3EB0C01CB1DD1
:100800004FEA00614FEA102042BF002010BC704741
:1008100000EBC35010440029A4BF10BC7047401C1B
:10082000490008BF20F0010010BC704710B5141E2D
:1008300073F1000408DA401C41F1000192185B4199
:100840001A4301D120F0010010BD2DE9F04D924670
:100850009B4611B1B1FA81F202E0B0FA80F2203287
:100860009046FFF77BFF04460F4640EA0A0041EA44
:100870000B0153465A46084313D0114653EA010070
:1008800019D0C8F140025046FFF777FF05460E46E3
:10089000504659464246FFF761FF084305D0012004
:1008A00004E020463946BDE8F08D0020054346EAC5
:1008B000E0762C4337430A986305E40AA0EB08006E
:1008C0000022FD0A44EA47540A3002D500200146BE
:1008D000E9E7010510196941DDE908450019694199
:1008E000BDE8F04DA2E7C1F30A52C1F3130140F293
:1008F000FF3341F480119A4202DA0020014670472A
:1009000040F233439A42A2F2334202DC5242FFF7F2
:1009100034BFFFF723BF000030B5041E71F100049F
:1009200004DB4FF00044404264EB0101141E73F1FC
:10093000000405DB1C464FF00043524263EB040306
:10094000994208BF904230BD064C074D06E0E06872
:1009500040F0010394E8070098471034AC42F6D306
:10096000FFF734FCF0400008104100080146806B9E
:10097000036C026C13F0500F07D0D20648BF00F092
:1009800025B9806BC26C0846104742F400710164BF
:1009900001688A6812F0405F1AD1027E002A18BFEF
:1009A00000F012B9CA6A12F4700F02D08A685205B8
:1009B0000ED44A6822F020024A60016C21F4807152
:1009C0000164016CC9045EBF016C41F00101016466
:1009D00000F0FAB8806B40210164416C41F00401E1
:1009E000416400F0F3B8806B00F0EFB8FEE710B59B
:1009F000846B204600F0B7FA0120207110BD10B5BD
:100A0000846B204600F082FA0120207110BD10B5E1
:100A1000846B206940F004002061204600F0A5FAB4
:100A20000120207110BD10B5846B206940F00400D6
:100A30002061204600F06CFA0120207110BD806B0F
:100A400000F092BA806B00F062BA000001686FF0AB
:100A50000F0240F2FF3352FA81F2994318235F2AC2
:100A6000B2FBF3F203A388BF043181659A5CC265CF
:100A700008467047000610160006101680B5D0F81C
:100A800000C0DCF800E02EF4802ECCF800E0CCF8BA
:100A9000043080684028084608BF1046CCF808009B
:100AA00008BF0A46CCF80C2080BD704702482021C0
:100AB000012200F0D1BC00BF0000024078B5002246
:100AC000009290F83C20012A01D1022149E0012244
:100AD00080F83C20D1F800E01FFA8EFCBEF10A0F2E
:100AE0004FEA4C0212FA8EF204D303681E3A03F165
:100AF0000C0402E0036803F1100407252668954002
:100B000026EA050525608D6805FA02F225682A4364
:100B100022604A68062A05D802EB820203F13401FA
:100B2000053A0BE002EB82040C2A87BF03F12C018B
:100B3000A4F1410203F13001A4F123021F240D6846
:100B400094400CFA02F225EA04040C600E68324369
:100B50000A606C49A1F54172934205D0002180F8EA
:100B60003C10084601B070BDBEF1110F0ED0154A01
:100B700096450BD0BEF1120FF0D10A6822F40002A4
:100B80000A600A6842F480020A60E7E70A6822F411
:100B900080020A600A6842F400020A6009498E4530
:100BA000DCD1D249D24A0968B1FBF2F101EB8101F3
:100BB000490001E000990139009100990029F9D11B
:100BC000CCE700BF1200001070477047704700006C
:100BD000002842D010B50446006C30B9204600F021
:100BE00099F8002084F83C006064206CC00636D47C
:100BF000206C41F20211444B88430230206441488A
:100C0000016821F4403101606168026811430160AC
:100C10002068416821F4807141602169426842EA9C
:100C200001214160416821F040714160A168426842
:100C300011434160816821F400618160E16882684C
:100C400011438160A16A826822F0706299428260D9
:100C5000826806D122F040510CE00120704701204B
:100C60004CE011438160816821F040518160E16A6C
:100C7000826811438160816821F002018160217ED8
:100C8000826842EA4101816094F8202041686AB19B
:100C900041F400611D4A4160416821F460414160B6
:100CA000616A02EB41314268114301E021F40061C5
:100CB0004160174AC16A21F47001C162E16902EB27
:100CC0000151C26A1143C162816821F400718160DF
:100CD00094F83010826842EA41218160816821F4F1
:100CE000806181606169826842EA812101228160BC
:100CF00000206064216C62F301012164002184F80A
:100D00003C1010BD042301400100000F00E0FFFF74
:100D10000000F0FF2DE9F04186B0044601A814213F
:100D2000FFF7EEFA2068764FB8424FD10026B1485F
:100D30000DF1040803250096416941F48071416179
:100D4000416901F48071009100990096016841F0B9
:100D500004010160016801F004010091009900960E
:100D6000016841F0010101604146006800F00100A6
:100D7000009000980396CDE9015507F5684000F012
:100D8000A5FA0220CDE902564146019007F56040E0
:100D900000F09CFA0F4D104F4FF480704FF48041DB
:100DA0004FF480524FF48063C5E90866C5E90076C8
:100DB000C5E90266C5E90432C5E90610284600F017
:100DC0008BF908B1FFF772FEA563AC6306B0BDE80E
:100DD000F08100BFC001002010640240BCB5044691
:100DE0000020019094F83C00012801D102207AE013
:100DF000012013460A4684F83C0021688868C00731
:100E000011D188683A4D40F0010088603748006889
:100E1000B0FBF5F000EB400001E0019801380190D3
:100E200001980028F9D18868C0075BD0206C40F297
:100E30000175A84300F5807020644868400504D51A
:100E4000206C012565F30D302064206C4FF0000C00
:100E5000284DC0044FF0000044BF606C20F0060035
:100E600084F83CC06064DFF890C0A06BC564234D7B
:100E7000C0E90F5C6FF022050D604D6845F080659C
:100E80004D608D6845F480758D604C3100F0D9F966
:100E90001B49D1F804232068D2060AD0884221D108
:100EA000886810F0405F1DD1886840F080408860FD
:100EB00018E088420ED0134A904207D0124A90425E
:100EC00010D1D1F80413C9060CD103E0D1F80413F2
:100ED000C90607D4816811F0405F03D1816841F0F1
:100EE00080418160002002B0B0BD00BF1000002032
:100EF00040420F00D5090008E70900086D09000805
:100F0000002001400022014000210140704770474D
:100F1000704790F805C00223BCF1010F21D080B5C5
:100F2000037140F6FE73D0F800E003FA02FCDEF82D
:100F3000003023EA0C0CD1E9003119430023914021
:100F400041EA0C01CEF80010C0219140DEF80020EB
:100F500022EA0101CEF80010012143710171BDE8C0
:100F600080401846704770477047704778B110B599
:100F70000446007920B900206071204600F00AF88C
:100F800002200121207100202061217110BD01206B
:100F90007047000010B586B0044601A81421FFF781
:100FA000AFF92168124881421FD10021114A00F592
:100FB000C6300091136943F000531361136903F0C5
:100FC00000530093009B0091136843F001031360EA
:100FD000126802F001020092009A0391032102912B
:100FE0001021019101A900F071F906B010BD00BFF8
:100FF000007400403038024070B50E464179044616
:101000000220012908BF70BDDDF810C02071012049
:10101000002E607119D0E06829492B4DBCF1080FF2
:10102000C1642849C0E90F5121680D6845F0805519
:101030000D6025D0BCF1040F25D0BCF1000F0CBF12
:1010400001F1140C4FF0000C1FE0A0681F49DFF8FD
:1010500080E0BCF1080FC1641E49C0E90F1E216881
:101060000D6845F480550D6013D0BCF1040F13D00A
:10107000BCF1000F0CBF01F1080C4FF0000C0DE0AB
:1010800001F11C0C01E001F1180C0D6845F0005550
:1010900007E001F1100C01E001F10C0C0D6845F4C2
:1010A00000550D601146624600F0CBF82168012022
:1010B000B0400A68104308600020607170BD00BF36
:1010C000270A0008450A0008FF0900080F0A00085F
:1010D0003F0A0008EF0900082DE9F041044600F03E
:1010E000C1F9002C4FD00546022084F835000020BD
:1010F00084F834002168086820F00100086005E0E9
:1011000000F0B0F9401B052840D821680868C007E6
:10111000F6D10868394AD4E9013504F10C0800EA2F
:10112000020C98E8C101D4E9072E43EA0C032B43D3
:101130001843636A30433843042B40EA080040EA0E
:10114000020040EA0E0225D1D4E90BE042EA0E0289
:10115000BEF1000F40EA0200086051F8140FA26AC5
:1011600020F0030040EA020040F0040C19D0B8F56A
:10117000005F28D0B8F1000F35D1022A36D0012AFD
:101180002BD09AB30DE00120BDE8F0810325202388
:10119000032013E00A6051F8140F20F0070040EA22
:1011A000030C2046C1F800C0FFF750FCE16D3F2260
:1011B0000023012502FA01F181600020636584F8B3
:1011C0003550BDE8F081032AEBD8012540230120EA
:1011D000DFE802F0020C0203F0E7AEF1C070B0FAF3
:1011E00080F0400904E0032A04D3DAD1CEF3006092
:1011F0000028D6D0012540230120DFE73F8010F0F2
:10120000B0B5044690F83400012817D0012084F8C6
:10121000340094F8350001280DD10220002584F80F
:10122000350020466565FFF729FC2068016841F01C
:101230000101016003E0002084F834000225284603
:10124000B0BDB0B5044690F8340001282CD0012080
:10125000A56D84F8340094F83500012821D10220CE
:1012600084F83500002060652046FFF707FCE06D3C
:101270003F2101FA00F0A8602068016841F01601E2
:101280000160416941F080014161216C19B101683F
:1012900041F008010160016841F001010160002096
:1012A000B0BD002084F834000220B0BDB0B50446C3
:1012B00000F0D8F805468D48611C007818BF04443A
:1012C00000F0D0F8401BA042FAD3B0BD2DE9F84F92
:1012D0005B4A4FF0070A4FF0010B4FF000084FF048
:1012E000000E9042574A08BF4FF0060A02444FEAE8
:1012F000B223062B38BF4FEAB22A0022102A08BFB9
:10130000BDE8F88F0B680BFA02F6334200F09180CB
:101310004B6843F01004122C13D16FF003040EF04D
:101320001C030F2704EA520507FA03FC05442C6A44
:1013300024EA0C0C0C6904FA03F343EA0C032B6255
:101340004B68032703F00305122B07FA08F407681C
:1013500005FA08F56FEA040C27EA040747EA0507CF
:10136000076013D80BFA03F414F0061F0ED084683C
:10137000CD6804EA0C0405FA08F52C438460C3F335
:10138000001445689440B5432C434460C4688D689C
:10139000DB0004EA0C0705FA08F547EA0507C76011
:1013A00047D50023284C0EF00C050093284BA4468B
:1013B0001F461B6843F480433B603B6803F4804353
:1013C000009322F003032344224C009FA1461F599F
:1013D0000F24AC400AFA05F5A7432F4343F80970E0
:1013E000DCF800304D6843EA0607EC0358BF23EAF7
:1013F0000607CCF80070AC03DCF8043043EA0607BB
:1014000058BF23EA0607CCF80470EC02DCF8083079
:1014100043EA060758BF23EA06070C4BCCF80870CE
:10142000AD021C461B6843EA060758BF23EA0607BD
:10143000276008F102080EF1040E01325EE700BFDA
:10144000001802400000FEBF003C01400C3C01407F
:101450004438024008FCFFFF002A08BF09048161EC
:101460007047000005480068704700BF1F480349E7
:1014700000780A6810440860704700BF2008002008
:1014800080B50B48016841F400710160016841F4C6
:1014900080610160016841F480710160032000F007
:1014A00071F8002000F006F800F022F8002080BD5E
:1014B000003C024070B50D4E04464FF47A7130780E
:1014C000B1FBF0F089490968B1FBF0F000F0DAFAFD
:1014D00001250F2C08D838B94FF0FF3021460022E3
:1014E000002500F031F87460284670BD0800002027
:1014F00082B000200C4901904A6842F480424A6060
:101500004A6802F480420192019A0090086840F013
:1015100080500860086800F0805000900098072014
:1015200002B000F02FB800BF40380240002808DBAE
:1015300000F01F010122400902FA01F1014A42F8BC
:101540002010704700E100E080B5144B1B68C3F326
:10155000022CBCF1030E8CF007034FF0FF3C38BFA8
:101560004FF0000E042B28BF04230CFA03F3994319
:101570000CFA0EF301FA0EF19A431143BDE88040D4
:1015800001F020BC05494FF6FF030A681A4060F3DA
:101590000A22034810430860704700BF0CED00E0CA
:1015A0000000FA052DE9F041002800F08380434B4C
:1015B00004468846D3F8000400F00F00884207D2A2
:1015C00083F80084D3F8000400F00F00404571D187
:1015D0002068810711D5410742BF996841F4E05165
:1015E0009960010742BF996841F460419960996828
:1015F000A26821F0F00111439960C0072AD0606809
:10160000811E022903D21968890109D452E00128F8
:1016100003D11968890303D44CE01968890749D5B7
:1016200099681D4621F0030108439860FFF71AFFEF
:10163000064641F28837A86861682B4600F00C0026
:10164000B0EB810F06D0FFF70DFF801BB842F2D937
:10165000032430E0D3F8000400F00F00404507D920
:1016600083F80084D3F8000400F00F00404521D136
:101670002068410705D59968E26821F4E0511143DB
:101680009960000706D59868216920F4604040EA17
:10169000C10098601C4600F02FF8A168084A002499
:1016A000C1F30311515CC840104908600020FFF7E6
:1016B00001FF00E001242046BDE8F081003802402F
:1016C0007840000809480A490A4A00680968C1F3D5
:1016D0008221515CC840704704480549054A0068AA
:1016E0000968C1F34231515CC840704710000020C6
:1016F000083802408840000810B5204C6068C0F3EC
:1017000081011F48032915D0022904D0012904BFF3
:101710001C4810BD10BD2168236801F03F022168FC
:101720005B02C1F3881114D4A1FB00010023FEF772
:10173000AFFD12E02168236801F03F0221685B02DF
:10174000C1F3881110D4A1FB00010023FEF7A0FD16
:101750000EE00C484843B0FBF2F021680222C1F3CE
:10176000014102EB410106E006484843B0FBF2F0BC
:101770002168C1F30271B0FBF1F010BD04380240E2
:101780000024F40000127A002DE9FC4104460078A0
:10179000B94EC00737D0B06800F00C0004282BD039
:1017A000B06800F00C00082802D17068400223D411
:1017B000B06800F00C000C2802D1706840021BD405
:1017C0006768B7F5803F07D03068B7F5A02F40F0C5
:1017D000138140F480203060306840F48030306005
:1017E000FFF740FE0546306880030CD4FFF73AFE51
:1017F000401B6428F7D9A6E03068800303D56068F1
:10180000002800F0DA802078800734D5B06810F026
:101810000C0F0FD0B06800F00C00082802D17068DF
:10182000400207D5B06800F00C000C2809D17068A0
:10183000400206D43068800716D5E068012813D02E
:10184000BBE0E068002800F080808C480121016046
:10185000FFF708FE05463068800705D4FFF702FE53
:10186000401B0228F7D96EE03068216920F0F800AB
:1018700040EAC10030602078000721D5606978B166
:101880007E480121C0F8801EFFF7ECFD0546706F11
:10189000800715D4FFF7E6FD401B0228F7D952E078
:1018A00076480021C0F8801EFFF7DCFD0546706F0A
:1018B000800705D5FFF7D6FD401B0228F7D942E087
:1018C0002078400771D5306C4FF00008C0000CD470
:1018D000CDF804804FF00108306C40F08050306447
:1018E000306C00F0805001900198654F3868C00559
:1018F0000FD4386840F480703860FFF7B3FD0546B8
:101900003868C00505D4FFF7ADFD401B0228F7D9A4
:1019100019E0A768012F05D0306F052F26D140F0C0
:1019200004003067306F40F001003067FFF79AFD28
:10193000054641F28837306F80072FD4FFF792FDBC
:10194000401BB842F7D9032092E04C4800210160C7
:10195000FFF788FD0546306880077FF58CAFFFF7FD
:1019600081FD411B03200229F5D981E020F001000F
:101970003067306F20F004003067FFF773FD0546D5
:10198000002FD6D141F28837306F800706D5FFF798
:1019900069FD411B0320B942F6D969E0B8F1000F97
:1019A0001EBF306C20F080503064A769002F5ED0DD
:1019B000B06800F00C00082801D1012058E02F4940
:1019C000002088460866FFF74DFD0546022F09D125
:1019D0003068800128D5FFF745FD411B032002290F
:1019E000F6D945E03068800141D5FFF73BFD411B4A
:1019F00003200329F6D33BE020F4803030603068C8
:101A000020F480203060FFF72DFD0546002F7FF485
:101A1000EAAE306880037FF5F6AEFFF723FD411B89
:101A200003206429F5D923E004F11C078FCF256B2F
:101A30000843D90340EA82104FF6FF72914340EA0F
:101A40000760A1F58031084340EA0570706001200D
:101A5000C8F86000FFF706FD04463068800106D430
:101A6000FFF700FD011B03200229F6D900E000204A
:101A700002B0BDE8F08100BF0038024000004742DC
:101A800000700040411E0020B0EB116F1CBF012010
:101A90007047044AF023516003490B70072190609E
:101AA0001160704710E000E023ED00E070477047E0
:101AB00090F83C300222012B19D010B580F83D205F
:101AC0000268D2F804E0D2F808C0D1E900342EF060
:101AD0007001194351602CF0800121439160002274
:101AE000012180F83C2080F83D10BDE810401046F0
:101AF0007047B0B110B5044690F83D0028B90020F9
:101B000084F83C00204600F00FF80220211D84F8E4
:101B10003D00206800F0A6FF012084F83D00002071
:101B200010BD01207047000000680D49884218BFB1
:101B30007047E0B50020032201900A48016841F097
:101B4000040101600121006800F004000190019887
:101B50001E20FFF7F9FC1E20BDE88C40FFF7E6BC15
:101B60000008004040380240022180F83D10016822
:101B70008A6802F00702062A1EBF0A6842F00102C4
:101B80000A60012180F83D100020704710B590F8E0
:101B90003C2004460220012A08BF10BD84F83D0005
:101BA00001204FF6777284F83C00206884465CF888
:101BB000083F23EA0202CCF800200B682BB1102B5F
:101BC00003D0202B18BF302B0FD1DCF8000020F001
:101BD0007000184340F00700CCF8000000200121FD
:101BE00084F83C0084F83D1010BD402B1AD0502BD7
:101BF00026D0602B32D0B3F5005F3DD0702BEDD1F5
:101C0000D1E90102C968104340EA0120DCF8001064
:101C100021F47F410843CCF80000DCF8000040F0DC
:101C20007700D9E74B68CA68194600F083FFD4F8FB
:101C300000C05CF8080F40F0470020F03000CBE710
:101C40004B68CA68194600F075FFD4F800C05CF80C
:101C5000080F40F0570020F02000BDE74B68CA682D
:101C6000194600F078FFD4F800C05CF8080F40F087
:101C7000670020F01000AFE7D1E90102C968104306
:101C800040EA0120DCF8001021F47F410843CCF841
:101C90000000DCF8000040F480409DE7704710B57C
:101CA000044600680169890744BFC1685FEA817121
:101CB00038D40169490744BFC1685FEA41713DD426
:101CC0000169090744BFC1685FEA017143D4016932
:101CD000C90644BFC1685FEAC16148D40169C90748
:101CE0001CBFC1685FEAC1714ED10169090644BFDA
:101CF000C1685FEA01614FD40169490644BFC16808
:101D00005FEA416150D40169890646BFC1685FEA54
:101D1000816110BD6FF0200101612046BDE81040D7
:101D2000FFF7C5BE6FF002010161012121778069D3
:101D3000800741D02046FFF7B1FF43E06FF0040178
:101D4000016102212177806910F4407F3ED0204656
:101D5000FFF7A4FF40E06FF0080101610421217743
:101D6000C06980073CD02046FFF798FF3EE06FF047
:101D70001001016108212177C06910F4407F39D03A
:101D80002046FFF78BFF3BE06FF001010161204629
:101D900000F03CF82068A8E76FF080010161204660
:101DA000FFF784FE2068A7E76FF04001016120463D
:101DB00000F02DF82068A6E7204600F025F8204620
:101DC00000F023F800202077206872E7204600F01A
:101DD0001BF8204600F019F80020207720686FE7F4
:101DE000204600F011F8204600F00FF80020207780
:101DF00020686CE7204600F007F8204600F005F860
:101E000000202077206869E7704770477047704767
:101E100050B310B5044690F8390028B9002084F872
:101E20003800204600F022F8242084F83900206889
:101E3000C16821F40051C160204600F09DFE206879
:101E4000016921F490410161416921F02A01416158
:101E5000C16841F40051C16000202021E06384F892
:101E6000391084F83A1010BD0120704710B586B0C3
:101E7000044601A81421FEF743FA20682649884247
:101E800023D02649884244D10020EB4900904A697A
:101E900042F010024A614A6902F010020092009A70
:101EA0000090086840F001000860086800F0010038
:101EB00000900098072005900320049001200390D3
:101EC000022002904FF4C0601EE00020DA4900902A
:101ED0000A6942F400320A610A6902F4003200928F
:101EE000009A0090086840F001000860086800F05F
:101EF0000100009000980720059003200490012025
:101F00000390022002900C200190054801A9FFF7E0
:101F1000DDF906B010BD00BF0044004000100140D4
:101F2000000002402DE9F041044690F839002028D5
:101F30000AD10E460120002949D01746002A46D072
:101F400094F83800012802D10220BDE8F081002079
:101F50001D46E063012084F83800212084F8390010
:101F6000FFF780FA8046E784A7841DE0E08C80219B
:101F700042462B460138E0842046A76800F0BAFEAE
:101F8000B7F5805F0BD1C8B9318820686FF35F2146
:101F900041602069002814BF0136023604E068B9A8
:101FA000206816F8011B4160E08C0028DED1204635
:101FB000402142462B4600F09DFE10B10320BDE8B3
:101FC000F0810020202184F8380084F83910BDE821
:101FD000F081FEE710B5084C08A0A0473220FFF7BB
:101FE00065F909A0A0473220FFF760F90BA0214650
:101FF000BDE81040084700BF51380008434C532843
:102000003135293B0D0000004250494328312C3125
:1020100038302C39302C31293B0D000042504943D7
:1020200028322C3133302C302C32293B0D0000006B
:10203000014801F00DBC00BF9540000801A001F06F
:1020400007BC00BF44515828322C3138302C352C75
:1020500032302C36332C35293B0D00001CB5064C94
:1020600013460A46009005A1204600F06FFF204667
:10207000BDE81C4000F05ABF8400002050533234A9
:1020800028302C25642C25642C272573272C3029F7
:102090003B0D0A007CB5054610EE100A0C46FEF713
:1020A00018FB084E41EC100B07A12A4623468DED84
:1020B000000B304600F04AFF3046BDE87C4000F09F
:1020C00035BF00BF840000205053323428302C2507
:1020D000642C25642C27252E3366272C30293B0DB4
:1020E0000A000000BFB51F48204B002101241E4AF2
:1020F000C16280F8201004768362032380F83040A8
:10210000C361C0E90021C0E90211C0E90444CDE97E
:102110000211CDE90011FEF75BFD08B1FEF7C6FC28
:102120001048022569460295CDE90044FEF7C6FC39
:1021300008B1FEF7BBFC0A200195694600900948EA
:10214000FEF7BCFC08B1FEF7B1FC03206946019024
:102150000B2000900348FEF7B1FC08B1FEF7A6FC87
:10216000BFBD00BF04010020002001400100000F9E
:102170001FB51048104901600021CDE90211FEF79A
:10218000F5FE08B1FEF792FC022002A9002200240D
:102190000390242002900748FEF7BBFE08B1FEF72B
:1021A00085FC0448274A002140230094FEF724FFC1
:1021B0001FBD00BF4C01002000740040BCB50020D2
:1021C00058491E4C1E4D4FF060634FF4807C4FF415
:1021D000806E01900A6842F400120A600A6802F4F4
:1021E00000120192019A00900A6842F480020A608B
:1021F0004FF40032096801F4800100910099C4E9AC
:1022000008204FF480520321C4E90A1040212063C2
:10221000C4E90053C4E902102046C4E904E2C4E959
:10222000062CFEF759FF0749074A2046402302B013
:10223000BDE8B040FEF7E4BF303802406001002046
:102240008860024020030020087400402DE9F0431C
:1022500087B000263348344C344D00224FF020081C
:10226000CDE905660196016841F00401016001684D
:1022700001F00401019101990196016841F080018A
:102280000160016801F080010191019901960168E6
:1022900041F001010160016801F001010191019922
:1022A0000196016841F0020101602021006800F000
:1022B0000200019001982046A847204640210022B4
:1022C000A847204680210022A8471948049602AD5D
:1022D000DFF86090294603904FF40050029004F517
:1022E0000060C847012720462946CDE90466CDE9AC
:1022F0000287C8474FF4804004F580640596CDE915
:102300000376294602902046C8474FF400400596C0
:10231000CDE90376294602902046C84707B0BDE8BC
:10232000F08300BF3038024000000240591400081A
:1023300000002110CD12000810B586B0434C204695
:10234000FFF7F2FB002066494FF0804302900A68D5
:1023500042F001020A600422096801F001010291C1
:102360000299CDE90400CDE902008021A1614FF47A
:102370008371C4E90032C4E902012061CDE90000A3
:102380002046FFF7B6FB08B1FEF790FB4FF48050F4
:1023900002A902902D48FFF7F9FB08B1FEF786FB72
:1023A000002069460190202000902848FFF780FB1C
:1023B00008B1FEF77BFB2548FFF7D6FB06B010BD42
:1023C000B0B586B0204C2046FFF7AEFB0020444954
:1023D0001F4D632302900A6842F002020A608022C5
:1023E000096801F0020102910299CDE90400CDE9EA
:1023F000020016498A61C722C1E90053C1E90202FD
:102400000861CDE900002046FFF773FB08B1FEF735
:102410004DFB4FF4805002A902900B48FFF7B6FB2A
:1024200008B1FEF743FB0020694601902020009090
:102430000548FFF73DFB08B1FEF738FB0248FFF700
:1024400093FB06B0B0BD00BF600200202002002058
:102450000004004010B586B0204C2046FFF764FB16
:1024600000201F491F4B02900A6842F004020A60D4
:102470000122096801F0040102910299CDE90400EA
:10248000CDE902008021A1616421C4E90032C4E9E0
:1024900002012061CDE900002046FFF72AFB08B1C8
:1024A000FEF704FB20686FF0010101614FF48050DA
:1024B00002A902902046FFF769FB08B1FEF7F6FA81
:1024C000002069460190202000900448FFF7F0FAB0
:1024D00008B1FEF7EBFA06B010BD00BFA002002065
:1024E000403802400008004010B50B480B4C4FF438
:1024F000E13300210C22C0E90043C0E90211C0E928
:102500000412C0E90611FFF783FC002814BFBDE8E0
:10251000104010BDFEF7CABAE0020020004400409F
:10252000FEE77047704700002DE9F041204D21A0E3
:1025300000214622A847214E0A20B047204FDFF84D
:1025400084803220462197ED020AC0470A20B04716
:102550001D4C782146222046A8470A20B0471BA0E0
:1025600000215A22A8470A20B04797ED030A3220DB
:102570005A21C0470A20B047204678215A22A8474E
:102580000A20B04713A000216E22A8470A20B047B6
:1025900097ED070A32206E21C0470A20B0470FA0EE
:1025A00078216E22A8470A203146BDE8F04108474D
:1025B0005D2000085269203D00000000AD120008B7
:1025C000280000209520000890400008526F203D10
:1025D000000000004175203D00000000562F56000D
:1025E000144815499FED143A9FED144ABFEE005A66
:1025F00090ED051A90ED062A90ED010A0160C16880
:1026000081EE021A33EE402A30EE000A31EE051A4E
:1026100080EE020A016121EE041A80ED020AB5EE95
:10262000C01A80ED031AF1EE10FAB8BFC1600021A4
:10263000C16170472800002075AB673C0000A042D4
:1026400070470000000000002DE9F84F2DED066BEB
:1026500087484FF4804100220027FEF7FDFE4FF42B
:10266000FA70FEF723FE9FED7C0BDFF8B488814CF7
:1026700056EC105B13E00020052102E0228D0139A9
:1026800010440029FAD180B2FDF7DEFF2A46334616
:10269000FDF75AFFFDF7E5FF28F817000137B7F5FA
:1026A000007FE8D172484FF48041002247464FF046
:1026B0000008FEF7D1FE9FED6A1B94ED160A04F1A7
:1026C000380B51EC110B9FED681BCDE902106A48E5
:1026D0005AEC119B0C30019027E037F81800FDF7F9
:1026E000B3FFDDE90232FDF72FFF4A465346FDF7FF
:1026F000B9FEFEF701F894ED0E1A00EE100A5846E6
:10270000B4EEC01AF1EE10FA02DA80ED000A0AE027
:10271000594890ED031A0198B4EEC01AF1EE10FA80
:10272000C8BF80ED000A08F10108B8F5007FD4D1D8
:10273000514894ED0E2AB6EE008A504984ED160AEF
:102740000022B84690ED031A034600201F4632EEE1
:10275000011A21EE081A84ED121A04E0A318186376
:10276000BB18043259600C2AF8D141484FF480411B
:10277000012284ED051AFEF76FFE4FF4FA70FEF7A2
:1027800095FD002713E00020052102E0228D01398C
:1027900010440029FAD180B2FDF756FF2A4633468D
:1027A000FDF7D2FEFDF75DFF28F817000137B7F5FA
:1027B000007FE8D12E484FF480410122FEF74CFE05
:1027C00094ED160A2C4E002525E038F81500FDF78B
:1027D0003BFFDDE90232FDF7B7FE4A465346FDF7FF
:1027E00041FEFDF789FF94ED0E1A00EE100A5846DF
:1027F000B4EEC01AF1EE10FA02DA80ED000A09E038
:1028000096ED031A0198B4EEC01AF1EE10FAC8BFA3
:1028100080ED000A0135B5F5007FD6D194ED0E2A82
:1028200096ED031A164984ED160A0020002232EEB6
:10283000011A21EE081A84ED121A04E0A318186395
:10284000B318043259600C2AF8D184ED061ABDEC95
:10285000066B01B0BDE8F08F0000000000001440DE
:102860000000000000FEAF400AD7A3703D0A0B40F5
:10287000000402402800002014000020EC515840C1
:1028800033335340000000002DE9F04F87B09FED37
:102890002A1B0C4605469FED260B51EC110B9FEDB4
:1028A000281BCDE9051051EC110B9FED271BCDE93D
:1028B000031051EC110B9FED261BCDE9011059ECD3
:1028C000110B9FED251B00905BEC11AB2BE056EC40
:1028D000107BDDE9053238463146FDF7C3FDDDE901
:1028E0000332FDF7BFFDFDF707FF00EE100AFDF70D
:1028F00085FC10EE100AFDF7ECFEDDE90132FDF774
:10290000B1FD009A4B46FDF706FDFDF7C9FE804676
:102910003846314652465B46FDF7FDFC41EC100B54
:1029200045F8048B013C002CD1D107B0BDE8F08FF5
:1029300000000000000000001C2D4454FB21194041
:10294000000000000000903F177AA1177AA187408D
:10295000000000000000A040000000000000F03F68
:10296000FEF784BD70B594B007AC1421201DFDF7AF
:10297000C7FC02A81421FDF7C3FC00251E48012254
:1029800002260195016841F080510160006800F065
:1029900080500190019801951848016862F38F31C9
:1029A0000160006800F4404001900198CDE9126692
:1029B000042011904FF4A870109010200F90CDE9D2
:1029C0000D65CDE90A2020460796FEF7DDFE08B129
:1029D000FEF76CF84FF480500695022105900F2009
:1029E000CDE90365029002A8FEF7DCFD08B1FEF711
:1029F0005DF814B070BD00BF403802400070004068
:102A000010B50E480F4CD0F8801041F47001C0F89A
:102A100080100B490A6842F001020A6000228A60B5
:102A20000B6823400B60084B4B600B6823F480233A
:102A30000B60CA604FF00061016010BD08ED00E05E
:102A400000380240FFFFF6FE1030002410B5044CA1
:102A50002046FFF724F920686FF00101016110BDE5
:102A6000A00200200268B0F1804F0ED0264B9842A1
:102A70000BD0264B984208D0254B984205D0254BC9
:102A8000984202D0244B984203D14B6822F0700246
:102A90001A43B0F1804F20D01B4B98421DD01B4BE6
:102AA00098421AD01A4B984217D01C4B984214D017
:102AB0001B4B984211D01B4B98420ED0164B98429C
:102AC0000BD0144B984208D0174B984205D0174BA7
:102AD000984202D0164B984203D1CB6822F4407240
:102AE0001A434B6922F080021A430A4B02608A683B
:102AF000C2620A68826240F480629A4204BF096935
:102B0000016301214161704700040040000800405A
:102B1000000C00400004014000000140001800408B
:102B2000001C0040002000400040014000480140DF
:102B300000440140D0F820C0036A23F0010303627F
:102B4000836923F0F00343EA021282612CF00A0247
:102B5000114301627047036A23F010030362836923
:102B600023F4704343EA0232036A826123F0A00235
:102B700042EA0111016270472DE9F04704460068FE
:102B800049F20C650169E26821F440511143016189
:102B9000A168D4E90423E769C6681143AE43B7F5D9
:102BA000004F41EA030141EA070141EA0601C16021
:102BB0004169A26921F4407141EA020141614A4937
:102BC00040F480603FD188420CBFDFF820A1DFF8DD
:102BD00020A1D047D4F804908046D04767680646C5
:102BE000D047616819257F00684306FB05F349005B
:102BF000B3FBF7F3B0FBF1F06421B0FBF1F202FBA1
:102C00001102181A4FEA49031044322202EBC000A5
:102C10004FF4F872B0FBF1F002EA400008FB05F255
:102C2000B2FBF3F2B2FBF1F100EB0116D0476168A1
:102C300068434900B0FBF1F7D04761686843072259
:102C4000032349003CE0884214BFDFF8A4A0DFF86A
:102C50009CA0D047D4F804908046D04767680646C9
:102C6000D04761681925BF00684306FB05F389005A
:102C7000B3FBF7F3B0FBF1F06421B0FBF1F202FB20
:102C80001102181A4FEA89031044322202EB001095
:102C900008FB05F2B0FBF1F0B2FBF3F200F0F0003C
:102CA000B2FBF1F100EB0116D0476168684389007F
:102CB000B0FBF1F7D047616868430F220423890015
:102CC000B0FBF1F0391A6427B0FBF7F505FB1700EC
:102CD0000844216898403230B0FBF7F01040304390
:102CE0008860BDE8F08700BF00140140D9160008D5
:102CF000C51600082DE9F0411D4690460F460446D2
:102D00005E1C206801683940B94204BF0020BDE85C
:102D1000F081002EF5D035B1FEF7A4FBA0EB080042
:102D2000A842EED92068C16821F4D071C160416920
:102D300021F0010141612020002184F8390084F84C
:102D4000381084F83A000320BDE8F0817047FEE7B0
:102D50002DE9F843DFF86480194D16460F4602222C
:102D6000642304464146A847380A0DF102090122AE
:102D700064238DF802708DF8030020464946A84769
:102D80000DF103072046012264233946A847300A83
:102D90004946012264238DF802608DF80300204625
:102DA000A8472046394601226423A84708F10201BA
:102DB000204602226423A847BDE8F88304000020CF
:102DC000251F000810B5074C00F00F03044AB0F1AE
:102DD000FF3F2344C8BF83180801187010BD00BF0F
:102DE00000E400E014ED00E0E0B501904E4801A9D8
:102DF00001224FF6FF73FFF795F8019802B080BDEE
:102E0000FEF73EFBFFF7AEFD3F484021FFF73CFDDC
:102E1000FFF76AFBFFF71AFAFFF7DCF8FFF708F98C
:102E2000FFF706F94FF47A70FEF740FA37A0002159
:102E30001822FFF713F9FFF7C1F9FFF753F9FFF76E
:102E400097F9FFF779FAFFF7BBFAFFF703FB314871
:102E500020210122FEF700FBDFF8BCA02F4803224F
:102E60000AF12001FDF7BAFF4FF4FA60FEF71EFAEF
:102E7000FFF7E4F89FED200BDFF8A4B09FED298A5F
:102E8000DFF8A48055EC104B9FED1D0B57EC106B39
:102E9000FFF7DAFBFFF7A4FBFFF746FB4FF4FA70EE
:102EA000FEF704FA4FF0000921E03BF819004FF457
:102EB0007A714843FDF7B7FB22462B46FDF744FBEA
:102EC00032463B46FDF7CEFAFDF7CBFB9AED120AF0
:102ED0000146404620EE080ABDEEC00A10EE102A58
:102EE000FFF736FF0520FEF7E1F909F10109B9F511
:102EF000007FDAD1CCE700BF0000000000FEAF4049
:102F00000AD7A3703D0A0B402003002057656C636D
:102F10006F6D6500000002402800002004010020C1
:102F20002004002000007A44E00200200FB4054B8A
:102F300010B503A9044A029800F0EEF810BC5DF841
:102F400014FB0000E92D0008000000200FB4084B1E
:102F500010B504A902AA039800F0DEF8044602A9FD
:102F6000002000F070FC204610BC5DF814FB00004F
:102F70004738000802E008C8121F08C1002AFAD129
:102F800070477047002001E001C1121F002AFBD1E9
:102F9000704700002DE9FF5F82B00021DDE90430B9
:102FA000020DDDF840B0034318D044F61050A2F2F1
:102FB000FF3242431514119801281FD0A5EB0B00D6
:102FC000401C5FEA000A4FF000064E4FDFF83891D0
:102FD000B046504615D5CAF1000413E011980124FB
:102FE0004AA3012801D16FEA0B010298119AC0E9A6
:102FF0000031C0E9024206B0BDE8F09FCBF100000D
:10300000DFE704460021404A491842EB0450CDE96D
:10301000001012E0E00707D032463B4640464946E2
:10302000FDF720FA8046894632463B46104619464F
:10303000FDF718FA06460F466410002CEAD1DDE9C8
:103040000401DDE90023BAF1000F06DAFDF70AFA00
:1030500042464B46FDF706FA05E0FDF775FA424693
:103060004B46FDF771FA04460E460022284BFDF749
:1030700053FC03D84FF0FF30014607E00022254BF8
:1030800020463146FDF747F9FDF72DFC102409E0F5
:10309000002C0ADB0A220023FDF7FAF8039B3032EA
:1030A0001A55641E50EA0102F2D1641C039AC4F15D
:1030B00011031444119A012A03D0012208430DD1AF
:1030C0000AE0084304D000204FF0110B119072E782
:1030D000A3EB0B056D1E0DE05B4504DD4FF0000218
:1030E00005F1010504E003DA4FF00002A5F1010546
:1030F000002AECD002981199C0E90231C0E90045DC
:1031000079E70000000014400000F03F30000000AC
:103110000000F0430000E03F2DE9FF4F95B09B46D3
:103120008946064600250FE2252877D10024274648
:10313000F84A0121059400E0044316F8013F203BC2
:1031400001FA03F01042F7D130782A2811D06FF03D
:103150002F033078A0F13002092A16D8059A44F0DE
:10316000020402EB820203EB42021044761C05903B
:10317000EFE759F8042B0592002A03DA504244F491
:103180000054059044F00204761C30782E2816D1A5
:1031900016F8010F44F004042A280DD06FF02F0216
:1031A0003078A0F13003092B09D807EB870302EB35
:1031B0004303C718761CF3E759F8047B761C307874
:1031C0006C280FD006DC4C2817D068280DD06A2850
:1031D00014D104E0742810D07A280FD10DE044F403
:1031E00000140AE044F4801401E044F440147278BE
:1031F000824202D104F58014761C761C3078662851
:103200000BD013DC582877D009DC002875D045286E
:10321000F6D04628F4D047281AD19DE118E063285B
:1032200035D0642879D0652812D195E1702873D003
:1032300008DC6728F1D069286FD06E280DD06F2880
:1032400006D1B5E073282CD0752875D0782874D0B5
:103250005A46179990476D1C75E1C4F30250022835
:1032600009D003280DD0D9F8001004280DD00D6026
:1032700009F1040967E1D9F80010EA17C1E9005221
:10328000F6E7D9F800100D80F2E70D70F0E719F8B5
:10329000041B8DF8001000208DF80100EA46012083
:1032A00003E059F804AB4FF0FF3061074FF0000125
:1032B00002D40DE008F101018846B9420FDA8045D9
:1032C000F8DB1AF808100029F4D108E008F1010130
:1032D00088468142FADB1AF808100029F6D10598D1
:1032E0005B46A0EB080721463846179A00F094FA8F
:1032F000284400EB080507E04DE029E10DE01AF84D
:10330000010B5A4617999047B8F10108F7D25B466E
:1033100021463846179A13E142E00A220092C4F38C
:1033200002524FF0000A022A08D059F804CB032AAF
:103330004FEAEC710AD00DE029E02AE009F107011B
:1033400021F00702F2E802C1914609E00FFA8CFC75
:103350004FEAEC71042A03D14FFA8CFC4FEAEC716E
:10336000002907DA0A460021DCF1000C61EB0201BA
:103370002D2202E0220504D52B228DF80420012203
:1033800003E0E20701D02022F7E7904659E00A2146
:1033900002E010220DE010214FF0000A00910BE036
:1033A00010224FF0000A44F004040827009203E0C2
:1033B00008224FF0000A0092C4F30252022A05D0FC
:1033C00059F804CB0021032A08D009E009F10701CC
:1033D00021F00702F2E802C1914605E01FFA8CFCD9
:1033E000042A01D10CF0FF0C4FF00008220728D569
:1033F000702806D0009B83F0100353EA0A0305D01F
:103400000EE040228DF80420012208E05CEA01026F
:1034100006D030228DF804208DF805000222904657
:10342000009B83F0080353EA0A030AD15CEA010215
:1034300001D1620705D530228DF804204FF0010834
:103440007F1E582804D034A003900EA802900DE0EF
:1034500036A0F9E753466046009AFCF719FF844608
:103460000398825C0298401E029002705CEA0100A0
:10347000F0D1029806A9081A00F1200A600702D5C7
:1034800024F4803400E00127574502DDA7EB0A0051
:1034900000E0002000EB0A01009005984144401A2A
:1034A0000590E00306D45B462146179A059800F084
:1034B000B3F90544002706E001A85A46C05D1799F4
:1034C00090476D1C7F1C4745F6DBE0030CD55B463F
:1034D0002146179A059800F09FF9054404E0302032
:1034E0005A46179990476D1C0099481E0090002974
:1034F000F5DC08E0029802995A460078491C0291CE
:10350000179990476D1CBAF10001AAF1010AF1DC8C
:1035100065E1000009280100303132333435363797
:10352000383961626364656600000000303132330F
:1035300034353637383941424344454600000000AF
:1035400000F058F90544761C307800287FF4ECAD83
:1035500019B02846BDE8F08F620700D4062709F1AC
:10356000070222F0070CFCE80223E14603F00048C2
:103570005FEA080C02D00FF2702C0DE05FEA045CE9
:1035800002D50FF2682C07E05FEAC47C02D00FF28C
:10359000602C01E0AFF2700C4FF0FF3823F00043D5
:1035A000CDF850C065280CD006DC452809D0462847
:1035B0001DD047283DD13DE0662818D067287ED130
:1035C00038E00021112F01DB112000E0781CCDE94B
:1035D000000106A90EA8FFF7DDFCDDE90F010E9A38
:1035E00003910021009207F1010A04914DE04FF090
:1035F00000400097CDE9011006A90EA8FFF7CAFC0C
:10360000DDE90F0203920E9B11990022DDF80CA058
:103610000093049211B9791C00EB010AB7EB0A0080
:1036200004D4C0F1FF3007F1010A0490AAEB0700AF
:10363000019044E0012F00DA01270021112F01DD64
:10364000112000E03846CDE9000106A90EA8FFF7D9
:10365000A1FCDDE90F010E9A039100210491009273
:10366000BA4621070CD40399514500DA8A46BAF1CB
:10367000010F05DD009AAAF10101515C302908D043
:10368000B84202DA10F1040F06DA0121CDE9011087
:1036900015E0AAF10101E9E7002805DC04990144DD
:1036A0000491AAEB000102E0411C514500DD8A466D
:1036B0000499401A401C01904FF0004002902007EE
:1036C00004D40198504501DBCDF8048000208DF82A
:1036D0004F0002980DF14F07B0F1004F25D02B207D
:1036E0000E9002984FF0020800280CDA4042029037
:1036F0002D200E9007E00A210298FDF719F83031CD
:10370000029007F8011DB8F10001A8F10108F2DCF0
:1037100002980028EFD1791E0E980870307800F0DA
:10372000200040F0450007F8020D12A8C01B00F170
:1037300007081498007800B1012000EB0A010198F5
:1037400001EBE07105984144401A401E0590E003EA
:1037500006D45B462146179A059800F05DF80544AB
:103760001498007818B15A46179990476D1CE003D9
:1037700024D55B462146179A059800F04DF805447C
:103780001CE00498002807DBDDE90301884203DD23
:103790000098405C179901E0179930205A469047ED
:1037A000049805F10105401C04900198401E019009
:1037B00004D12E205A46179990476D1CBAF100018A
:1037C000AAF1010ADDDC05E017F8010B5A4617994A
:1037D00090476D1CB8F10001A8F10108F4DC5B46CC
:1037E0002146179A0598ABE62D0000002B0000003B
:1037F000200000002DE9F041044600251E46174632
:10380000880404D405E039462020B0476D1C641EAE
:10381000F9D52846BDE8F0812DE9F04104460025A0
:103820001E469046C80301D5302700E020278804B3
:1038300004D505E041463846B0476D1C641EF9D5F5
:103840002846BDE8F0810A68531C0B601070704771
:1038500010B5044601E0FFF7C7FA14F8010B04495C
:103860000028F8D1BDE810400A20FFF7BDBA0000DB
:103870000000002000000000920E493CB10AC93C43
:103880002BC3163D2EFB483D752B7B3D04A9963D71
:1038900080B6AF3D36BDC83D2FBCE13D73B2FA3DA9
:1038A00087CF093E8340163EB5AB223EA2102F3E85
:1038B000CF6E3B3EC2C5473E0115543E135C603E91
:1038C0007F9A6C3ECCCF783EC07D823E938E883E00
:1038D000229A8E3E32A0943E86A09A3EE59AA03E61
:1038E000128FA63ED47CAC3EEF63B23E2A44B83E73
:1038F000491DBE3E15EFC33E53B9C93ECA7BCF3EFC
:103900004136D53E80E8DA3E4F92E03E7533E63EE2
:10391000BBCBEB3EEA5AF13ECBE0F63E275DFC3EE8
:10392000E4E7003F3D9C033F824B063F9BF5083F89
:103930006B9A0B3FDA390E3FCDD3103F2A68133F05
:10394000D9F6153FC07F183FC6021B3FD17F1D3FF0
:10395000CBF61F3F9967223F25D2243F5636273F9B
:103960001594293F4AEB2B3FDE3B2E3FBB85303F72
:10397000C9C8323FF304353F233A373F4268393FE5
:103980003B8F3B3FF9AE3D3F67C73F3F70D8413F5C
:1039900001E2433F03E4453F65DE473F12D1493F23
:1039A000F8BB4B3F029F4D3F207A4F3F3D4D513F6B
:1039B0004918533F31DB543FE595563F5348583F34
:1039C0006AF2593F1A945B3F532D5D3F05BE5E3F3F
:1039D0002146603F97C5613F5A3C633F59AA643F07
:1039E000880F663FD86B673F3CBF683FA7096A3FB7
:1039F0000C4B6B3F5E836C3F93B26D3F9ED86E3F26
:103A000073F56F3F0809713F5213723F4714733FBC
:103A1000DD0B743F0BFA743FC6DE753F07BA763F85
:103A2000C58B773FF853783F9812793F9DC7793F10
:103A300002737A3FBE147B3FCDAC7B3F283B7C3F7B
:103A4000C9BF7C3FAC3A7D3FCCAB7D3F23137E3F6B
:103A5000B0707E3F6DC47E3F580E7F3F6D4E7F3FFE
:103A6000AB847F3F0FB17F3F97D37F3F43EC7F3FD6
:103A700011FB7F3F0000803F11FB7F3F43EC7F3F06
:103A800097D37F3F0FB17F3FAB847F3F6D4E7F3F2A
:103A9000580E7F3F6DC47E3FB0707E3F23137E3F44
:103AA000CCAB7D3FAC3A7D3FC9BF7C3F283B7C3FE0
:103AB000CDAC7B3FBE147B3F02737A3F9DC7793FFD
:103AC0009812793FF853783FC58B773F07BA763F16
:103AD000C6DE753F0BFA743FDD0B743F4714733F2E
:103AE0005213723F0809713F73F56F3F9ED86E3FC6
:103AF00093B26D3F5E836C3F0C4B6B3FA7096A3FEF
:103B00003CBF683FD86B673F880F663F59AA643F48
:103B10005A3C633F97C5613F2146603F05BE5E3F0B
:103B2000532D5D3F1A945B3F6AF2593F5348583F0B
:103B3000E595563F31DB543F4918533F3D4D513FCA
:103B4000207A4F3F029F4D3FF8BB4B3F12D1493F78
:103B500065DE473F03E4453F01E2433F70D8413F04
:103B600067C73F3FF9AE3D3F3B8F3B3F4268393F20
:103B7000233A373FF304353FC9C8323FBB85303F56
:103B8000DE3B2E3F4AEB2B3F1594293F5636273F0D
:103B900025D2243F9967223FCBF61F3FD17F1D3F9F
:103BA000C6021B3FC07F183FD9F6153F2A68133F56
:103BB000CDD3103FDA390E3F6B9A0B3F9BF5083F90
:103BC000824B063F3D9C033FE4E7003F275DFC3E00
:103BD000CBE0F63EEA5AF13EBBCBEB3E7533E63E18
:103BE0004F92E03E80E8DA3E4136D53ECA7BCF3E7A
:103BF00053B9C93E15EFC33E491DBE3E2A44B83EE7
:103C0000EF63B23ED47CAC3E128FA63EE59AA03E56
:103C100086A09A3E32A0943E229A8E3E938E883E93
:103C2000C07D823ECCCF783E7F9A6C3E135C603E76
:103C30000115543EC2C5473ECF6E3B3EA2102F3EFB
:103C4000B5AB223E8340163E87CF093E73B2FA3DA4
:103C50002FBCE13D36BDC83D80B6AF3D04A9963DC1
:103C6000752B7B3D2EFB483D2BC3163DB10AC93C4D
:103C7000920E493C00000000920E49BCB10AC9BC3A
:103C80002BC316BD2EFB48BD752B7BBD04A996BD6D
:103C900080B6AFBD36BDC8BD2FBCE1BD73B2FABDA5
:103CA00087CF09BE834016BEB5AB22BEA2102FBE81
:103CB000CF6E3BBEC2C547BE011554BE135C60BE8D
:103CC0007F9A6CBECCCF78BEC07D82BE938E88BEFC
:103CD000229A8EBE32A094BE86A09ABEE59AA0BE5D
:103CE000128FA6BED47CACBEEF63B2BE2A44B8BE6F
:103CF000491DBEBE15EFC3BE53B9C9BECA7BCFBEF8
:103D00004136D5BE80E8DABE4F92E0BE7533E6BEDE
:103D1000BBCBEBBEEA5AF1BECBE0F6BE275DFCBEE4
:103D2000E4E700BF3D9C03BF824B06BF9BF508BF85
:103D30006B9A0BBFDA390EBFCDD310BF2A6813BF01
:103D4000D9F615BFC07F18BFC6021BBFD17F1DBFEC
:103D5000CBF61FBF996722BF25D224BF563627BF97
:103D6000159429BF4AEB2BBFDE3B2EBFBB8530BF6E
:103D7000C9C832BFF30435BF233A37BF426839BFE1
:103D80003B8F3BBFF9AE3DBF67C73FBF70D841BF58
:103D900001E243BF03E445BF65DE47BF12D149BF1F
:103DA000F8BB4BBF029F4DBF207A4FBF3D4D51BF67
:103DB000491853BF31DB54BFE59556BF534858BF30
:103DC0006AF259BF1A945BBF532D5DBF05BE5EBF3B
:103DD000214660BF97C561BF5A3C63BF59AA64BF03
:103DE000880F66BFD86B67BF3CBF68BFA7096ABFB3
:103DF0000C4B6BBF5E836CBF93B26DBF9ED86EBF22
:103E000073F56FBF080971BF521372BF471473BFB8
:103E1000DD0B74BF0BFA74BFC6DE75BF07BA76BF81
:103E2000C58B77BFF85378BF981279BF9DC779BF0C
:103E300002737ABFBE147BBFCDAC7BBF283B7CBF77
:103E4000C9BF7CBFAC3A7DBFCCAB7DBF23137EBF67
:103E5000B0707EBF6DC47EBF580E7FBF6D4E7FBFFA
:103E6000AB847FBF0FB17FBF97D37FBF43EC7FBFD2
:103E700011FB7FBF000080BF11FB7FBF43EC7FBF02
:103E800097D37FBF0FB17FBFAB847FBF6D4E7FBF26
:103E9000580E7FBF6DC47EBFB0707EBF23137EBF40
:103EA000CCAB7DBFAC3A7DBFC9BF7CBF283B7CBFDC
:103EB000CDAC7BBFBE147BBF02737ABF9DC779BFF9
:103EC000981279BFF85378BFC58B77BF07BA76BF12
:103ED000C6DE75BF0BFA74BFDD0B74BF471473BF2A
:103EE000521372BF080971BF73F56FBF9ED86EBFC2
:103EF00093B26DBF5E836CBF0C4B6BBFA7096ABFEB
:103F00003CBF68BFD86B67BF880F66BF59AA64BF44
:103F10005A3C63BF97C561BF214660BF05BE5EBF07
:103F2000532D5DBF1A945BBF6AF259BF534858BF07
:103F3000E59556BF31DB54BF491853BF3D4D51BFC6
:103F4000207A4FBF029F4DBFF8BB4BBF12D149BF74
:103F500065DE47BF03E445BF01E243BF70D841BF00
:103F600067C73FBFF9AE3DBF3B8F3BBF426839BF1C
:103F7000233A37BFF30435BFC9C832BFBB8530BF52
:103F8000DE3B2EBF4AEB2BBF159429BF563627BF09
:103F900025D224BF996722BFCBF61FBFD17F1DBF9B
:103FA000C6021BBFC07F18BFD9F615BF2A6813BF52
:103FB000CDD310BFDA390EBF6B9A0BBF9BF508BF8C
:103FC000824B06BF3D9C03BFE4E700BF275DFCBEFC
:103FD000CBE0F6BEEA5AF1BEBBCBEBBE7533E6BE14
:103FE0004F92E0BE80E8DABE4136D5BECA7BCFBE76
:103FF00053B9C9BE15EFC3BE491DBEBE2A44B8BEE3
:10400000EF63B2BED47CACBE128FA6BEE59AA0BE52
:1040100086A09ABE32A094BE229A8EBE938E88BE8F
:10402000C07D82BECCCF78BE7F9A6CBE135C60BE72
:10403000011554BEC2C547BECF6E3BBEA2102FBEF7
:10404000B5AB22BE834016BE87CF09BE73B2FABDA0
:104050002FBCE1BD36BDC8BD80B6AFBD04A996BDBD
:10406000752B7BBD2EFB48BD2BC316BDB10AC9BC49
:10407000920E49BC0000008000000000000000001B
:1040800001020304060708090000000001020304FE
:104090006B4F686D00424F584628302C302C343816
:1040A000302C3332302C3135293B425049432831B2
:1040B0002C3138302C39302C31293B42504943289F
:1040C000322C3133302C302C32293B5342432831AF
:1040D00035293B5053323428302C302C302C27B328
:1040E000F5CABCBBAFD6D0272C30293B0D00000051
:1040F000104100080000002028000000742F000874
:104100003841000828000020000C0000842F00081F
:104110000000000003FCFC03010000001000000090
:104120000024F4003333534000000000000000007E
:08413000000000000000000087
:04000005080001C529
:00000001FF
