:020000040800F2
:1000000000250020D9010008831A00087F1A000883
:10001000811A00085D0800082F1F0008000000007A
:10002000000000000000000000000000871A000827
:10003000E908000800000000851A0008591B0008A4
:10004000F3010008F3010008F3010008F3010008C0
:10005000F3010008F3010008F3010008F3010008B0
:10006000F3010008F3010008F3010008F3010008A0
:10007000F3010008F3010008F3010008F301000890
:10008000F3010008F3010008F3010008F301000880
:10009000F3010008F3010008F3010008F301000870
:1000A000F3010008F3010008F3010008F301000860
:1000B000F3010008F3010008F3010008F301000850
:1000C000F3010008F3010008F3010008F301000840
:1000D000F3010008F30100082D1F0008F3010008D8
:1000E000F3010008F3010008F3010008F301000820
:1000F000F3010008F3010008F3010008F301000810
:10010000F3010008F3010008F3010008F3010008FF
:10011000F3010008F3010008F3010008F3010008EF
:10012000F3010008F3010008F3010008F3010008DF
:10013000F30100080000000000000000F3010008C7
:10014000F3010008F3010008F3010008F3010008BF
:10015000F3010008F3010008F3010008F3010008AF
:10016000F3010008F3010008F3010008F30100089F
:10017000F3010008F3010008F3010008000000008B
:1001800000000000F3010008000000000000000073
:10019000F30100080000000000000000F301000867
:1001A000000000000000000000000000F301000853
:1001B000F3010008F3010008F3010008F30100084F
:1001C000F3010008DFF80CD000F024FB00480047E2
:1001D000B91F000800250020064880470648004750
:1001E000FEE7FEE7FEE7FEE7FEE7FEE7FEE7FEE7E7
:1001F000FEE7FEE7F91B0008C5010008B5EEC00ADE
:10020000F1EE10FA07D2DFED1E0AB4EEE00AF1EECD
:1002100010FAA8BF7047DFED1B0AB5EEC00A60EE0A
:10022000200ABDEEE01A11EE100AF1EE10FA38BF06
:10023000401E00EE100A1549F7EE001AB8EEC00A8B
:1002400030EEC00ADFED100A60EE200ABCEEE00AD4
:1002500010EE100AC0F3080000EE100A01EB800057
:10026000B8EE400A90ED011A70EEC00A90ED000A57
:1002700071EEE01A21EE800A00EE810A704700005C
:10028000CD024CB483F9223E00000044082400084B
:100290002DE9F05F0546002092469B4688460646BB
:1002A000814640241BE0284641464746224600F04E
:1002B000FBF953465A46C01A914110D311461846CD
:1002C000224600F0E2F92D1A67EB01084F4622465C
:1002D0000120002100F0D9F917EB00094E41201E42
:1002E000A4F10104DFDC484631462A464346BDE816
:1002F000F09FD2B201E000F8012B491EFBD27047FB
:100300000022F6E710B513460A4604461946FFF7E1
:10031000F0FF204610BD2DE9FE4F804681EA030024
:10032000C00F0C46009021F0004123F00045B8EBCF
:100330000200A94105D24046214690461C460B4684
:10034000024623F00040104347D0270DC7F30A00B0
:10035000C3F30A510290401A019040286BDAC3F3AC
:10036000130040F4801B0098924620B10023D2EB8A
:10037000030A63EB0B0B01985946C0F1400250464B
:1003800000F083F906460D4650465946019A00F0A2
:100390009BF910EB08006141002487EA115284EABE
:1003A000E7731A4340D0009A62B3019A012A4FEAD8
:1003B000075215DC001B61EB02014FF0004202EA1C
:1003C0000752CDE90042001C41F5801132462B4610
:1003D00000F0D2F903B0BDE8F08F40462146F9E7BE
:1003E000001B61EB0201001C41F5801300185B410A
:1003F0002018A2F5001747EB030140EAD570B619A3
:100400006D4111E06D084FEA360645EAC0754FEAC6
:100410000752001B61EB0201001C41F580114908E5
:100420004FEA30000019514132462B4603B0BDE877
:10043000F04F00F092B90098012240000023D0EB69
:10044000020263EBE073009821464FEAE074B8EBD8
:10045000000061EB0401E9E783F000435BE781F012
:10046000004158E72DE9FE4F81EA030404F00044FF
:1004700021F0004100944FF0000B23F0004350EABC
:1004800001045ED052EA03045BD0C3F30A54C1F303
:100490000A552C44A4F2F3340194A0FB0254C1F396
:1004A000130141F48011C3F3130343F4801301FBE0
:1004B000024400FB034E840A970A44EA815447EA47
:1004C0008357A4FB076802958D0A05FB07854FEA51
:1004D000932C04FB0C542705029D4FEA065847EA6B
:1004E0001637B5EB08056EEB070C870E920E47EA40
:1004F000811742EA8312A7FB0201B6EB0B0164EB02
:1005000000042B0D43EA0C335E1844EB1C50DA4612
:100510005146E7FB0201C5F313044FEA0B3343EAEC
:1005200014534FEA0432019C43EA0603A4F10C047D
:100530000294009CCDE900B400F01EF903B0BDE8C0
:10054000F08F00200146F9E72DE9F04D81EA030420
:1005500004F0004B21F0004514464FF0000A23F050
:10056000004150EA050220D054EA01021DD0C5F333
:100570000A570246C5F31303C1F31300C1F30A5629
:1005800040F4801543F48013A7EB0608101BD646F1
:1005900008F2FD3873EB050002D308F1010801E011
:1005A00092185B41B8F1000F03DA00200146BDE864
:1005B000F08D00204FF48011064684460EE0171B94
:1005C00073EB050705D3121B63EB050306434CEAE7
:1005D000010C49084FEA300092185B4150EA0107CC
:1005E000EDD152EA030012D082EA040083EA050149
:1005F000084305D0101BAB4106D20122002306E0C0
:1006000000224FF0004302E06FF0010253101AEB9A
:1006100006004CEB085110EB0A0041EB0B01BDE862
:10062000F04D00F09AB801F0004330B421F00041E1
:1006300050EA010206D00A0DA2F56072C1F313015F
:10064000002A02DC30BC00207047440F44EAC10499
:10065000C100E01830BC00EBC25000F047B830B524
:100660000B46014600202022012409E021FA02F570
:100670009D4205D303FA02F5491B04FA02F528440A
:10068000151EA2F10102F1DC30BD202A04DB203A64
:1006900000FA02F1002070479140C2F1200320FAD5
:1006A00003F3194390407047202A04DB203A21FAD3
:1006B00002F00021704721FA02F3D040C2F120027B
:1006C0009140084319467047202A06DBCB17203A91
:1006D00041FA02F043EAE07306E041FA02F3D04047
:1006E000C2F1200291400843194670470029A8BF73
:1006F0007047401C490008BF20F00100704710B44B
:10070000B0FA80FC00FA0CF050EA010404BF10BCFF
:10071000704749B1CCF1200421FA04F411FA0CF12C
:1007200018BF012121430843A3EB0C01CB1D4FEA65
:1007300000614FEA102042BF002010BC704700EB60
:10074000C35010440029A4BF10BC7047401C49008E
:1007500008BF20F0010010BC704710B5141E73F1E3
:10076000000408DA401C41F1000192185B411A4371
:1007700001D120F0010010BD2DE9F04D92469B46BD
:1007800011B1B1FA81F202E0B0FA80F22032904663
:10079000FFF77BFF04460F4640EA0A0041EA0B01DF
:1007A00053465A46084313D0114653EA010019D064
:1007B000C8F140025046FFF777FF05460E46504607
:1007C00059464246FFF761FF084305D0012004E087
:1007D00020463946BDE8F08D0020054346EAE07624
:1007E0002C4337430A986305E40AA0EB0800002273
:1007F000FD0A44EA47540A3002D500200146E9E7E1
:10080000010510196941DDE9084500196941BDE894
:10081000F04DA2E7064C074D06E0E06840F001030A
:1008200094E8070098471034AC42F6D3FFF7CEFCAB
:10083000242C0008442C000810B50A21044600F0BE
:10084000B9F9204600F0E0F8800505D5204600F013
:1008500001FA204600F0DAF880B210BDFEE710B5CC
:10086000846B204600F095FA0120207110BD10B570
:10087000846B204600F060FA0120207110BD10B595
:10088000846B206940F004002061204600F083FA68
:100890000120207110BD10B5846B206940F0040068
:1008A0002061204600F04AFA0120207110BD806BC3
:1008B00000F070BA806B00F040BA80B5D0F800C08C
:1008C000DCF800E02EF4802ECCF800E0CCF8043008
:1008D00080684028084608BF1046CCF8080008BFCA
:1008E0000A46CCF80C2080BD704700000248202149
:1008F000012200F013BC00BF0000024078B50022C6
:10090000009290F83C20012A01D1022149E0012205
:1009100080F83C20D1F800E01FFA8EFCBEF10A0FEF
:100920004FEA4C0212FA8EF204D303681E3A03F126
:100930000C0402E0036803F11004072526689540C3
:1009400026EA050525608D6805FA02F225682A4326
:1009500022604A68062A05D802EB820203F13401BC
:10096000053A0BE002EB82040C2A87BF03F12C014D
:10097000A4F1410203F13001A4F123021F240D6808
:1009800094400CFA02F225EA04040C600E6832432B
:100990000A606D49A1F54172934205D0002180F8AB
:1009A0003C10084601B070BDBEF1110F0ED0154AC3
:1009B00096450BD0BEF1120FF0D10A6822F4000266
:1009C0000A600A6842F480020A60E7E70A6822F4D3
:1009D00080020A600A6842F400020A6009498E45F2
:1009E000DCD1D049D04A0968B1FBF2F101EB8101B9
:1009F000490001E000990139009100990029F9D1DD
:100A0000CCE700BF12000010006C70470068C06C9B
:100A100070470000002842D010B50446006C30B981
:100A2000204600F099F8002084F83C006064206CB7
:100A3000C00636D4206C41F20211444B8843023088
:100A400020644148016821F4403101606168026816
:100A5000114301602068416821F48071416021697F
:100A6000426842EA01214160416821F040714160E1
:100A7000A168426811434160816821F4006181608E
:100A8000E168826811438160A16A826822F0706225
:100A900099428260826806D122F040510CE0012028
:100AA000704701204CE011438160816821F0405182
:100AB0008160E16A826811438160816821F00201EE
:100AC0008160217E826842EA4101816094F82020A1
:100AD00041686AB141F400611D4A4160416821F4F6
:100AE00060414160616A02EB41314268114301E0BB
:100AF00021F400614160174AC16A21F47001C162AA
:100B0000E16902EB0151C26A1143C162816821F4BB
:100B10000071816094F83010826842EA412181605E
:100B2000816821F4806181606169826842EA812183
:100B30000122816000206064216C62F30101216464
:100B4000002184F83C1010BD042301400100000F77
:100B500000E0FFFF0000F0FF10B586B0044601A8DA
:100B60001421FFF7CDFB2168704881421FD100217D
:100B7000AB4A00F560400091536943F480735361C0
:100B8000536903F480730093009B0091136843F052
:100B900001031360126802F001020092009A0391AF
:100BA000032102910221019101A900F0F1F906B09F
:100BB00010BD00BFF8B5044600680D4681684905C0
:100BC00044BF80685FEAC05039D400F0ADFA0646F1
:100BD0006F1C20680168890710D4002FF9D025B157
:100BE00000F0A2FA801BA842F3D9002084F83C0050
:100BF000206C40F004002064032028E06FF0120114
:100C00000160216C41F400712164816811F0405F42
:100C100013D1217E89B9C16A11F4700F02D08068A6
:100C200040050AD4206C20F480702064206CC0043D
:100C30005EBF206C40F001002064002007E000202F
:100C400084F83C00206C40F020002064012001B0BA
:100C5000F0BD000081B00021009190F83C10012906
:100C600001D102205BE0012180F83C1001688A6814
:100C7000D20711D18A682C4B42F001028A60294ABE
:100C80001268B2FBF3F202EB420201E0009A013A71
:100C90000092009A002AF9D18A68D2073ED0026CED
:100CA00040F201739A4302F5807202644A68520569
:100CB00004D5026C012363F30D320264026C00233D
:100CC000D20444BF436C23F00603002280F83C208A
:100CD00043646FF0220008601448D0F80423D20661
:100CE00003D081421AD1806811E081420ED0104AAF
:100CF000914207D00F4A914210D1D0F80403C006A8
:100D00000CD103E0D0F80403C00607D4886810F0C3
:100D1000405F03D1886840F080408860002001B0C7
:100D2000704700BF1000002040420F00002001402B
:100D3000002201400021014070477047704790F841
:100D400005C00223BCF1010F21D080B5037140F62C
:100D5000FE73D0F800E003FA02FCDEF8003023EA6C
:100D60000C0CD1E9003119430023914041EA0C01F8
:100D7000CEF80010C0219140DEF8002022EA0101E7
:100D8000CEF80010012143710171BDE88040184682
:100D9000704770477047704778B110B504460079C6
:100DA00020B900206071204600F00AF802200121DD
:100DB000207100202061217110BD012070470000CA
:100DC00010B586B0044601A81421FFF799FA2168EE
:100DD000124881421FD10021114A00F5C63000910E
:100DE000136943F000531361136903F00053009338
:100DF000009B0091136843F001031360126802F036
:100E000001020092009A03910321029110210191A5
:100E100001A900F0BDF806B010BD00BF007400408D
:100E20003038024070B50E4641790446022001294F
:100E300008BF70BDDDF810C020710120002E607168
:100E400019D0E06829492B4DBCF1080FC16428492D
:100E5000C0E90F5121680D6845F080550D6025D01F
:100E6000BCF1040F25D0BCF1000F0CBF01F1140C34
:100E70004FF0000C1FE0A0681F49DFF880E0BCF1D4
:100E8000080FC1641E49C0E90F1E21680D6845F4B2
:100E900080550D6013D0BCF1040F13D0BCF1000FCE
:100EA0000CBF01F1080C4FF0000C0DE001F11C0C1F
:100EB00001E001F1180C0D6845F0005507E001F163
:100EC000100C01E001F10C0C0D6845F400550D60AB
:100ED0001146624600F016F821680120B0400A6809
:100EE000104308600020607170BD00BF97080008C3
:100EF000B50800086F0800087F080008AF08000860
:100F00005F080008B0B5044690F8340001282CD0E2
:100F10000120A56D84F8340094F83500012821D112
:100F2000022084F83500002060652046FFF7C5FCEC
:100F3000E06D3F2101FA00F0A8602068016841F0EF
:100F400016010160416941F080014161216C19B1D4
:100F5000016841F008010160016841F00101016090
:100F60000020B0BD002084F834000220B0BD000095
:100F7000B0B5044600F0D8F805468D48611C0078ED
:100F800018BF044400F0D0F8401BA042FAD3B0BD13
:100F90002DE9F84F5B4A4FF0070A4FF0010B4FF075
:100FA00000084FF0000E9042574A08BF4FF0060A63
:100FB00002444FEAB223062B38BF4FEAB22A00227E
:100FC000102A08BFBDE8F88F0B680BFA02F633420F
:100FD00000F091804B6843F01004122C13D16FF095
:100FE00003040EF01C030F2704EA520507FA03FC62
:100FF00005442C6A24EA0C0C0C6904FA03F343EA56
:101000000C032B624B68032703F00305122B07FA2E
:1010100008F4076805FA08F56FEA040C27EA0407E4
:1010200047EA0507076013D80BFA03F414F0061F0C
:101030000ED08468CD6804EA0C0405FA08F52C4348
:101040008460C3F3001445689440B5432C43446066
:10105000C4688D68DB0004EA0C0705FA08F547EA66
:101060000507C76047D50023284C0EF00C050093F8
:10107000284BA4461F461B6843F480433B603B68F3
:1010800003F48043009322F003032344224C009F87
:10109000A1461F590F24AC400AFA05F5A7432F4378
:1010A00043F80970DCF800304D6843EA0607EC03AA
:1010B00058BF23EA0607CCF80070AC03DCF8043014
:1010C00043EA060758BF23EA0607CCF80470EC028F
:1010D000DCF8083043EA060758BF23EA06070C4B42
:1010E000CCF80870AD021C461B6843EA060758BFDF
:1010F00023EA0607276008F102080EF1040E013208
:101100005EE700BF001802400000FEBF003C014047
:101110000C3C01404438024008FCFFFF002A08BF95
:10112000090481617047000005480068704700BFEE
:101130001F48034900780A6810440860704700BFE0
:10114000F820002080B50B48016841F4007101606F
:10115000016841F480610160016841F480710160BF
:10116000032000F071F8002000F006F800F022F8EB
:10117000002080BD003C024070B50D4E04464FF487
:101180007A713078B1FBF0F089490968B1FBF0F071
:1011900000F0DAFA01250F2C08D838B94FF0FF30EB
:1011A00021460022002500F031F87460284670BD09
:1011B0000400002082B000200C4901904A6842F4EB
:1011C00080424A604A6802F480420192019A00908B
:1011D000086840F080500860086800F08050009077
:1011E0000098072002B000F02FB800BF403802403E
:1011F000002808DB00F01F010122400902FA01F17A
:10120000014A42F82010704700E100E080B5144B1D
:101210001B68C3F3022CBCF1030E8CF007034FF0E4
:10122000FF3C38BF4FF0000E042B28BF04230CFAFC
:1012300003F399430CFA0EF301FA0EF19A431143AA
:10124000BDE8804000F098BE05494FF6FF030A68EC
:101250001A4060F30A22034810430860704700BF39
:101260000CED00E00000FA052DE9F041002800F047
:101270008380434B04468846D3F8000400F00F00F7
:10128000884207D283F80084D3F8000400F00F00EE
:10129000404571D12068810711D5410742BF996847
:1012A00041F4E0519960010742BF996841F46041FF
:1012B00099609968A26821F0F00111439960C00714
:1012C0002AD06068811E022903D21968890109D4D5
:1012D00052E0012803D11968890303D44CE019684E
:1012E000890749D599681D4621F003010843986094
:1012F000FFF71AFF064641F28837A86861682B4657
:1013000000F00C00B0EB810F06D0FFF70DFF801B43
:10131000B842F2D9032430E0D3F8000400F00F0003
:10132000404507D983F80084D3F8000400F00F008B
:10133000404521D12068410705D59968E26821F42C
:10134000E05111439960000706D59868216920F49F
:10135000604040EAC10098601C4600F02FF8A16888
:10136000084A0024C1F30311515CC84010490860C9
:101370000020FFF701FF00E001242046BDE8F081D6
:10138000003802400C2C000809480A490A4A006843
:101390000968C1F38221515CC8407047044805497F
:1013A000054A00680968C1F34231515CC840704782
:1013B00010000020083802401C2C000810B5204CFA
:1013C0006068C0F381011F48032915D0022904D0A9
:1013D000012904BF1C4810BD10BD2168236801F01D
:1013E0003F0221685B02C1F3881114D4A1FB000104
:1013F0000023FEF74DFF12E02168236801F03F0251
:1014000021685B02C1F3881110D4A1FB0001002305
:10141000FEF73EFF0EE00C484843B0FBF2F02168B7
:101420000222C1F3014102EB410106E006484843B4
:10143000B0FBF2F02168C1F30271B0FBF1F010BD16
:10144000043802400024F40000127A002DE9FC4127
:1014500004460078B94EC00737D0B06800F00C00E1
:1014600004282BD0B06800F00C00082802D1706866
:10147000400223D4B06800F00C000C2802D1706840
:1014800040021BD46768B7F5803F07D03068B7F5D6
:10149000A02F40F0138140F480203060306840F489
:1014A00080303060FFF740FE0546306880030CD482
:1014B000FFF73AFE401B6428F7D9A6E030688003A6
:1014C00003D56068002800F0DA802078800734D5E2
:1014D000B06810F00C0F0FD0B06800F00C000828B6
:1014E00002D17068400207D5B06800F00C000C28EB
:1014F00009D17068400206D43068800716D5E068CC
:10150000012813D0BBE0E068002800F080808C4800
:1015100001210160FFF708FE05463068800705D409
:10152000FFF702FE401B0228F7D96EE03068216900
:1015300020F0F80040EAC10030602078000721D593
:10154000606978B17E480121C0F8801EFFF7ECFD8C
:101550000546706F800715D4FFF7E6FD401B022893
:10156000F7D952E076480021C0F8801EFFF7DCFD75
:101570000546706F800705D5FFF7D6FD401B022892
:10158000F7D942E02078400771D5306C4FF0000861
:10159000C0000CD4CDF804804FF00108306C40F04E
:1015A00080503064306C00F0805001900198654F9D
:1015B0003868C0050FD4386840F480703860FFF791
:1015C000B3FD05463868C00505D4FFF7ADFD401BE7
:1015D0000228F7D919E0A768012F05D0306F052F31
:1015E00026D140F004003067306F40F001003067D2
:1015F000FFF79AFD054641F28837306F80072FD4F8
:10160000FFF792FD401BB842F7D9032092E04C4807
:1016100000210160FFF788FD0546306880077FF5EF
:101620008CAFFFF781FD411B03200229F5D981E032
:1016300020F001003067306F20F004003067FFF7C2
:1016400073FD0546002FD6D141F28837306F8007F1
:1016500006D5FFF769FD411B0320B942F6D969E0C1
:10166000B8F1000F1EBF306C20F080503064A769C5
:10167000002F5ED0B06800F00C00082801D10120D6
:1016800058E02F49002088460866FFF74DFD0546C3
:10169000022F09D13068800128D5FFF745FD411B95
:1016A00003200229F6D945E03068800141D5FFF7D3
:1016B0003BFD411B03200329F6D33BE020F480309F
:1016C0003060306820F480203060FFF72DFD054643
:1016D000002F7FF4EAAE306880037FF5F6AEFFF7A7
:1016E00023FD411B03206429F5D923E004F11C07E5
:1016F0008FCF256B0843D90340EA82104FF6FF7263
:10170000914340EA0760A1F58031084340EA057043
:1017100070600120C8F86000FFF706FD04463068DD
:10172000800106D4FFF700FD011B03200229F6D932
:1017300000E0002002B0BDE8F08100BF00380240A8
:101740000000474200700040411E0020B0EB116FC6
:101750001CBF01207047044AF023516003490B70FD
:10176000072190601160704710E000E023ED00E079
:1017700090F83C300222012B19D010B580F83D20A2
:101780000268D2F804E0D2F808C0D1E900342EF0A3
:101790007001194351602CF08001214391600022B7
:1017A000012180F83C2080F83D10BDE81040104633
:1017B0007047B0B110B5044690F83D0028B900203C
:1017C00084F83C00204600F00EF80220211D84F829
:1017D0003D00206800F036FA012084F83D0000202A
:1017E00010BD01207047704710B590F83C200446AA
:1017F0000220012A08BF10BD84F83D0001204FF6E9
:10180000777284F83C00206884465CF8083F23EA3D
:101810000202CCF800200B682BB1102B03D0202B38
:1018200018BF302B0FD1DCF8000020F070001843F7
:1018300040F00700CCF800000020012184F83C00B3
:1018400084F83D1010BD402B1AD0502B26D0602BB1
:1018500032D0B3F5005F3DD0702BEDD1D1E901025C
:10186000C968104340EA0120DCF8001021F47F41F0
:101870000843CCF80000DCF8000040F07700D9E71E
:101880004B68CA68194600F045FAD4F800C05CF805
:10189000080F40F0470020F03000CBE74B68CA68E3
:1018A000194600F037FAD4F800C05CF8080F40F091
:1018B000570020F02000BDE74B68CA68194600F0C9
:1018C0003AFAD4F800C05CF8080F40F0670020F046
:1018D0001000AFE7D1E90102C968104340EA0120D6
:1018E000DCF8001021F47F410843CCF80000DCF85C
:1018F000000040F480409DE750B310B5044690F8D6
:10190000390028B9002084F83800204600F022F879
:10191000242084F839002068C16821F40051C16096
:10192000204600F019FA2068016921F49041016114
:10193000416921F02A014161C16841F40051C1604F
:1019400000202021E06384F8391084F83A1010BD9B
:101950000120704710B586B0044601A81421FEF797
:10196000CFFC2168184881422CD10021174A00F58C
:10197000DE300091136943F400331361136903F4FB
:1019800000330093009B0091116841F00101116048
:10199000116801F0010100910099072105910321CF
:1019A000049101210391022102910C21019101A9CD
:1019B000FFF7EEFA262000210022FFF727FC262061
:1019C000FFF716FC06B010BD00440040303802405E
:1019D0002DE9F041044690F8390020280AD10E463E
:1019E0000120002949D01746002A46D094F8380033
:1019F000012802D10220BDE8F08100201D46E063ED
:101A0000012084F83800212084F83900FFF78CFB8E
:101A10008046E784A7841DE0E08C802142462B4667
:101A20000138E0842046A76800F054FAB7F5805FDB
:101A30000BD1C8B9318820686FF35F2141602069FC
:101A4000002814BF0136023604E068B9206816F891
:101A5000011B4160E08C0028DED120464021424637
:101A60002B4600F037FA10B10320BDE8F0810020CA
:101A7000202184F8380084F83910BDE8F081FEE7B1
:101A8000FEE77047704770472DE9F84F2DED0A6B60
:101A90009FED271B0C4605469FED230B9FED2C8ADF
:101AA0009FED2C9A51EC110B9FED231BCDE90210F9
:101AB00051EC110B9FED221BCDE9001057EC116B7F
:101AC0009FED211B59EC118B24E05AEC10BBDDE992
:101AD000023258465146FEF7C5FCDDE90032FEF7FA
:101AE000C1FC32463B46FEF72FFDFEF79CFD00EEA3
:101AF000100AFEF783FBB0EE49AA5846514642460B
:101B00004B4600EE08AAFEF706FC41EC100BA5ECD4
:101B100001AA013C002CD8D1BDEC0A6B01B0BDE894
:101B2000F08F00BF00BF00BF0000000000000000F9
:101B30001C2D4454FB2119400000000000409F4030
:101B400000000000006A0841000000000000F03FB3
:101B500000007A440080BB44FFF7EABA70B594B045
:101B600007AC1421201DFEF7CBFB02A81421FEF7C1
:101B7000C7FB00251E48012202260195016841F09D
:101B800080510160006800F080500190019801953B
:101B90001848016862F38F310160006800F440402A
:101BA00001900198CDE91266042011904FF4A870BD
:101BB000109010200F90CDE90D65CDE90A20204648
:101BC0000796FFF743FC08B1FEF790FE4FF48050F4
:101BD0000695022105900F20CDE90365029002A829
:101BE000FFF742FB08B1FEF781FE14B070BD00BFE5
:101BF000403802400070004010B50E480F4CD0F83D
:101C0000801041F47001C0F880100B490A6842F05E
:101C100001020A6000228A600B6823400B60084BB7
:101C20004B600B6823F480230B60CA604FF00061A7
:101C3000016010BD08ED00E000380240FFFFF6FE35
:101C4000103000240268B0F1804F0ED0264B98422D
:101C50000BD0264B984208D0254B984205D0254BF7
:101C6000984202D0244B984203D14B6822F0700274
:101C70001A43B0F1804F20D01B4B98421DD01B4B14
:101C800098421AD01A4B984217D01C4B984214D045
:101C90001B4B984211D01B4B98420ED0164B9842CA
:101CA0000BD0144B984208D0174B984205D0174BD5
:101CB000984202D0164B984203D1CB6822F440726E
:101CC0001A434B6922F080021A430A4B02608A6869
:101CD000C2620A68826240F480629A4204BF096963
:101CE0000163012141617047000400400008004089
:101CF000000C0040000401400000014000180040BA
:101D0000001C00400020004000400140004801400D
:101D100000440140D0F820C0036A23F001030362AD
:101D2000836923F0F00343EA021282612CF00A0275
:101D3000114301627047036A23F010030362836951
:101D400023F4704343EA0232036A826123F0A00263
:101D500042EA0111016270472DE9F047044600682C
:101D600049F20C650169E26821F4405111430161B7
:101D7000A168D4E90423E769C6681143AE43B7F507
:101D8000004F41EA030141EA070141EA0601C1604F
:101D90004169A26921F4407141EA020141614A4965
:101DA00040F480603FD188420CBFDFF820A1DFF80B
:101DB00020A1D047D4F804908046D04767680646F3
:101DC000D047616819257F00684306FB05F3490089
:101DD000B3FBF7F3B0FBF1F06421B0FBF1F202FBCF
:101DE0001102181A4FEA49031044322202EBC000D4
:101DF0004FF4F872B0FBF1F002EA400008FB05F284
:101E0000B2FBF3F2B2FBF1F100EB0116D0476168CF
:101E100068434900B0FBF1F7D04761686843072287
:101E2000032349003CE0884214BFDFF8A4A0DFF898
:101E30009CA0D047D4F804908046D04767680646F7
:101E4000D04761681925BF00684306FB05F3890088
:101E5000B3FBF7F3B0FBF1F06421B0FBF1F202FB4E
:101E60001102181A4FEA89031044322202EB0010C3
:101E700008FB05F2B0FBF1F0B2FBF3F200F0F0006A
:101E8000B2FBF1F100EB0116D047616868438900AD
:101E9000B0FBF1F7D047616868430F220423890043
:101EA000B0FBF1F0391A6427B0FBF7F505FB17001A
:101EB0000844216898403230B0FBF7F010403043BE
:101EC0008860BDE8F08700BF001401409D13000842
:101ED000891300082DE9F0411D4690460F4604463F
:101EE0005E1C206801683940B94204BF0020BDE88B
:101EF000F081002EF5D035B1FFF716F9A0EB080000
:101F0000A842EED92068C16821F4D071C16041694E
:101F100021F0010141612020002184F8390084F87A
:101F2000381084F83A000320BDE8F0817047FEE7DE
:101F3000F8B50F4D0F4F0E46022264230446294682
:101F4000B847300A0DF10201012264238DF80260C6
:101F50008DF803002046B8470DF103012046012209
:101F60006423B847A91C204602226423B847F8BD61
:101F70000C000020D119000810B5074C00F00F0329
:101F8000044AB0F1FF3F2344C8BF8318080118700A
:101F900010BD00BF00E400E014ED00E0E0B50190EA
:101FA000A94801A901224FF6FF731830FFF710FD71
:101FB000019802B080BD00BF8AB0FFF7C3F8FFF7F9
:101FC000CDFD00279A4C4FF480610297206840F4C1
:101FD00080002060206800F48000029002989548FC
:101FE000FFF752FDCDE905770897202100224FF039
:101FF0002009206840F004002060206800F0040000
:10200000089008980897206840F0800020602068B9
:1020100000F08000089008980897206840F00100C0
:102020002060206800F00100089008980897206858
:1020300040F00200206020687F4C00F0020004F5B0
:10204000DE38089008984046FFF768F87B48049708
:1020500002AD294603904FF40050029004F5E2309F
:10206000FEF796FF012640462946CDE90477CDE9E3
:102070000296FEF78DFF7248724B4FF4803104F5E3
:102080005C422546C76280F820700776836280F83C
:102090003070C661C0E90021C0E90277C0E9047769
:1020A000CDE90477CDE90277FEF7B4FC08B1FEF77D
:1020B0001DFC634802A90497CDE90266FEF71EFCE9
:1020C00008B1FEF713FC5E48FEF7C4FD00282E465B
:1020D00018BFFEF70BFC5A480A21FEF76BFD08B14A
:1020E000FEF704FC5648FEF78FFC800504D55448E3
:1020F000FEF78CFC54490880534F002506F54051EB
:10210000CDE90255384640F8041FFEF745FE08B1F8
:10211000FEF7ECFB039524203D1D02A9002202904E
:102120002846FEF70CFE08B1FEF7E0FB414A00240A
:10213000284600214FF480630094FEF773FE434865
:102140008021CDE90444CDE9024442F20F724FF000
:102150008043816142F2CF01C0E90032C0E902410F
:102160000461CDE90844FFF724FB08B1FEF7BEFB8C
:102170004FF4805002A902903448FFF735FB08B1B4
:10218000FEF7B4FB0025202008A9099508902F48E8
:10219000FFF7EEFA08B1FEF7A9FB38460C214FF421
:1021A000E13240F8186FC0E90125C0E90355C0E9E4
:1021B0000515C561FFF7A0FB08B1FEF797FB404688
:1021C00020210122FEF7AAFF21A000F053F8398850
:1021D00023A000F04FF8264EDFF8648007F11805C1
:1021E000B8B206EB80044046FEF726FB013700EE4E
:1021F000100AB8B2B8EE400AB0F57A7F84ED000A52
:10220000EED100270AE0F01990ED000A2846BDEE55
:10221000C00A10EE101AFFF78BFE0437B7F5805F87
:10222000F1D14FF47A70FEF7A3FE0027D8E700BF84
:1022300030380240F8000020004400400000211027
:10224000700000200100000F18000020B8000020DE
:1022500048656C6C6F20576F726C64210A0D00002A
:1022600068616463315F76616C3D25640A0000003B
:10227000F81000200FB4054B10B503A9044A0298CA
:1022800000F018F810BC5DF814FB00009D1F00085A
:102290000000002002E008C8121F08C1002AFAD17D
:1022A00070477047002001E001C1121F002AFBD1D6
:1022B000704700002DE9FF4F89B09B46044600257A
:1022C00006E025280BD05A460B999047641C6D1CDC
:1022D00020780028F5D10DB02846BDE8F08F002702
:1022E000B8460122474900E0074314F8013F203B6C
:1022F00002FA03F00842F7D120782E2819D114F8F9
:10230000010F47F004072A280ED06FF02F02207823
:10231000A0F1300109290CD808EB880102EB41013A
:1023200000EB0108641CF2E70A98641C50F8048B67
:102330000A9020780028CED0642808D0692806D0DA
:1023400075281ED05A460B9990476D1C58E00A9983
:102350004FF00A0901C90A91002802DA40422D21F2
:1023600002E0390504D52B218DF82010012103E06E
:10237000F90704D02021F7E78A4608AE0DE00021D6
:10238000FAE70A994FF00A0901C90A91F7E74946A5
:10239000FEF765F9303106F8011D0028F7D1ADEBE5
:1023A000060000F12009780701D44FF00108C84564
:1023B00002DDA8EB090000E000208046002706E0CF
:1023C00008A85A46C05D0B9990476D1C7F1C574565
:1023D000F6DB04E030205A460B9990476D1CB8F1AB
:1023E0000001A8F10108F5DC05E016F8010B5A46DA
:1023F0000B9990476D1CB9F10001A9F10109F4DCBA
:10240000641C65E70928010000000000920E493CA9
:10241000B10AC93C2BC3163D2EFB483D752B7B3DB5
:1024200004A9963D80B6AF3D36BDC83D2FBCE13D09
:1024300073B2FA3D87CF093E8340163EB5AB223ECC
:10244000A2102F3ECF6E3B3EC2C5473E0115543E03
:10245000135C603E7F9A6C3ECCCF783EC07D823E5E
:10246000938E883E229A8E3E32A0943E86A09A3E5B
:10247000E59AA03E128FA63ED47CAC3EEF63B23EFE
:102480002A44B83E491DBE3E15EFC33E53B9C93E6E
:10249000CA7BCF3E4136D53E80E8DA3E4F92E03EE1
:1024A0007533E63EBBCBEB3EEA5AF13ECBE0F63E5F
:1024B000275DFC3EE4E7003F3D9C033F824B063F27
:1024C0009BF5083F6B9A0B3FDA390E3FCDD3103F97
:1024D0002A68133FD9F6153FC07F183FC6021B3F3D
:1024E000D17F1D3FCBF61F3F9967223F25D2243F66
:1024F0005636273F1594293F4AEB2B3FDE3B2E3FB4
:10250000BB85303FC9C8323FF304353F233A373FDC
:102510004268393F3B8F3B3FF9AE3D3F67C73F3F86
:1025200070D8413F01E2433F03E4453F65DE473F4A
:1025300012D1493FF8BB4B3F029F4D3F207A4F3F9E
:102540003D4D513F4918533F31DB543FE595563FD0
:102550005348583F6AF2593F1A945B3F532D5D3FF1
:1025600005BE5E3F2146603F97C5613F5A3C633FD1
:1025700059AA643F880F663FD86B673F3CBF683FEE
:10258000A7096A3F0C4B6B3F5E836C3F93B26D3F74
:102590009ED86E3F73F56F3F0809713F5213723F2B
:1025A0004714733FDD0B743F0BFA743FC6DE753F73
:1025B00007BA763FC58B773FF853783F9812793F3B
:1025C0009DC7793F02737A3FBE147B3FCDAC7B3F02
:1025D000283B7C3FC9BF7C3FAC3A7D3FCCAB7D3FC5
:1025E00023137E3FB0707E3F6DC47E3F580E7F3F09
:1025F0006D4E7F3FAB847F3F0FB17F3F97D37F3FCF
:1026000043EC7F3F11FB7F3F0000803F11FB7F3F8A
:1026100043EC7F3F97D37F3F0FB17F3FAB847F3F3A
:102620006D4E7F3F580E7F3F6DC47E3FB0707E3F42
:1026300023137E3FCCAB7D3FAC3A7D3FC9BF7C3F8F
:10264000283B7C3FCDAC7B3FBE147B3F02737A3F7F
:102650009DC7793F9812793FF853783FC58B773FF4
:1026600007BA763FC6DE753F0BFA743FDD0B743F49
:102670004714733F5213723F0809713F73F56F3F60
:102680009ED86E3F93B26D3F5E836C3F0C4B6B3FA9
:10269000A7096A3F3CBF683FD86B673F880F663F1A
:1026A00059AA643F5A3C633F97C5613F2146603F4A
:1026B00005BE5E3F532D5D3F1A945B3F6AF2593F62
:1026C0005348583FE595563F31DB543F4918533F37
:1026D0003D4D513F207A4F3F029F4D3FF8BB4B3F4E
:1026E00012D1493F65DE473F03E4453F01E2433FE6
:1026F00070D8413F67C73F3FF9AE3D3F3B8F3B3FFF
:102700004268393F233A373FF304353FC9C8323F67
:10271000BB85303FDE3B2E3F4AEB2B3F1594293FD4
:102720005636273F25D2243F9967223FCBF61F3FDD
:10273000D17F1D3FC6021B3FC07F183FD9F6153F12
:102740002A68133FCDD3103FDA390E3F6B9A0B3F07
:102750009BF5083F824B063F3D9C033FE4E7003F6B
:10276000275DFC3ECBE0F63EEA5AF13EBBCBEB3EAA
:102770007533E63E4F92E03E80E8DA3E4136D53E84
:10278000CA7BCF3E53B9C93E15EFC33E491DBE3E7D
:102790002A44B83EEF63B23ED47CAC3E128FA63ED4
:1027A000E59AA03E86A09A3E32A0943E229A8E3EA2
:1027B000938E883EC07D823ECCCF783E7F9A6C3E21
:1027C000135C603E0115543EC2C5473ECF6E3B3E92
:1027D000A2102F3EB5AB223E8340163E87CF093E66
:1027E00073B2FA3D2FBCE13D36BDC83D80B6AF3D6A
:1027F00004A9963D752B7B3D2EFB483D2BC3163D12
:10280000B10AC93C920E493C00000000920E49BC3E
:10281000B10AC9BC2BC316BD2EFB48BD752B7BBDB1
:1028200004A996BD80B6AFBD36BDC8BD2FBCE1BD05
:1028300073B2FABD87CF09BE834016BEB5AB22BEC8
:10284000A2102FBECF6E3BBEC2C547BE011554BEFF
:10285000135C60BE7F9A6CBECCCF78BEC07D82BE5A
:10286000938E88BE229A8EBE32A094BE86A09ABE57
:10287000E59AA0BE128FA6BED47CACBEEF63B2BEFA
:102880002A44B8BE491DBEBE15EFC3BE53B9C9BE6A
:10289000CA7BCFBE4136D5BE80E8DABE4F92E0BEDD
:1028A0007533E6BEBBCBEBBEEA5AF1BECBE0F6BE5B
:1028B000275DFCBEE4E700BF3D9C03BF824B06BF23
:1028C0009BF508BF6B9A0BBFDA390EBFCDD310BF93
:1028D0002A6813BFD9F615BFC07F18BFC6021BBF39
:1028E000D17F1DBFCBF61FBF996722BF25D224BF62
:1028F000563627BF159429BF4AEB2BBFDE3B2EBFB0
:10290000BB8530BFC9C832BFF30435BF233A37BFD8
:10291000426839BF3B8F3BBFF9AE3DBF67C73FBF82
:1029200070D841BF01E243BF03E445BF65DE47BF46
:1029300012D149BFF8BB4BBF029F4DBF207A4FBF9A
:102940003D4D51BF491853BF31DB54BFE59556BFCC
:10295000534858BF6AF259BF1A945BBF532D5DBFED
:1029600005BE5EBF214660BF97C561BF5A3C63BFCD
:1029700059AA64BF880F66BFD86B67BF3CBF68BFEA
:10298000A7096ABF0C4B6BBF5E836CBF93B26DBF70
:102990009ED86EBF73F56FBF080971BF521372BF27
:1029A000471473BFDD0B74BF0BFA74BFC6DE75BF6F
:1029B00007BA76BFC58B77BFF85378BF981279BF37
:1029C0009DC779BF02737ABFBE147BBFCDAC7BBFFE
:1029D000283B7CBFC9BF7CBFAC3A7DBFCCAB7DBFC1
:1029E00023137EBFB0707EBF6DC47EBF580E7FBF05
:1029F0006D4E7FBFAB847FBF0FB17FBF97D37FBFCB
:102A000043EC7FBF11FB7FBF000080BF11FB7FBF86
:102A100043EC7FBF97D37FBF0FB17FBFAB847FBF36
:102A20006D4E7FBF580E7FBF6DC47EBFB0707EBF3E
:102A300023137EBFCCAB7DBFAC3A7DBFC9BF7CBF8B
:102A4000283B7CBFCDAC7BBFBE147BBF02737ABF7B
:102A50009DC779BF981279BFF85378BFC58B77BFF0
:102A600007BA76BFC6DE75BF0BFA74BFDD0B74BF45
:102A7000471473BF521372BF080971BF73F56FBF5C
:102A80009ED86EBF93B26DBF5E836CBF0C4B6BBFA5
:102A9000A7096ABF3CBF68BFD86B67BF880F66BF16
:102AA00059AA64BF5A3C63BF97C561BF214660BF46
:102AB00005BE5EBF532D5DBF1A945BBF6AF259BF5E
:102AC000534858BFE59556BF31DB54BF491853BF33
:102AD0003D4D51BF207A4FBF029F4DBFF8BB4BBF4A
:102AE00012D149BF65DE47BF03E445BF01E243BFE2
:102AF00070D841BF67C73FBFF9AE3DBF3B8F3BBFFB
:102B0000426839BF233A37BFF30435BFC9C832BF63
:102B1000BB8530BFDE3B2EBF4AEB2BBF159429BFD0
:102B2000563627BF25D224BF996722BFCBF61FBFD9
:102B3000D17F1DBFC6021BBFC07F18BFD9F615BF0E
:102B40002A6813BFCDD310BFDA390EBF6B9A0BBF03
:102B50009BF508BF824B06BF3D9C03BFE4E700BF67
:102B6000275DFCBECBE0F6BEEA5AF1BEBBCBEBBEA6
:102B70007533E6BE4F92E0BE80E8DABE4136D5BE80
:102B8000CA7BCFBE53B9C9BE15EFC3BE491DBEBE79
:102B90002A44B8BEEF63B2BED47CACBE128FA6BED0
:102BA000E59AA0BE86A09ABE32A094BE229A8EBE9E
:102BB000938E88BEC07D82BECCCF78BE7F9A6CBE1D
:102BC000135C60BE011554BEC2C547BECF6E3BBE8E
:102BD000A2102FBEB5AB22BE834016BE87CF09BE62
:102BE00073B2FABD2FBCE1BD36BDC8BD80B6AFBD66
:102BF00004A996BD752B7BBD2EFB48BD2BC316BD0E
:102C0000B10AC9BC920E49BC00000080000000005F
:102C1000000000000102030406070809000000008C
:102C200001020304482C00080000002018000000E6
:102C300094220008602C000818000020E8240000FE
:102C4000A4220008000000000000000001000000B5
:102C50001000000003FCFC030024F400000000004E
:04000005080001C529
:00000001FF
