:020000040800F2
:10000000A0040020D90100082B1100081B110008D2
:1000100029110008E5020008F313000800000000A1
:100020000000000000000000000000002F11000888
:10003000E7020008000000002D110008311100083F
:10004000F3010008F3010008F3010008F3010008C0
:10005000F3010008F3010008F3010008F3010008B0
:10006000F3010008F3010008F3010008F3010008A0
:10007000F3010008F3010008F3010008F301000890
:10008000F3010008F3010008F3010008F301000880
:10009000F3010008F3010008F3010008F301000870
:1000A000F3010008F3010008F3010008F301000860
:1000B000F3010008F3010008F3010008F301000850
:1000C000F3010008F3010008F3010008F301000840
:1000D000F3010008F3010008F1130008F301000820
:1000E000F3010008F3010008F3010008F301000820
:1000F000F3010008F3010008F3010008F301000810
:10010000F3010008F3010008F3010008F3010008FF
:10011000F3010008F3010008F3010008F3010008EF
:10012000F3010008F3010008F3010008F3010008DF
:10013000F30100080000000000000000F3010008C7
:10014000F3010008F3010008F3010008F3010008BF
:10015000F3010008F3010008F3010008F3010008AF
:10016000F3010008F3010008F3010008F30100089F
:10017000F3010008F3010008F3010008000000008B
:1001800000000000F3010008000000000000000073
:10019000F30100080000000000000000F301000867
:1001A000000000000000000000000000F301000853
:1001B000F3010008F3010008F3010008F30100084F
:1001C000F3010008DFF80CD000F07AF8004800478F
:1001D00035140008A0040020064880470648004760
:1001E000FEE7FEE7FEE7FEE7FEE7FEE7FEE7FEE7E7
:1001F000FEE7FEE7D1110008C50100082DE9F05F18
:100200000546002092469B46884606468146402485
:100210001BE0284641464746224600F041F8534637
:100220005A46C01A914110D311461846224600F092
:1002300028F82D1A67EB01084F46224601200021BD
:1002400000F01FF817EB00094E41201EA4F1010435
:10025000DFDC484631462A464346BDE8F09FD2B22D
:1002600001E000F8012B491EFBD270470022F6E79F
:1002700010B513460A4604461946FFF7F0FF20461C
:1002800010BD202A04DB203A00FA02F1002070475A
:100290009140C2F1200320FA03F3194390407047C4
:1002A000202A04DB203A21FA02F00021704721FACB
:1002B00002F3D040C2F12002914008431946704732
:1002C000064C074D06E0E06840F0010394E80700A3
:1002D00098471034AC42F6D3FFF778FF6C1600084D
:1002E0008C160008FEE7704702482021012200F02A
:1002F000F9BA00BF0000024078B50022009290F8E1
:100300003C20012A01D1022149E0012280F83C2051
:10031000D1F800E01FFA8EFCBEF10A0F4FEA4C0242
:1003200012FA8EF204D303681E3A03F10C0402E0C1
:10033000036803F1100407252668954026EA0505A1
:1003400025608D6805FA02F225682A4322604A6812
:10035000062A05D802EB820203F13401053A0BE0CC
:1003600002EB82040C2A87BF03F12C01A4F14102A5
:1003700003F13001A4F123021F240D6894400CFA0C
:1003800002F225EA04040C600E6832430A606D49EB
:10039000A1F54172934205D0002180F83C10084637
:1003A00001B070BDBEF1110F0ED0154A96450BD0AD
:1003B000BEF1120FF0D10A6822F400020A600A6846
:1003C00042F480020A60E7E70A6822F480020A60C9
:1003D0000A6842F400020A6009498E45DCD1D1491D
:1003E000D14A0968B1FBF2F101EB8101490001E05A
:1003F00000990139009100990029F9D1CCE700BF9B
:1004000012000010006C70470068C06C704700005C
:10041000002842D010B50446006C30B9204600F0E8
:1004200099F8002084F83C006064206CC00636D443
:10043000206C41F20211444B884302302064414851
:10044000016821F440310160616802681143016074
:100450002068416821F4807141602169426842EA64
:1004600001214160416821F040714160A16842680A
:1004700011434160816821F400618160E168826814
:1004800011438160A16A826822F0706299428260A1
:10049000826806D122F040510CE001207047012013
:1004A0004CE011438160816821F040518160E16A34
:1004B000826811438160816821F002018160217EA0
:1004C000826842EA4101816094F8202041686AB163
:1004D00041F400611D4A4160416821F4604141607E
:1004E000616A02EB41314268114301E021F400618D
:1004F0004160174AC16A21F47001C162E16902EBEF
:100500000151C26A1143C162816821F400718160A6
:1005100094F83010826842EA41218160816821F4B8
:10052000806181606169826842EA81210122816083
:1005300000206064216C62F301012164002184F8D1
:100540003C1010BD042301400100000F00E0FFFF3C
:100550000000F0FF10B586B0044601A81421FFF793
:1005600085FE2168714881421FD10021104A00F5A3
:1005700060400091536943F480735361536903F4FD
:1005800080730093009B0091136843F00103136094
:10059000126802F001020092009A03910321029175
:1005A0000221019101A900F0D7F806B010BD00BFEB
:1005B00030380240F8B5044600680D4681684905A8
:1005C00044BF80685FEAC05039D400F091F9064614
:1005D0006F1C20680168890710D4002FF9D025B15D
:1005E00000F086F9801BA842F3D9002084F83C0073
:1005F000206C40F004002064032028E06FF012011A
:100600000160216C41F400712164816811F0405F48
:1006100013D1217E89B9C16A11F4700F02D08068AC
:1006200040050AD4206C20F480702064206CC00443
:100630005EBF206C40F001002064002007E0002035
:1006400084F83C00206C40F020002064012001B0C0
:10065000F0BD000081B00021009190F83C1001290C
:1006600001D102205BE0012180F83C1001688A681A
:10067000D20711D18A682C4B42F001028A60BF4A2E
:100680001268B2FBF3F202EB420201E0009A013A77
:100690000092009A002AF9D18A68D2073ED0026CF3
:1006A00040F201739A4302F5807202644A6852056F
:1006B00004D5026C012363F30D320264026C002343
:1006C000D20444BF436C23F00603002280F83C2090
:1006D00043646FF0220008601448D0F80423D20667
:1006E00003D081421AD1806811E081420ED0104AB5
:1006F000914207D00F4A914210D1D0F80403C006AE
:100700000CD103E0D0F80403C00607D4886810F0C9
:10071000405F03D1886840F080408860002001B0CD
:10072000704700BF0C00002040420F000020014035
:100730000022014000210140B0B5044600F0D8F885
:1007400005468D48611C007818BF044400F0D0F8BD
:10075000401BA042FAD3B0BD2DE9F84F5B4A4FF0E1
:10076000070A4FF0010B4FF000084FF0000E9042C7
:10077000574A08BF4FF0060A02444FEAB223062B3D
:1007800038BF4FEAB22A0022102A08BFBDE8F88F0E
:100790000B680BFA02F6334200F091804B6843F08D
:1007A0001004122C13D16FF003040EF01C030F275A
:1007B00004EA520507FA03FC05442C6A24EA0C0CEF
:1007C0000C6904FA03F343EA0C032B624B6803271A
:1007D00003F00305122B07FA08F4076805FA08F579
:1007E0006FEA040C27EA040747EA0507076013D8F5
:1007F0000BFA03F414F0061F0ED08468CD6804EAE7
:100800000C0405FA08F52C438460C3F30014456812
:100810009440B5432C434460C4688D68DB0004EA0F
:100820000C0705FA08F547EA0507C76047D5002316
:10083000284C0EF00C050093284BA4461F461B685D
:1008400043F480433B603B6803F48043009322F011
:1008500003032344224C009FA1461F590F24AC40A0
:100860000AFA05F5A7432F4343F80970DCF8003076
:100870004D6843EA0607EC0358BF23EA0607CCF8A5
:100880000070AC03DCF8043043EA060758BF23EAE3
:100890000607CCF80470EC02DCF8083043EA0607DF
:1008A00058BF23EA06070C4BCCF80870AD021C4673
:1008B0001B6843EA060758BF23EA0607276008F1CA
:1008C00002080EF1040E01325EE700BF001802407C
:1008D0000000FEBF003C01400C3C01404438024097
:1008E00008FCFFFF002A08BF09048161704700006F
:1008F00005480068704700BF1F48034900780A6830
:1009000010440860704700BF9C00002080B50B4871
:10091000016841F400710160016841F48061016087
:10092000016841F480710160032000F073F8002039
:1009300000F006F800F024F8002080BD003C0240E2
:1009400070B50D4E04464FF47A713078B1FBF0F07B
:100950008A490968B1FBF0F000F0DCFA01250F2CA0
:1009600008D838B94FF0FF3021460022002500F0AA
:1009700033F87460284670BD040000200C0000208D
:1009800082B000200C4901904A6842F480424A60DB
:100990004A6802F480420192019A0090086840F08F
:1009A00080500860086800F0805000900098072090
:1009B00002B000F02FB800BF40380240002808DB2A
:1009C00000F01F010122400902FA01F1014A42F838
:1009D0002010704700E100E080B5144B1B68C3F3A2
:1009E000022CBCF1030E8CF007034FF0FF3C38BF24
:1009F0004FF0000E042B28BF04230CFA03F3994395
:100A00000CFA0EF301FA0EF19A431143BDE880404F
:100A100000F0F0BC05494FF6FF030A681A4060F386
:100A20000A22034810430860704700BF0CED00E045
:100A30000000FA052DE9F041002800F08380434BC7
:100A400004468846D3F8000400F00F00884207D21D
:100A500083F80084D3F8000400F00F00404571D102
:100A60002068810711D5410742BF996841F4E051E0
:100A70009960010742BF996841F4604199609968A3
:100A8000A26821F0F00111439960C0072AD0606884
:100A9000811E022903D21968890109D452E0012874
:100AA00003D11968890303D44CE01968890749D533
:100AB00099681D4621F0030108439860FFF718FF6D
:100AC000064641F28837A86861682B4600F00C00A2
:100AD000B0EB810F06D0FFF70BFF801BB842F2D9B5
:100AE000032430E0D3F8000400F00F00404507D99C
:100AF00083F80084D3F8000400F00F00404521D1B2
:100B00002068410705D59968E26821F4E051114356
:100B10009960000706D59868216920F4604040EA92
:100B2000C10098601C4600F02FF8A168084A002414
:100B3000C1F30311515CC840104908600020FFF761
:100B4000FFFE00E001242046BDE8F08100380240AD
:100B5000EC15000809480A490A4A00680968C1F307
:100B60008221515CC840704704480549054A006825
:100B70000968C1F34231515CC84070470C00002045
:100B800008380240FC15000810B5204C6068C0F31E
:100B900081011F48032915D0022904D0012904BF6F
:100BA0001C4810BD10BD2168236801F03F02216878
:100BB0005B02C1F3881114D4A1FB00010023FFF7ED
:100BC0001DFB12E02168236801F03F0221685B02EF
:100BD000C1F3881110D4A1FB00010023FFF70EFB25
:100BE0000EE00C484843B0FBF2F021680222C1F34A
:100BF000014102EB410106E006484843B0FBF2F038
:100C00002168C1F30271B0FBF1F010BD043802405D
:100C10000024F40000127A002DE9FC41044600781B
:100C2000B94EC00737D0B06800F00C0004282BD0B4
:100C3000B06800F00C00082802D17068400223D48C
:100C4000B06800F00C000C2802D1706840021BD480
:100C50006768B7F5803F07D03068B7F5A02F40F040
:100C6000138140F480203060306840F48030306080
:100C7000FFF73EFE0546306880030CD4FFF738FED0
:100C8000401B6428F7D9A6E03068800303D560686C
:100C9000002800F0DA802078800734D5B06810F0A2
:100CA0000C0F0FD0B06800F00C00082802D170685B
:100CB000400207D5B06800F00C000C2809D170681C
:100CC000400206D43068800716D5E068012813D0AA
:100CD000BBE0E068002800F080808C4801210160C2
:100CE000FFF706FE05463068800705D4FFF700FED3
:100CF000401B0228F7D96EE03068216920F0F80027
:100D000040EAC10030602078000721D5606978B1E1
:100D10007E480121C0F8801EFFF7EAFD0546706F8E
:100D2000800715D4FFF7E4FD401B0228F7D952E0F5
:100D300076480021C0F8801EFFF7DAFD0546706F87
:100D4000800705D5FFF7D4FD401B0228F7D942E004
:100D50002078400771D5306C4FF00008C0000CD4EB
:100D6000CDF804804FF00108306C40F080503064C2
:100D7000306C00F0805001900198654F3868C005D4
:100D80000FD4386840F480703860FFF7B1FD054635
:100D90003868C00505D4FFF7ABFD401B0228F7D922
:100DA00019E0A768012F05D0306F052F26D140F03C
:100DB00004003067306F40F001003067FFF798FDA6
:100DC000054641F28837306F80072FD4FFF790FD3A
:100DD000401BB842F7D9032092E04C480021016043
:100DE000FFF786FD0546306880077FF58CAFFFF77B
:100DF0007FFD411B03200229F5D981E020F001008D
:100E00003067306F20F004003067FFF771FD054652
:100E1000002FD6D141F28837306F800706D5FFF713
:100E200067FD411B0320B942F6D969E0B8F1000F14
:100E30001EBF306C20F080503064A769002F5ED058
:100E4000B06800F00C00082801D1012058E02F49BB
:100E5000002088460866FFF74BFD0546022F09D1A2
:100E60003068800128D5FFF743FD411B032002298C
:100E7000F6D945E03068800141D5FFF739FD411BC7
:100E800003200329F6D33BE020F480303060306843
:100E900020F480203060FFF72BFD0546002F7FF403
:100EA000EAAE306880037FF5F6AEFFF721FD411B07
:100EB00003206429F5D923E004F11C078FCF256BAB
:100EC0000843D90340EA82104FF6FF72914340EA8B
:100ED0000760A1F58031084340EA05707060012089
:100EE000C8F86000FFF704FD04463068800106D4AE
:100EF000FFF7FEFC011B03200229F6D900E00020C9
:100F000002B0BDE8F08100BF003802400000474257
:100F100000700040411E0020B0EB116F1CBF01208B
:100F20007047044AF023516003490B700721906019
:100F30001160704710E000E023ED00E050B310B501
:100F4000044690F8390028B9002084F8380020467B
:100F500000F022F8242084F839002068C16821F4C8
:100F60000051C160204600F059F92068016921F460
:100F700090410161416921F02A014161C16841F458
:100F80000051C16000202021E06384F8391084F80A
:100F90003A1010BD0120704710B586B0044601A874
:100FA0001421FFF763F920682C49884228D02C4986
:100FB000884251D100202B4900904A6942F010022A
:100FC0004A614A6902F010020092009A0090086893
:100FD00040F001000860086801A900F001000090DD
:100FE0000098072005900320049001200390022020
:100FF00002904FF4C06001901B48FFF7ADFB2BE05F
:101000000020184900900A6942F400320A610A6916
:1010100002F400320092009A0090086840F001004B
:101020000860086801A900F00100009000980720FE
:1010300005900320049001200390022002900C20D0
:1010400001900948FFF788FB262000210022FFF7C6
:10105000C3FC2620FFF7B2FC06B010BD00440040E0
:101060000010014030380240000002402DE9F041FC
:10107000044690F8390020280AD10E4601200029A4
:1010800049D01746002A46D094F83800012802D1EA
:101090000220BDE8F08100201D46E063012084F8B5
:1010A0003800212084F83900FFF722FC8046E784CD
:1010B000A7841DE0E08C802142462B460138E08465
:1010C0002046A76800F068F9B7F5805F0BD1C8B972
:1010D000318820686FF35F2141602069002814BFC8
:1010E0000136023604E068B9206816F8011B416039
:1010F000E08C0028DED12046402142462B4600F0FD
:101100004BF910B10320BDE8F0810020202184F8C4
:10111000380084F83910BDE8F081FEE7014800F09E
:1011200053BA00BF04160008FEE7704770477047C7
:10113000FFF7E2BB70B594B007AC1421201DFFF798
:1011400095F802A81421FFF791F800251E48012206
:1011500002260195016841F080510160006800F0AD
:1011600080500190019801951848016862F38F3111
:101170000160006800F4404001900198CDE91266DA
:10118000042011904FF4A870109010200F90CDE91A
:101190000D65CDE90A2020460796FFF73DFD08B111
:1011A000FFF7A2F84FF480500695022105900F201A
:1011B000CDE90365029002A8FFF73CFC08B1FFF7F8
:1011C00093F814B070BD00BF40380240007000407A
:1011D00010B50E480F4CD0F8801041F47001C0F8E3
:1011E00080100B490A6842F001020A6000228A60FE
:1011F0000B6823400B60084B4B600B6823F4802383
:101200000B60CA604FF00061016010BD08ED00E0A6
:1012100000380240FFFFF6FE103000242DE9F047B1
:101220000446006849F20C650169E26821F4405106
:1012300011430161A168D4E90423E769C668114339
:10124000AE43B7F5004F41EA030141EA070141EA25
:101250000601C1604169A26921F4407141EA0201BD
:1012600041614A4940F480603FD188420CBFDFF8B9
:1012700020A1DFF820A1D047D4F804908046D047C1
:1012800067680646D047616819257F00684306FBFA
:1012900005F34900B3FBF7F3B0FBF1F06421B0FBB9
:1012A000F1F202FB1102181A4FEA490310443222EC
:1012B00002EBC0004FF4F872B0FBF1F002EA40001C
:1012C00008FB05F2B2FBF3F2B2FBF1F100EB011601
:1012D000D047616868434900B0FBF1F7D0476168C7
:1012E00068430722032349003CE0884214BFDFF82B
:1012F000A4A0DFF89CA0D047D4F804908046D04743
:1013000067680646D04761681925BF00684306FB39
:1013100005F38900B3FBF7F3B0FBF1F06421B0FBF8
:10132000F1F202FB1102181A4FEA8903104432222B
:1013300002EB001008FB05F2B0FBF1F0B2FBF3F298
:1013400000F0F000B2FBF1F100EB0116D04761684C
:1013500068438900B0FBF1F7D047616868430F220A
:1013600004238900B0FBF1F0391A6427B0FBF7F5CC
:1013700005FB17000844216898403230B0FBF7F0B5
:10138000104030438860BDE8F08700BF0014014082
:10139000690B0008550B00082DE9F0411D469046E9
:1013A0000F4604465E1C206801683940B94204BFFC
:1013B0000020BDE8F081002EF5D035B1FFF798FA96
:1013C000A0EB0800A842EED92068C16821F4D071D2
:1013D000C160416921F0010141612020002184F8B0
:1013E000390084F8381084F83A000320BDE8F08111
:1013F0007047FEE710B5074C00F00F03044AB0F148
:10140000FF3F2344C8BF83180801187010BD00BFF8
:1014100000E400E014ED00E0E0B501905F4801A9B0
:1014200001224FF6FF730430FFF720FE019802B04F
:1014300080BD00BF86B0FFF769FAFFF77BFE554D10
:101440005348554B00244FF48031012605F5805256
:10145000C46280F820400476836280F83040C66120
:10146000C0E90021C0E90244C0E90444CDE90344D5
:10147000CDE90144FEF7CCFF08B1FEF735FF444843
:1014800001A90394CDE90166FEF736FF08B1FEF726
:101490002BFF3F48FFF7DEF808B1FEF725FF3C4879
:1014A0000A21FFF787F808B1FEF71EFF3848FEF75C
:1014B000A9FF800504D53648FEF7A6FF3749088006
:1014C000364800260C214FF4E13240F8045FC0E9B1
:1014D0000126C0E90366C0E90516C661FFF72EFDC7
:1014E00008B1FEF701FF2E48CDE90466009605F528
:1014F000704400222027016841F004010160016866
:1015000001F00401009100990096016841F080010A
:101510000160016801F08001009100990096016866
:1015200041F001010160016801F0010100910099A1
:101530000096016841F0020101602021006800F07E
:101540000200009000982046FFF7CCF9154803965A
:1015500002904FF40050019005F5784001AD294606
:10156000FFF7FAF80120CDE903662946CDE90170BD
:101570002046FFF7F1F8204620210022FFF7B2F9BC
:10158000FFF7CCFDFFF7CAFD0A20FFF7D5F8FBE710
:1015900054000020001001400100000F1000002046
:1015A000303802400000211002E008C8121F08C1B4
:1015B000002AFAD170477047002001E001C1121FD4
:1015C000002AFBD17047000010B5044601E0FFF788
:1015D00023FF14F8010B04490028F8D1BDE810409E
:1015E0000A20FFF719BF00000000002000000000E3
:1015F00000000000010203040607080900000000C3
:1016000001020304424F584628302C302C34383025
:101610002C3332302C3135293B4250494328312C70
:101620003138302C39302C31293B42504943283253
:101630002C3133302C302C32293B53424328313566
:10164000293B4453323428302C302C27537973747F
:10165000656D20496E697469616C697A696E672E7F
:101660002E2E2E2E2E272C30293B0D0090160008F2
:101670000000002010000000A8150008A0160008B7
:101680001000002090040000B815000800000000C1
:101690000000000001000000100000000024F40021
:04000005080001C529
:00000001FF
