:020000040800F2
:1000000058040020D9010008CF0E0008330E000864
:10001000CD0E0008E50200080914000800000000E9
:10002000000000000000000000000000D30E0008E7
:10003000E702000800000000D10E0008D50E0008FD
:10004000F3010008F3010008F3010008F3010008C0
:10005000F3010008F3010008F3010008F3010008B0
:10006000F3010008F3010008F3010008F3010008A0
:10007000F3010008F3010008F3010008F301000890
:10008000F3010008F3010008F3010008F301000880
:10009000F3010008F3010008F3010008F301000870
:1000A000F3010008F3010008F3010008F301000860
:1000B000F3010008F3010008F3010008F301000850
:1000C000F3010008F3010008F3010008F301000840
:1000D000F3010008F3010008FD130008F301000814
:1000E000F3010008F3010008F3010008F301000820
:1000F000F3010008F3010008F3010008F301000810
:10010000F3010008F3010008F3010008F3010008FF
:10011000F3010008F3010008F3010008F3010008EF
:10012000F3010008F3010008F3010008F3010008DF
:10013000F30100080000000000000000F3010008C7
:10014000F3010008F3010008F3010008F3010008BF
:10015000F3010008F3010008F3010008F3010008AF
:10016000F3010008F3010008F3010008F30100089F
:10017000F3010008F3010008F3010008000000008B
:1001800000000000F3010008000000000000000073
:10019000F30100080000000000000000F301000867
:1001A000000000000000000000000000F301000853
:1001B000F3010008F3010008F3010008F30100084F
:1001C000F3010008DFF80CD000F07AF8004800478F
:1001D0009514000858040020064880470648004748
:1001E000FEE7FEE7FEE7FEE7FEE7FEE7FEE7FEE7E7
:1001F000FEE7FEE7710F0008C50100082DE9F05F7A
:100200000546002092469B46884606468146402485
:100210001BE0284641464746224600F041F8534637
:100220005A46C01A914110D311461846224600F092
:1002300028F82D1A67EB01084F46224601200021BD
:1002400000F01FF817EB00094E41201EA4F1010435
:10025000DFDC484631462A464346BDE8F09FD2B22D
:1002600001E000F8012B491EFBD270470022F6E79F
:1002700010B513460A4604461946FFF7F0FF20461C
:1002800010BD202A04DB203A00FA02F1002070475A
:100290009140C2F1200320FA03F3194390407047C4
:1002A000202A04DB203A21FA02F00021704721FACB
:1002B00002F3D040C2F12002914008431946704732
:1002C000064C074D06E0E06840F0010394E80700A3
:1002D00098471034AC42F6D3FFF778FF00150008BA
:1002E00020150008FEE7704701222021014800F098
:1002F000E7B800000000024090F83510022903D052
:100300008021416501207047052180F83510006883
:10031000016821F001010160002070472DE9F84FCC
:10032000DFF874B100224FF001084FF0030A4FF0DC
:100330000F090BF1040E00BF0B6808FA02F423400A
:10034000A3426ED14D68022D01D0122D0ED1D508D9
:1003500000EB850CDCF820505607F70E09FA07F67B
:10036000B5430E69BE402E43CCF8206006685500A8
:100370000F790AFA05FC07F0030726EA0C06AF40DE
:10038000374307604E68012E05D0022E03D0112E90
:1003900001D0122E0ED18668CF6826EA0C06AF4037
:1003A000374387604668A6430C79C4F30014944031
:1003B00034434460C4688E6824EA0C04AE4026438B
:1003C000C6604C68E40060D5344C256845F480452F
:1003D0002560246822F0030504F480440094304C26
:1003E0002E19D6F8084895072F0F09FA07F5AC43E0
:1003F0002C4DA84201D100251FE02B4DA84201D170
:1004000001251AE0294DA84201D1022515E0284D09
:10041000A84201D1032510E0264DA84202D10425AF
:100420000BE032E0244DA84201D1052505E0234D23
:10043000A84201D1062500E00725BD402543C6F8A6
:100440000858DBF800405D464E689C43F60300D533
:100450001C432C60DEF8004075464E689C43B60392
:1004600000D51C432C600C4D08352C684E689C430D
:10047000F60200D51C432C60074D0C352C684E68E5
:100480009C43B60200D51C432C60521C102AFFF47A
:1004900053AFBDE8F88F0000003C014044380240F3
:1004A0000030014000000240000402400008024009
:1004B000000C0240001002400014024000180240EC
:1004C0000AB1816170470904FBE7000001488068B8
:1004D0007047000000000020024881680278114443
:1004E00081607047000000200B4810B5016841F49E
:1004F00000710160016841F480610160016841F4AC
:1005000080710160032000F071F8002000F006F80F
:1005100000F024F8002010BD003C024070B50D4DE5
:1005200004464FF47A712878B1FBF0F00A49096863
:10053000B1FBF0F000F010FB48B9102C07D20022FC
:100540002146501E00F032F800206C6070BD012082
:1005500070BD0000000000200C0000200B4882B09D
:10056000016841F480410160006800F4804000901F
:100570000648001F016841F080510160006800F0EA
:1005800080500090072002B000F030B8443802409C
:10059000002809DB00F01F02012191404009800082
:1005A00000F1E020C0F8001170470000F0B40E4BDD
:1005B0001B680C46C3F30223C3F10705042D00D9C1
:1005C0000425191D072901D2002300E0DB1E0126A6
:1005D00006FA05F1491E214099409E40761E1640BC
:1005E0003143F0BC00F01ABF0CED00E0064900F00A
:1005F000070208684FF6FF03184040EA0220034A4A
:1006000010430860704700000CED00E00000FA05A0
:100610002DE9F0470E46050065D0DFF81481D8F8C3
:100620000000F7B200F00F00B04207D288F8007067
:10063000D8F8000000F00F00B04254D128683D4CBB
:10064000810712D5400703D5206840F4E0502060B0
:100650002878000703D5206840F4604020602068B7
:10066000A96820F0F000084320602878C0072DD04A
:10067000304968680839012812D0022813D00328AD
:1006800011D00968890700292DDA216821F00301BA
:1006900001432160FFF71AFF814641F2883A0EE0DC
:1006A00009688903EFE709688901ECE7FFF70EFFA6
:1006B000A0EB0901514502D90320BDE8F08720686D
:1006C000696800F00C00B0EB810FEFD1D8F8001092
:1006D000404601F00F01B14207D90770006800F0F1
:1006E0000F00B04201D00120E7E72878400705D588
:1006F0002068E96820F4E05008432060287800076B
:1007000006D52068296920F4604040EAC1002060D5
:1007100000F036F82168084AC1F30311515CC84063
:10072000064908600020FFF7F9FE0020C5E7000039
:10073000003C024008380240E81400080C00002089
:100740000448054900680968044AC1F38221515CE4
:10075000C84070470C00002008380240F814000818
:100760000448054900680968044AC1F34231515CF4
:10077000C84070470C00002008380240F8140008F8
:10078000224810B5006810F00C02214815D0411025
:10079000042A11D01D4C241F082A0FD00C2A0CD17A
:1007A0002268236802F03F025B0221D52068C0F373
:1007B0008810A0FB010120E0084610BD22682368D4
:1007C00002F03F025B0205D52068C0F38810A0FB51
:1007D000010104E02168C1F38811A1FB000100239D
:1007E000FFF70CFD2168C1F30141491C49000AE0F3
:1007F0002168C1F38811A1FB00010023FFF7FEFC73
:100800002168C1F30271B0FBF1F010BD083802405D
:100810000024F4002DE9F84F0546DFF828B30078EE
:10082000ABF10407C007A7F1040451D0DBF80010B6
:100830005846C1F3810101290FD00168C1F381013C
:10084000022902D13968490207D40068C0F3810047
:10085000032809D13868400206D52068800337D5BF
:100860006868002872D033E06868B0F5803F10D027
:10087000B0F5A02F206810D020F4803020602068D0
:1008800020F4802020606868A8B1FFF71FFE0646AC
:100890000DE0206840F48030F4E740F480202060D0
:1008A000F7E700BFFFF712FE801B642878D82068A6
:1008B0008003F7D50CE0FFF709FE064605E000BF10
:1008C000FFF704FE801B6428F0D820688003F7D46B
:1008D0002878DFF8749280074FF0000A46D5DBF8DD
:1008E0000010584611F00C0F0FD00168C1F38101C0
:1008F000022902D13968490207D50068C0F3810096
:10090000032809D13868400206D42068800715D52D
:10091000E86801281AD111E0E868C0B10120C9F8DF
:100920000000FFF7D3FD064605E000BFFFF7CEFD50
:10093000801B0228BAD820688007F7D5206829696B
:1009400020F0F80040EAC10020600FE0F7E0C9F8AD
:1009500000A0FFF7BBFD064605E000BFFFF7B6FDB0
:10096000801B02281CD820688007F7D4287800074D
:1009700027D5DFF8D0817548696908F16C0881B125
:1009800001210160FFF7A2FD064604E0FFF79EFD8E
:10099000801B022804D8D8F800008007F6D510E0A4
:1009A00089E0C0F800A0FFF791FD064605E000BF12
:1009B000FFF78CFD801B02287DD8D8F80000800747
:1009C000F6D42878400769D55E484FF000083830E3
:1009D0000068C0000BD45B483830016841F080519A
:1009E000016000684FF0010800F080500090584E00
:1009F0003068C00511D4306840F480703060FFF773
:100A000065FD009006E000BFFFF760FD0099401A09
:100A1000022850D83068C005F6D54A4EA868683616
:100A200001280FD00528306810D020F00100306078
:100A3000306820F004003060A868B8B1FFF746FDC8
:100A400000900FE0306840F00100F4E740F004004F
:100A50003060F7E7FFF73AFD0099411A41F288301C
:100A6000814264D830688007F4D50EE0FFF72EFD90
:100A7000009007E0FFF72AFD0099411A41F2883003
:100A8000814254D830688007F4D4B8F1000F05D003
:100A90002C483830016821F080510160A869A8B362
:100AA000DBF80010C1F38101022948D00228C9F8FF
:100AB00060A005D000E03AE0FFF708FD054639E008
:100AC000FFF704FD064604E0FFF700FD801B022847
:100AD0002DD820688001F7D4F5E907010843E968BB
:100AE0001C4A490802EB0141AA6841EA8211084305
:100AF000297C40EA0160297D40EA017038600120CC
:100B0000C9F86000FFF7E2FC054606E015E000BF0B
:100B1000FFF7DCFC401B022809D820688001F7D5CC
:100B20000BE000BFFFF7D2FC401B022802D90320D4
:100B3000BDE8F88F20688001F4D40020F8E7012098
:100B4000F6E700000838024000004742800E4742A6
:100B5000007000400000FFFF10B5401EB0F1807F24
:100B600001D3012010BD4FF0E02460610F21601718
:100B700000F054FC0020A06107202061002010BD7F
:100B80007047000070B5026804461068D168536968
:100B900010F00F0F50D003F0010501F490763543AB
:100BA0005DD0C20705D0CA0503D5E26B42F0010251
:100BB000E263420705D5DA0703D0E26B42F0020296
:100BC000E263820705D5DA0703D0E26B42F0040244
:100BD000E263020705D5DA0703D0E26B42F00802B0
:100BE000E263E26B002A33D0800604D5880602D582
:100BF000204600F0FDF920684069E16BC0F38010E9
:100C0000090700D428B3204600F0E4F920684169C0
:100C100049061AD5416921F040014161606BA0B1DC
:100C20001B490165606BFFF767FB002810D0606B04
:100C3000016DBDE870400847830610D58B060ED5C0
:100C40002046BDE8704000F0D3B92046FFF798FF7A
:100C500070BD2046FFF794FF0020E06370BD0306DF
:100C600006D50B0604D52046BDE8704000F062BBF7
:100C70004006F3D54806F1D5D168204621F0400161
:100C8000D160202184F8391000F0D2F870BD000046
:100C9000C50F000870B5040004D094F83900002591
:100CA00010B106E0012070BD84F83850204600F0F5
:100CB00023F8242084F839002068C16821F4005109
:100CC000C160204600F0E0F92068016921F49041FC
:100CD00001612068416921F02A0141612068C168F1
:100CE00041F40051C160E563202084F8390084F8A4
:100CF0003A00002070BD000010B586B004461421F3
:100D00006846FFF7B3FA18492068884229D1174886
:100D1000016841F400310160006800F40030059082
:100D200012481038016841F001010160006869460D
:100D300000F0010005904FF4C06000900220019087
:100D40000120029003200390072004900848FFF739
:100D5000E5FA002211462520FFF728FC2520FFF7A1
:100D600017FC06B010BD00000010014040380240E2
:100D70000000024070472DE9F843044690F839001E
:100D80001F4616460D46202850D1A5B19EB194F8B5
:100D9000380001284AD0012084F838004FF00008BC
:100DA000C4F83C80212084F83900FFF78FFBA6842B
:100DB0008146E68426E00120BDE8F883E08C401EF1
:100DC000E084A0684B46B0F5805F4FF000024FF022
:100DD00080012046009703D000F0DDFAE8B90DE06D
:100DE00000F0D9FAC8B928882168C0F30800486023
:100DF000206908B16D1C05E0AD1C03E0216815F801
:100E0000010B4860E08C0028D8D14B4600224021DD
:100E10002046009700F0BFFA08B10320CCE720205D
:100E200084F8390084F838800020C5E70220C3E741
:100E30007047FEE730B587B014216846FFF716FA11
:100E40001E480024016841F004010160016801F0BE
:100E500004010591016841F080010160016801F021
:100E600080010591016841F001010160016801F014
:100E700001010591016841F0020101600068104D17
:100E800000F002000590002220212846FFF718FB01
:100E90004FF4005000900B48CDE9010469460A4820
:100EA000FFF73CFA202000900120CDE901046946BB
:100EB00028460394FFF732FA07B030BD30380240BD
:100EC000000002400000211000080240FEE77047C9
:100ED00070477047FFF700BB30B593B034216846C8
:100EE000FFF7C4F914210DA8FFF7C0F91E4800252B
:100EF000016841F080510160006800F0805012905C
:100F00001A48016821F4404141F4804101600068C1
:100F1000022400F44040129001200390102000941D
:100F200006940490CDE907504FF4A870099004206E
:100F3000CDE90A0468460C94FFF76CFC08B1FFF792
:100F4000D3F90DA90F2081E831004FF48050CDE98D
:100F5000100502210DA8FFF75BFB002801D0FFF769
:100F6000C3F913B030BD00004038024000700040AB
:100F70001048016841F4700101600F48016841F0B8
:100F8000010101600C4A00210832116002680B4B1C
:100F90001A400260031D0A4A1A60026822F4802285
:100FA000026005480C30016002495806803908602B
:100FB0007047000088ED00E000380240FFFFF6FEB9
:100FC0001030002410B5806B0021C185C184FFF76B
:100FD000D7FD10BD0168CA6822F49072CA6001682A
:100FE0004A6922F001024A61202180F83A107047D4
:100FF00010B590F83A10222901D0022010BD816866
:10100000B1F5805F11D00169002901681FD04968DE
:1010100001F07F03816A4A1C82620B70C18D491EF8
:101020000904090CC18518D02BE00269816A002AE5
:101030000268526805D0D2B20A80816A491C816276
:10104000ECE7C2F308020A80816A891CF7E74A6864
:10105000816A4B1C83620A70E0E70168CA6822F06B
:101060002002CA600168CA6822F48072CA600168FE
:101070004A6922F001024A61202180F83A10FFF704
:1010800079FE002010BD00002DE9F0410446006803
:101090000169E26821F44051114301612169A068AE
:1010A000E26908436169114322680843D16849F243
:1010B0000C6399430143D16020684169A26921F41E
:1010C000407111434161E2696425B2F5004F9748D0
:1010D000974922684FF032083FD08A4201D08242BD
:1010E0007CD1FFF73DFB00EBC00101EB0010616814
:1010F0008900B0FBF1F6FFF733FB00EBC00101EB19
:10110000001061688900B0FBF1F0B0FBF5F06FF002
:101110001801484306EB800108EB0110B0FBF5F025
:1011200000F0F006FFF71CFB00EBC00101EB001024
:1011300061688900B0FBF1F0B0FBF5F006EB00163A
:10114000FFF70EFB00EBC00101EB001061688900A6
:10115000B0FBF1F7FFF704FBD2E08A4201D08242F4
:101160003DD1FFF7FDFA00EBC00101EB0010616813
:101170004900B0FBF1F0B0FBF5F00601FFF7F0FA23
:1011800000EBC00101EB001061684900B0FBF1F712
:10119000FFF7E6FA00EBC00101EB001061684900BF
:1011A000B0FBF1F0B0FBF5F06FF01801484307EB2E
:1011B000800108EBC100B0FBF5F000F0F80006EB91
:1011C0004006FFF7CDFA00EBC00101EB00106168AB
:1011D0004900B0FBF1F7FFF7C3FA3CE055E0FFF739
:1011E000AFFA00EBC00101EB001061684900B0FBF1
:1011F000F1F0B0FBF5F00601FFF7A2FA00EBC00139
:1012000001EB001061684900B0FBF1F7FFF798FAB5
:1012100000EBC00101EB001061684900B0FBF1F088
:10122000B0FBF5F06FF01801484307EB800108EBC5
:10123000C100B0FBF5F000F0F80006EB4006FFF748
:101240007FFA00EBC00101EB001061684900B0FBC0
:10125000F1F7FFF775FA00EBC00101EB00106168D0
:101260004900B0FBF1F0B0FBF5F06FF01801484316
:1012700007EB800108EBC100B0FBF5F000F00700C0
:10128000216830448860BDE8F081FFF759FA00EB2F
:10129000C00101EB001061688900B0FBF1F6FFF7B7
:1012A0004FFA00EBC00101EB001061688900B0FB50
:1012B000F1F0B0FBF5F06FF01801484306EB800148
:1012C00008EB0110B0FBF5F000F0F006FFF738FA7C
:1012D00000EBC00101EB001061688900B0FBF1F088
:1012E000B0FBF5F006EB0016FFF72AFA00EBC001A1
:1012F00001EB001061688900B0FBF1F7FFF720FAFD
:1013000000EBC00101EB001061688900B0FBF1F057
:10131000B0FBF5F06FF01801484307EB800108EBD4
:101320000110B0FBF5F000F00F00A9E70014014038
:101330000010014090F83910212901D00220704797
:101340008168B1F5805F016A0BD04A1C02620268B5
:1013500009785160C18C491E0904090CC1840ED062
:1013600017E009880268C1F308015160016900298A
:10137000016A02D0491C0162ECE7891CFBE70168A5
:10138000CA6822F08002CA600068C16841F040016A
:10139000C160002070472DE9F041984617460E467F
:1013A0000446069D1DE0681C1BD02DB1FFF78EF88A
:1013B000A0EB0800A84214D92068C16821F4D071BC
:1013C000C1602068416921F001014161202084F859
:1013D000390084F83A00002084F838000320BDE882
:1013E000F0812068006836EA000004D00020B8428E
:1013F000D9D00020F3E70120F9E700000148FFF70A
:10140000C1BB000014000020FEE70000014A0249B1
:1014100000F023B87D140008100000200907090E11
:10142000002804DB00F1E02080F80014704700F091
:101430000F0000F1E02080F8141D704702E008C89A
:10144000121F08C1002AFAD170477047002001E03E
:1014500001C1121F002AFBD170472DE9F041164649
:101460000F460446002503E03946B047641C6D1C56
:1014700020780028F8D12846BDE8F08113B54FF652
:10148000FF73012269460248FFF775FC00981CBDF6
:1014900014000020FFF728F8FFF71EFDFFF7CAFC35
:1014A0000C480B490C2201604FF4E13141600021EE
:1014B0008160C160C0E904128161C161FFF7EAFB8C
:1014C00008B1FEF711FF04A0FFF7A0FFFBE7000043
:1014D000001001401400002048656C6C6F20576FAD
:1014E000726C64210A0D0000000000000000000082
:1014F00001020304060708090000000001020304BA
:101500002015000800000020140000003C14000812
:101510003415000814000020440400004C14000896
:101520000100000010000000000000000024F40092
:0415300000000000B7
:04000005080001C529
:00000001FF
