:020000040800F2
:1000000048050020D90100086B1400089913000866
:1000100069140008E50200084D19000800000000FE
:100020000000000000000000000000006F14000845
:1000300071030008000000006D140008711400082E
:10004000F3010008F3010008F3010008F3010008C0
:10005000F3010008F3010008F3010008F3010008B0
:10006000F3010008F3010008F3010008F3010008A0
:10007000F3010008F3010008F3010008F301000890
:10008000E9020008F3010008F3010008F301000889
:10009000F3010008F3010008F3010008F301000870
:1000A000F3010008F3010008F3010008F301000860
:1000B000F3010008F3010008F3010008F301000850
:1000C000F3010008F3010008F3010008F301000840
:1000D000F3010008F3010008F3010008F301000830
:1000E000F3010008F3010008F3010008F301000820
:1000F000F3010008F3010008F3010008F301000810
:10010000F3010008F3010008F3010008F3010008FF
:10011000F3010008F301000851150008F30100087D
:10012000F3010008F3010008F3010008F3010008DF
:10013000F30100080000000000000000F3010008C7
:10014000F3010008F3010008F3010008F3010008BF
:10015000F3010008F3010008F3010008F3010008AF
:10016000F3010008F3010008F3010008F30100089F
:10017000F3010008F3010008F3010008000000008B
:1001800000000000F3010008000000000000000073
:10019000F30100080000000000000000F301000867
:1001A000000000000000000000000000F301000853
:1001B000F3010008F3010008F3010008F30100084F
:1001C000F3010008DFF80CD000F07AF8004800478F
:1001D0008D1900084805002006488047064800475A
:1001E000FEE7FEE7FEE7FEE7FEE7FEE7FEE7FEE7E7
:1001F000FEE7FEE7FD140008C50100082DE9F05FE9
:100200000546002092469B46884606468146402485
:100210001BE0284641464746224600F041F8534637
:100220005A46C01A914110D311461846224600F092
:1002300028F82D1A67EB01084F46224601200021BD
:1002400000F01FF817EB00094E41201EA4F1010435
:10025000DFDC484631462A464346BDE8F09FD2B22D
:1002600001E000F8012B491EFBD270470022F6E79F
:1002700010B513460A4604461946FFF7F0FF20461C
:1002800010BD202A04DB203A00FA02F1002070475A
:100290009140C2F1200320FA03F3194390407047C4
:1002A000202A04DB203A21FA02F00021704721FACB
:1002B00002F3D040C2F12002914008431946704732
:1002C000064C074D06E0E06840F0010394E80700A3
:1002D00098471034AC42F6D3FFF778FF601A000855
:1002E000801A0008FEE70000014800F001B9000094
:1002F000E400002001681823CAB2103AB2FBF3F2FE
:10030000054B6FF30901032A9B5CC36500D9091DE6
:100310008165084670470000401A000810B5014684
:1003200000208B698A6A4FF0C07453B1B3F5005F47
:1003300015D072B1012A0CD0022A0AD0032A09D1A1
:1003400004E01AB1012A06D0022A03D1C96AC90100
:1003500000D5012010BDC96AA142FAD010BD002A03
:10036000F7D0012AF2D0022AF3D0032AF3D010BD2D
:1003700070477047704770B54379012B1AD001263A
:1003800046710223037105682C6840F6FE739340A2
:100390009C43D1E900310B43934023432B60016818
:1003A0000B68C0249440A3430B6006710021417187
:1003B000084670BD022070BD704770B504460068E5
:1003C000416B4FF0040589040ED52571216941F078
:1003D00001012161E90241632068016821F4805133
:1003E00001602046FFF7E8FF2068416B890011D5C6
:1003F0002571216941F0020121614FF000514163F3
:100400002068016821F0805101602046BDE87040FD
:10041000FFF7B0BF70BD70B5040003D02079002590
:1004200010B105E0012070BD6571204600F008F8AC
:1004300002202071256101202071002070BD000084
:1004400070B586B0054614216846FFF70FFF2349B3
:10045000286888423FD122480026016841F00051B7
:100460000160006800F0005005901D4810380168D8
:1004700041F0010101600068694600F0010005904B
:10048000302000900320CDE90106164800F06AF9FB
:10049000164C154820604FF0606060604020C4E951
:1004A000020600012061400060618000C4E9060688
:1004B000C000C4E90806204600F0EAF808B1FFF7DA
:1004C00058FFAC60002211463620A56300F08CFA7C
:1004D000362000F07BFA06B070BD000000740040CA
:1004E000403802400000024088600240E4000020E2
:1004F0002DE9F84304464FF00009CDF80090634819
:100500004FF41651A56D0068B0FBF1F72E6894F812
:100510005C10082000FA01F131420FD021680A680E
:1005200052070BD50A6822F004020A6094F85C10A6
:100530008840A860606D40F00100606594F85C1030
:100540004FF0010808FA01F0304208D021684969EB
:10055000090604D5A860606D40F00200606594F85B
:100560005C1004208840304208D02168096889075F
:1005700004D5A860606D40F00400606594F85C10DC
:1005800010208840304218D021680968090714D526
:10059000A86020680168490304D50068000308D5F5
:1005A000A16C07E00168C90503D4016821F00801C6
:1005B0000160216C09B12046884794F85C10202026
:1005C0008840304231D021680968C9062DD5A8601D
:1005D00094F8350005282068016806D0490347D5FE
:1005E000006800031DD4616C1CE021F0160101605D
:1005F0002068416921F080014161206C08B9A06C3C
:1006000020B12068016821F00801016094F85C10B5
:100610003F208840A86084F8349084F83580216DAC
:100620001FE0E16B09B120468847606D00282BD0A0
:10063000606DC00714D0052084F83500206801687B
:1006400021F0010101600098401C0090B84203D8DD
:1006500020680068C007F6D184F8349084F83580AB
:10066000E16C002910D001B02046BDE8F0430847F6
:100670000168C905D5D4016821F01001016084F832
:10068000349084F83580CCE7BDE8F8830C00002076
:100690002DE9F041044600F037F906465CB100252B
:1006A00084F83450022084F835002068016821F075
:1006B000010101600DE00120BDE8F08100F024F9A6
:1006C000801B052805D920206065032084F83500AB
:1006D000F2E720680068C007F0D12268116820485E
:1006E0000140D4E901031843D4E9033633431843E6
:1006F00063691843A3691843E3691843236A1843DD
:100700000843616A042903D1D4E90B131943084350
:10071000106020684069666A20F0070130460E4389
:10072000012704280CD1A06A0643E06A40B12046A4
:10073000FFF7F4FD20B14020606584F83570BAE71A
:10074000206846612046FFF7D5FD94F85C203F21E4
:1007500091408160656584F835700020ACE7000049
:100760003F8010F02DE9F84FDFF874B100224FF010
:1007700001084FF0030A4FF00F090BF1040E00BF00
:100780000B6808FA02F42340A3426ED14D68022D93
:1007900001D0122D0ED1D50800EB850CDCF82050CD
:1007A0005607F70E09FA07F6B5430E69BE402E4309
:1007B000CCF82060066855000F790AFA05FC07F0AE
:1007C000030726EA0C06AF40374307604E68012E48
:1007D00005D0022E03D0112E01D0122E0ED1866824
:1007E000CF6826EA0C06AF40374387604668A643C9
:1007F0000C79C4F30014944034434460C4688E6898
:1008000024EA0C04AE402643C6604C68E40060D580
:10081000344C256845F480452560246822F00305A2
:1008200004F480440094304C2E19D6F808489507FB
:100830002F0F09FA07F5AC432C4DA84201D1002532
:100840001FE02B4DA84201D101251AE0294DA842F5
:1008500001D1022515E0284DA84201D1032510E061
:10086000264DA84202D104250BE032E0244DA842D7
:1008700001D1052505E0234DA84201D1062500E060
:100880000725BD402543C6F80858DBF800405D4603
:100890004E689C43F60300D51C432C60DEF80040F4
:1008A00075464E689C43B60300D51C432C600C4D26
:1008B00008352C684E689C43F60200D51C432C601A
:1008C000074D0C352C684E689C43B60200D51C437E
:1008D0002C60521C102AFFF453AFBDE8F88F0000C3
:1008E000003C01404438024000300140000002401A
:1008F0000004024000080240000C024000100240C8
:10090000001402400018024001488068704700004F
:10091000000000200248816802781144816070471D
:10092000000000200B4810B5016841F4007101601F
:10093000016841F480610160016841F480710160E7
:10094000032000F071F8002000F006F800F024F811
:10095000002010BD003C024070B50D4D04464FF420
:100960007A712878B1FBF0F00A490968B1FBF0F020
:1009700000F010FB48B9102C07D200222146501E6F
:1009800000F032F800206C6070BD012070BD0000E6
:10099000000000200C0000200B4882B0016841F4E8
:1009A00080410160006800F4804000900648001F0C
:1009B000016841F080510160006800F080500090B3
:1009C000072002B000F030B844380240002809DBAC
:1009D00000F01F02012191404009800000F1E02059
:1009E000C0F8001170470000F0B40E4B1B680C46B5
:1009F000C3F30223C3F10705042D00D90425191DF3
:100A0000072901D2002300E0DB1E012606FA05F1CA
:100A1000491E214099409E40761E16403143F0BC4D
:100A200000F095BF0CED00E0064900F007020868F1
:100A30004FF6FF03184040EA0220034A10430860C3
:100A4000704700000CED00E00000FA052DE9F047CA
:100A50000E46050065D0DFF81481D8F80000F7B223
:100A600000F00F00B04207D288F80070D8F80000FC
:100A700000F00F00B04254D128683D4C810712D5D8
:100A8000400703D5206840F4E05020602878000734
:100A900003D5206840F4604020602068A96820F0F9
:100AA000F000084320602878C0072DD030496868DE
:100AB0000839012812D0022813D0032811D0096860
:100AC000890700292DDA216821F003010143216003
:100AD000FFF71AFF814641F2883A0EE00968890360
:100AE000EFE709688901ECE7FFF70EFFA0EB0901CA
:100AF000514502D90320BDE8F0872068696800F0FD
:100B00000C00B0EB810FEFD1D8F80010404601F097
:100B10000F01B14207D90770006800F00F00B04222
:100B200001D00120E7E72878400705D52068E9686B
:100B300020F4E050084320602878000706D520689C
:100B4000296920F4604040EAC100206000F036F8D6
:100B50002168084AC1F30311515CC8400649086086
:100B60000020FFF7F9FE0020C5E70000003C02402E
:100B700008380240481A00080C00002004480549C3
:100B800000680968044AC1F38221515CC84070477B
:100B90000C00002008380240581A00080448054993
:100BA00000680968044AC1F34231515CC84070478B
:100BB0000C00002008380240581A0008224810B5DE
:100BC000006810F00C02214815D04110042A11D001
:100BD0001D4C241F082A0FD00C2A0CD12268236830
:100BE00002F03F025B0221D52068C0F38810A0FB11
:100BF000010120E0084610BD2268236802F03F0290
:100C00005B0205D52068C0F38810A0FB010104E059
:100C10002168C1F38811A1FB00010023FFF7EEFA60
:100C20002168C1F30141491C49000AE02168C1F370
:100C30008811A1FB00010023FFF7E0FA2168C1F34E
:100C40000271B0FBF1F010BD083802400024F4003E
:100C50002DE9F84F0546DFF828B30078ABF104071B
:100C6000C007A7F1040451D0DBF800105846C1F3C7
:100C7000810101290FD00168C1F38101022902D14C
:100C80003968490207D40068C0F38100032809D1FC
:100C90003868400206D52068800337D56868002888
:100CA00072D033E06868B0F5803F10D0B0F5A02F67
:100CB000206810D020F480302060206820F480204C
:100CC00020606868A8B1FFF71FFE06460DE02068A7
:100CD00040F48030F4E740F480202060F7E700BF64
:100CE000FFF712FE801B642878D820688003F7D5B0
:100CF0000CE0FFF709FE064605E000BFFFF704FE23
:100D0000801B6428F0D820688003F7D42878DFF8A7
:100D1000749280074FF0000A46D5DBF80010584661
:100D200011F00C0F0FD00168C1F38101022902D12B
:100D30003968490207D50068C0F38100032809D14A
:100D40003868400206D42068800715D5E868012875
:100D50001AD111E0E868C0B10120C9F80000FFF71E
:100D6000D3FD064605E000BFFFF7CEFD801B02283D
:100D7000BAD820688007F7D52068296920F0F800E4
:100D800040EAC10020600FE0F7E0C9F800A0FFF7DB
:100D9000BBFD064605E000BFFFF7B6FD801B02283D
:100DA0001CD820688007F7D42878000727D5DFF8FB
:100DB000D0817548696908F16C0881B10121016031
:100DC000FFF7A2FD064604E0FFF79EFD801B022808
:100DD00004D8D8F800008007F6D510E089E0C0F804
:100DE00000A0FFF791FD064605E000BFFFF78CFD70
:100DF000801B02287DD8D8F800008007F6D4287818
:100E0000400769D55E484FF0000838300068C000E0
:100E10000BD45B483830016841F0805101600068B4
:100E20004FF0010800F080500090584E3068C00527
:100E300011D4306840F480703060FFF765FD009099
:100E400006E000BFFFF760FD0099401A022850D865
:100E50003068C005F6D54A4EA868683601280FD01C
:100E60000528306810D020F001003060306820F094
:100E700004003060A868B8B1FFF746FD00900FE0AD
:100E8000306840F00100F4E740F004003060F7E71C
:100E9000FFF73AFD0099411A41F28830814264D847
:100EA00030688007F4D50EE0FFF72EFD009007E0D4
:100EB000FFF72AFD0099411A41F28830814254D847
:100EC00030688007F4D4B8F1000F05D02C483830D2
:100ED000016821F080510160A869A8B3DBF8001017
:100EE000C1F38101022948D00228C9F860A005D0C9
:100EF00000E03AE0FFF708FD054639E0FFF704FDA2
:100F0000064604E0FFF700FD801B02282DD820686C
:100F10008001F7D4F5E907010843E9681C4A49084C
:100F200002EB0141AA6841EA82110843297C40EAA8
:100F30000160297D40EA017038600120C9F8600035
:100F4000FFF7E2FC054606E015E000BFFFF7DCFC1A
:100F5000401B022809D820688001F7D50BE000BFAC
:100F6000FFF7D2FC401B022802D90320BDE8F88F0E
:100F700020688001F4D40020F8E70120F6E70000A3
:100F80000838024000004742800E4742007000408F
:100F90000000FFFF10B5401EB0F1807F01D301209B
:100FA00010BD4FF0E02460610F21601700F0CFFC0E
:100FB0000020A06107202061002010BD704770470D
:100FC00070B590F83C20012A19D0012400F83C4F5C
:100FD0000222427050F83C3C5A689D6822F070062C
:100FE0000A684968324325F0800529435A6050F861
:100FF0003C2C9160447000210170084670BD0220B5
:1010000070BD10B5040003D094F83D0010B107E0A6
:10101000012010BD002084F83C00204600F00CF8B0
:10102000022084F83D00211D206800F09FFA012075
:1010300084F83D00002010BD08B501681048B1F1EA
:10104000804F14D00F4A914219D1016841F010012C
:1010500001600068002200F0100000901146362068
:10106000FFF7C2FCBDE808403620FFF7AFBC0168BF
:1010700041F001010160006800F00100009008BD2E
:10108000403802400010004070B5044690F83C0023
:10109000012817D0012584F83C50022084F83D0037
:1010A0002068826822F0770222F47F42826008681A
:1010B000502830D00DDC20284DD005DC98B3102806
:1010C0003BD148E0022070BD302844D0402834D1C4
:1010D00039E0602828D0702806D0B0F5805F2CD089
:1010E000B0F5005F29D10AE0CB68D1E90121206881
:1010F00000F0A0FA2068816841F0770109E0CB6830
:10110000D1E90121206800F095FA2068816841F456
:101110008041816011E0CA684968206800F09CFA4B
:101120005021206807E016E0CA684968206800F08E
:10113000A4FA6021206800F087FA84F83D5000206E
:1011400084F83C0070BDCA684968206800F084FAE1
:1011500040212068EFE7226801461046EBE7704720
:1011600070B50446006801694FF00005C94389075E
:1011700015D4C168C943890711D4E91E0161012052
:101180002077206880698007204602D0FFF7E7FFBC
:1011900004E000F098F8204600F096F825772068E3
:1011A0000169C943490717D4C168C943490713D422
:1011B0006FF004010161022020772068806910F43B
:1011C000407F204602D0FFF7CAFF04E000F07BF822
:1011D000204600F079F8257720680169C94309079E
:1011E00016D4C168C943090712D46FF00801016120
:1011F000042020772068C0698007204602D0FFF7CE
:10120000AEFF04E000F05FF8204600F05DF82577BF
:1012100020680169C943C90617D4C168C943C90612
:1012200013D46FF010010161082020772068C06995
:1012300010F4407F204602D0FFF791FF04E000F059
:1012400042F8204600F040F8257720680169C9433C
:10125000C90708D1C168C943C90704D1891E016102
:10126000204600F032F820680169C943090609D414
:10127000C168C943090605D46FF0800101612046A9
:10128000FFF79CFE20680169C943490609D4C1687B
:10129000C943490605D46FF040010161204600F0C2
:1012A00015F820680169C94389060BD4C168C94390
:1012B000890607D46FF0200101612046BDE8704027
:1012C000FFF77DBE70BD704770477047704770B5BF
:1012D000040004D094F83900002510B106E0012084
:1012E00070BD84F83850204600F022F8242084F89D
:1012F00039002068C16821F40051C160204600F027
:10130000CFF92068016921F49041016120684169A9
:1013100021F02A0141612068C16841F40051C16097
:10132000E563202084F8390084F83A00002070BD7D
:1013300010B586B0044614216846FEF797FF13499E
:101340002068884220D11248016841F400310160D0
:10135000006800F4003005900D481038016841F035
:10136000010101600068694600F0010005900C2051
:10137000009002200190012002900320039007209A
:1013800004900448FFF7EEF906B010BD0044004099
:101390004038024000000240FEE7000000B587B080
:1013A00014216846FEF762FF16480021026842F0E9
:1013B00004020260026802F004020592026842F030
:1013C00080020260026802F080020592026842F028
:1013D00001020260026802F001020592026842F016
:1013E00002020260006800F0020005904FF4005015
:1013F00000900548CDE9010169460448FFF7B2F9BC
:1014000007B000BD30380240000021100008024043
:1014100010B586B0002413480094019402940394FC
:1014200004944FF080410594016042F20F71C0E9CD
:10143000011442F2CF01C0E9031480218161FFF75A
:10144000E0FD4FF48050009069460648FFF71CFE0F
:101450002020CDE9040404A90248FFF7B1FD06B03D
:1014600010BD000024000020FEE770477047704761
:10147000FFF750BA30B593B034216846FEF7F6FE58
:1014800014210DA8FEF7F2FE1A480025016841F06C
:1014900080510160006800F0805012901648016889
:1014A00021F4404141F4804101600068022400F4CD
:1014B0004040129001200390102000940694049064
:1014C000CDE907504FF4A87009900420CDE90A0433
:1014D00068460C94FFF7BCFB0DA90F2081E8310092
:1014E000E002CDE9100502210DA8FFF7AFFA13B015
:1014F00030BD0000403802400070004010480168D4
:1015000041F4700101600F48016841F00101016080
:101510000C4A00210832116002680B4B1A4002602D
:10152000031D0A4A1A60026822F4802202600548FC
:101530000C3001600249580680390860704700008D
:1015400088ED00E000380240FFFFF6FE1030002476
:1015500010B50448FEF731FFBDE810400248FFF720
:10156000FFBD00001000002064000020F0B50268FC
:10157000254C264D264E274F274B4FF0804CA0423E
:1015800009D0604507D0A84205D0B04203D0B84288
:1015900001D0984204D122F0700E4A6842EA0E024D
:1015A000A0421BD0604519D0A84217D0B04215D038
:1015B000B84213D0984211D0184DA8420ED0184D01
:1015C000A8420BD0174DA84208D0174DA84205D00D
:1015D000164DA84202D0164DA84203D122F4407500
:1015E000CA682A434D6922F080022A4302608A6851
:1015F000C2620A688262A04201D0984201D10969A0
:10160000016301214161F0BD000001400004004080
:1016100000080040000C0040000401400040014070
:10162000004401400048014000180040001C0040F8
:101630000020004010B5846842EA032224F47F446D
:101640000A432243826010BD826822F070020A437E
:1016500042F007018160704710B5036A046A24F004
:1016600001040462846924F0F00444EA021423F0C3
:101670000A020A438461026210BD10B5036A23F0B6
:10168000100303628369046A23F4704343EA02325D
:1016900024F0A00343EA01118261016210BD000041
:1016A0002DE9F041044600680169E26821F44051E7
:1016B000114301612169A068E2690843616911432E
:1016C00022680843D16849F20C6399430143D16011
:1016D00020684169A26921F4407111434161E269C6
:1016E0006425B2F5004F9748974922684FF03208B9
:1016F0003FD08A4201D082427CD1FFF74FFA00EB03
:10170000C00101EB001061688900B0FBF1F6FFF742
:1017100045FA00EBC00101EB001061688900B0FBE5
:10172000F1F0B0FBF5F06FF01801484306EB8001D3
:1017300008EB0110B0FBF5F000F0F006FFF72EFA11
:1017400000EBC00101EB001061688900B0FBF1F013
:10175000B0FBF5F006EB0016FFF720FA00EBC00136
:1017600001EB001061688900B0FBF1F7FFF716FA92
:10177000D2E08A4201D082423DD1FFF70FFA00EB5E
:10178000C00101EB001061684900B0FBF1F0B0FB53
:10179000F5F00601FFF702FA00EBC00101EB0010C3
:1017A00061684900B0FBF1F7FFF7F8F900EBC00101
:1017B00001EB001061684900B0FBF1F0B0FBF5F0FF
:1017C0006FF01801484307EB800108EBC100B0FB44
:1017D000F5F000F0F80006EB4006FFF7DFF900EB4C
:1017E000C00101EB001061684900B0FBF1F7FFF7A1
:1017F000D5F93CE055E0FFF7C1F900EBC00101EB82
:10180000001061684900B0FBF1F0B0FBF5F0060193
:10181000FFF7B4F900EBC00101EB0010616849006B
:10182000B0FBF1F7FFF7AAF900EBC00101EB0010E4
:1018300061684900B0FBF1F0B0FBF5F06FF0180102
:10184000484307EB800108EBC100B0FBF5F000F066
:10185000F80006EB4006FFF791F900EBC00101EB41
:10186000001061684900B0FBF1F7FFF787F900EB62
:10187000C00101EB001061684900B0FBF1F0B0FB62
:10188000F5F06FF01801484307EB800108EBC10049
:10189000B0FBF5F000F00700216830448860BDE837
:1018A000F081FFF76BF900EBC00101EB00106168FC
:1018B0008900B0FBF1F6FFF761F900EBC00101EB25
:1018C000001061688900B0FBF1F0B0FBF5F06FF03B
:1018D0001801484306EB800108EB0110B0FBF5F05E
:1018E00000F0F006FFF74AF900EBC00101EB001031
:1018F00061688900B0FBF1F0B0FBF5F006EB001673
:10190000FFF73CF900EBC00101EB001061688900B2
:10191000B0FBF1F7FFF732F900EBC00101EB00106B
:1019200061688900B0FBF1F0B0FBF5F06FF01801D1
:10193000484307EB800108EB0110B0FBF5F000F025
:101940000F00A9E70014014000100140FEE709075D
:10195000090E002804DB00F1E02080F80014704735
:1019600000F00F0000F1E02080F8141D704702E045
:1019700008C8121F08C1002AFAD17047704700201A
:1019800001E001C1121F002AFBD170471CB5FEF710
:10199000C9FFFFF76FFDFFF701FD24480024016830
:1019A00041F4001101600068224600F4001000902C
:1019B00021461020FFF718F81020FFF707F81D49FF
:1019C00000941B48019408600846FEF724FD24207B
:1019D000CDE90004002269461648FEF7CCFC154804
:1019E0000094543014490194C0E900148460C46028
:1019F0008461FFF706FB0F48009469465430019458
:101A0000FFF7DEFA0B480D49943001604FF4E131E5
:101A1000C0E901140C21C460C0E904418461C461BF
:101A2000FFF755FCFFF7F4FCFEE7000030380240FA
:101A300000740040100000200010004000440040EE
:101A4000000610160006101600000000000000003E
:101A50000102030406070809000000000102030454
:101A6000801A000800000020100000006E19000815
:101A7000901A000810000020380500007E190008A8
:101A80000100000010000000000000000024F4002D
:04000005080001C529
:00000001FF
