:020000040800F2
:1000000008050020D9010008F31600088F15000824
:10001000F11600089D0400080B19000800000000FC
:10002000000000000000000000000000F7160008BB
:100030005105000800000000F5160008F916000838
:10004000F3010008F3010008F3010008F3010008C0
:10005000F3010008F3010008F3010008F3010008B0
:10006000F3010008F3010008F3010008F3010008A0
:10007000F3010008F3010008F3010008F301000890
:10008000F3010008F3010008F3010008F301000880
:10009000F3010008F3010008F3010008F301000870
:1000A000F3010008F3010008F3010008F301000860
:1000B000F3010008F3010008F3010008F301000850
:1000C000F3010008F3010008F3010008F301000840
:1000D000F3010008F3010008F3010008F301000830
:1000E000F3010008F3010008F3010008F301000820
:1000F000F3010008F3010008F3010008F301000810
:10010000F3010008F3010008F3010008F3010008FF
:10011000F3010008F3010008F3010008F3010008EF
:10012000A1040008F3010008F3010008F30100082E
:10013000F30100080000000000000000F3010008C7
:10014000F3010008F3010008F3010008F3010008BF
:10015000F3010008F3010008F3010008F3010008AF
:10016000F3010008F3010008F3010008F30100089F
:10017000F3010008F3010008F3010008000000008B
:1001800000000000F3010008000000000000000073
:10019000F30100080000000000000000F301000867
:1001A000000000000000000000000000F301000853
:1001B000F3010008F3010008F3010008F30100084F
:1001C000F3010008DFF80CD000F07AF8004800478F
:1001D0004D190008080500200648804706480047DA
:1001E000FEE7FEE7FEE7FEE7FEE7FEE7FEE7FEE7E7
:1001F000FEE7FEE785170008C50100082DE9F05F5E
:100200000546002092469B46884606468146402485
:100210001BE0284641464746224600F041F8534637
:100220005A46C01A914110D311461846224600F092
:1002300028F82D1A67EB01084F46224601200021BD
:1002400000F01FF817EB00094E41201EA4F1010435
:10025000DFDC484631462A464346BDE8F09FD2B22D
:1002600001E000F8012B491EFBD270470022F6E79F
:1002700010B513460A4604461946FFF7F0FF20461C
:1002800010BD202A04DB203A00FA02F1002070475A
:100290009140C2F1200320FA03F3194390407047C4
:1002A000202A04DB203A21FA02F00021704721FACB
:1002B00002F3D040C2F12002914008431946704732
:1002C000064C074D06E0E06840F0010394E80700A3
:1002D00098471034AC42F6D3FFF778FFB419000802
:1002E000D419000810B50146806B026C12F0500F53
:1002F00005D0026CD20626D500F0E7F910BD016CDE
:1003000041F40071016401688A6812F0405F17D1FE
:10031000027EAAB9CA6A12F4700F02D08A68520526
:100320000ED44A6822F020024A60016C21F48071E8
:100330000164016CC90403D4016C41F00101016442
:1003400000F0BAF910BD806BC26CBDE810400846E1
:10035000104710B5806B40210164416C41F00401ED
:10036000416400F0B2F910BD10B5806B00F0ACF93B
:1003700010BD0000464910B54A6822F440324A6078
:100380004A6843681A434A6001684A6822F48072E6
:100390004A6001684A68036942EA03224A600168C8
:1003A0004A6822F040724A6001684A6883681A43CA
:1003B0004A6001688A6822F400628A6001688A687B
:1003C000C3681A438A60816A6FF07062D142016823
:1003D0008A6822F070628A6001688A680CD0836A39
:1003E0001A438A6001688A6822F040528A60016874
:1003F0008A68C36A1A4301E022F040528A600168A9
:100400008A6822F002028A6001688A68037E42EAF2
:1004100043028A6090F82010002901684A680FD0D2
:1004200042F400624A6001684A6822F460424A600D
:1004300001684A68174C436A04EB43331A4301E0EE
:1004400022F400624A600168CA6A22F47002CA6239
:100450000168CA6A838B104C04EB03531A43CA62C7
:1004600001688A6822F400728A6001688A6890F8DC
:10047000303042EA43228A6001688A6822F480624E
:100480008A6001688A68406942EA8020886010BDFD
:100490000023014000E0FFFF0000F0FFFEE7000046
:1004A000014800F031BA0000A400002001681823C0
:1004B000CAB2103AB2FBF3F2054B6FF30901032AFB
:1004C0009B5CC36500D9091D816508467047000023
:1004D0009C19000810B5014600208B698A6A4FF00C
:1004E000C07453B1B3F5005F15D072B1012A0CD0BE
:1004F000022A0AD0032A09D104E01AB1012A06D03F
:10050000022A03D1C96AC90100D5012010BDC96AF8
:10051000A142FAD010BD002AF7D0012AF2D0022A57
:10052000F3D0032AF3D010BD30B50468256825F454
:1005300080252560046863608368402B036803D0CE
:1005400099600068C26030BD9A600068C16030BDCB
:100550007047704778B50024009490F83C20012A39
:1005600019D0012280F83C200A6807230568092A6F
:1005700013D9EE680A3A02EB420293409E43EE60C2
:100580000B788A680A3B03EB43039A400368DD68F3
:100590002A43DA6010E0022078BD2E6902EB4202A5
:1005A00093409E432E610B788A6803EB43039A4085
:1005B00003681D692A431A614A681F23072A13D258
:1005C00005686E6B521E02EB820293409E436E637F
:1005D0000A8893B20A79521E02EB820293400268A3
:1005E000556B2B43536327E005680D2A12D22E6BFF
:1005F000D21F02EB820293409E432E630B790A883E
:10060000DB1F92B203EB83039A4003681D6B2A43FE
:100610001A6311E0EE6A0D3A02EB820293409E43A8
:10062000EE620B790A880D3B92B203EB83039A408A
:100630000368DD6A2A43DA621B4B0568194A9D424A
:100640000AD10D68122D07D1556825F400055560B3
:10065000556845F48005556005689D421DD1134DD0
:100660000B68AB4201D0112B17D1536823F48003E0
:100670005360536843F4000353600968A9420CD1E6
:100680000B490C4A0968B1FBF2F101EB8101490009
:1006900000E0491E00910029FBD180F83C40002079
:1006A00078BD00000023014000200140120000102E
:1006B0000C00002040420F0001224021014800F0C0
:1006C0006BBB0000001402407047704770B5040017
:1006D0004FF0000503D0206C002610B107E0012088
:1006E00070BD204600F01CF8666484F83C60206C05
:1006F000C00610D4206C20F4885040F00200206422
:100700002046FFF737FE6664206C20F0020040F0C0
:100710000100206400E0012584F83C60284670BD9B
:1007200070B586B0064614216846FFF79FFD244940
:100730003068884242D123480025016841F4807125
:10074000016000681F4900F4807014390590086842
:1007500040F004000860086800F004000590086894
:1007600040F0010008600868032400F001000094D4
:10077000059069461448CDE9014500F03BFA022096
:100780008DE831006946114800F034FA114C1048E8
:10079000C4E900050015A560C4E90350800060614C
:1007A0008000A0618011C4E907052046656200F061
:1007B0007BF908B1FFF7CDFEB463A66306B070BD48
:1007C000002001404438024000080240000002407E
:1007D00010640240A4000020F8B50E460021044633
:1007E000009190F83C00012807D0012084F83C00DB
:1007F00020688368DB0702D011E00220F8BD83681F
:1008000043F0010383603748374B0068B0FBF3F0D7
:1008100000EB400000E0401E00900028FBD1206863
:100820008368DB075CD0236C40F20165AB4343F483
:10083000807323644068400505D5206C20F4005087
:1008400040F480502064206CC00404D5606C20F01B
:100850000600606400E0616484F83C10A16B2448E9
:10086000224DC863A16B23480864A16B2248C86469
:1008700021686FF0220008602068416841F08061C3
:1008800041602068816841F480718160216813466D
:1008900032464C31A06B00F071F968681749C00608
:1008A000206806D088421BD1816811F0405F13D0C8
:1008B00016E08842F8D0124A904203D1D1F80423BE
:1008C000D206F1D00F4A90420AD1D1F8041301F0B8
:1008D0001F011029E8D303E0816841F08041816065
:1008E0000020F8BD0C00002040420F000023014012
:1008F000E5020008690300085303000800200140D6
:1009000000210140002201402DE9F84304464FF048
:100910000009CDF8009063484FF41651A56D0068AA
:10092000B0FBF1F72E6894F85C10082000FA01F192
:1009300031420FD021680A6852070BD50A6822F0AD
:1009400004020A6094F85C108840A860606D40F072
:100950000100606594F85C104FF0010808FA01F09E
:10096000304208D021684969090604D5A860606D45
:1009700040F00200606594F85C100420884030422A
:1009800008D021680968890704D5A860606D40F027
:100990000400606594F85C1010208840304218D044
:1009A00021680968090714D5A8602068016849030F
:1009B00004D50068000308D5A16C07E00168C905EB
:1009C00003D4016821F008010160216C09B12046BF
:1009D000884794F85C1020208840304231D021684C
:1009E0000968C9062DD5A86094F835000528206847
:1009F000016806D0490347D5006800031DD4616C27
:100A00001CE021F0160101602068416921F080019D
:100A10004161206C08B9A06C20B12068016821F008
:100A20000801016094F85C103F208840A86084F8B9
:100A3000349084F83580216D1FE0E16B09B12046C8
:100A40008847606D00282BD0606DC00714D005204A
:100A500084F835002068016821F0010101600098E8
:100A6000401C0090B84203D820680068C007F6D147
:100A700084F8349084F83580E16C002910D001B0FE
:100A80002046BDE8F04308470168C905D5D4016890
:100A900021F01001016084F8349084F83580CCE7AF
:100AA000BDE8F8830C0000202DE9F041044600F079
:100AB00079F906465CB1002584F83450022084F8A8
:100AC00035002068016821F0010101600DE001207E
:100AD000BDE8F08100F066F9801B052805D92020CB
:100AE0006065032084F83500F2E720680068C007DD
:100AF000F0D12268116820480140D4E9010318436D
:100B0000D4E903363343184363691843A369184390
:100B1000E3691843236A18430843616A042903D12F
:100B2000D4E90B1319430843106020684069666AD2
:100B300020F0070130460E43012704280CD1A06A9B
:100B40000643E06A40B12046FFF7C4FC20B14020D4
:100B5000606584F83570BAE7206846612046FFF783
:100B6000A5FC94F85C203F2191408160656584F884
:100B700035700020ACE700003F8010F02DE9F04117
:100B80000446866D90F83400002501280DD0012020
:100B900084F8340094F835700020012F07D084F8D1
:100BA000340002252846BDE8F0810220FBE7022739
:100BB00084F8357060652046FFF7B6FC94F85C1049
:100BC0003F208840B0602068016841F01601016054
:100BD0002068416941F080014161206C20B12068AA
:100BE000016841F0080101602068016841F00101DD
:100BF0000160D7E72DE9F84FDFF874B100224FF01C
:100C000001084FF0030A4FF00F090BF1040E00BF6B
:100C10000B6808FA02F42340A3426ED14D68022DFE
:100C200001D0122D0ED1D50800EB850CDCF8205038
:100C30005607F70E09FA07F6B5430E69BE402E4374
:100C4000CCF82060066855000F790AFA05FC07F019
:100C5000030726EA0C06AF40374307604E68012EB3
:100C600005D0022E03D0112E01D0122E0ED186688F
:100C7000CF6826EA0C06AF40374387604668A64334
:100C80000C79C4F30014944034434460C4688E6803
:100C900024EA0C04AE402643C6604C68E40060D5EC
:100CA000344C256845F480452560246822F003050E
:100CB00004F480440094304C2E19D6F80848950767
:100CC0002F0F09FA07F5AC432C4DA84201D100259E
:100CD0001FE02B4DA84201D101251AE0294DA84261
:100CE00001D1022515E0284DA84201D1032510E0CD
:100CF000264DA84202D104250BE032E0244DA84243
:100D000001D1052505E0234DA84201D1062500E0CB
:100D10000725BD402543C6F80858DBF800405D466E
:100D20004E689C43F60300D51C432C60DEF800405F
:100D300075464E689C43B60300D51C432C600C4D91
:100D400008352C684E689C43F60200D51C432C6085
:100D5000074D0C352C684E689C43B60200D51C43E9
:100D60002C60521C102AFFF453AFBDE8F88F00002E
:100D7000003C014044380240003001400000024085
:100D80000004024000080240000C02400010024033
:100D900000140240001802400AB181617047090442
:100DA000FBE7000001488068704700000000002059
:100DB0000248816802781144816070470000002079
:100DC0000B4810B5016841F400710160016841F4FD
:100DD00080610160016841F480710160032000F0CE
:100DE00071F8002000F006F800F024F8002010BD93
:100DF000003C024070B50D4D04464FF47A712878DE
:100E0000B1FBF0F00A490968B1FBF0F000F0F0FA2C
:100E100048B9102C07D200222146501E00F032F8AB
:100E200000206C6070BD012070BD0000000000203B
:100E30000C0000200B4882B0016841F48041016041
:100E4000006800F4804000900648001F016841F0EF
:100E500080510160006800F080500090072002B0CF
:100E600000F030B844380240002809DB00F01F02CF
:100E7000012191404009800000F1E020C0F80011FC
:100E800070470000F0B40E4B1B680C46C3F30223FE
:100E9000C3F10705042D00D90425191D072901D226
:100EA000002300E0DB1E012606FA05F1491E214061
:100EB00099409E40761E16403143F0BC00F026BD9E
:100EC0000CED00E0064900F0070208684FF6FF034A
:100ED000184040EA0220034A1043086070470000AF
:100EE0000CED00E00000FA052DE9F0470E46050084
:100EF00065D0DFF81481D8F80000F7B200F00F00D9
:100F0000B04207D288F80070D8F8000000F00F0057
:100F1000B04254D128683D4C810712D5400703D513
:100F2000206840F4E05020602878000703D520684E
:100F300040F4604020602068A96820F0F000084379
:100F400020602878C0072DD030496868083901280A
:100F500012D0022813D0032811D00968890700296C
:100F60002DDA216821F0030101432160FFF71AFF08
:100F7000814641F2883A0EE009688903EFE7096883
:100F80008901ECE7FFF70EFFA0EB0901514502D9FB
:100F90000320BDE8F0872068696800F00C00B0EB22
:100FA000810FEFD1D8F80010404601F00F01B14297
:100FB00007D90770006800F00F00B04201D001208F
:100FC000E7E72878400705D52068E96820F4E05075
:100FD000084320602878000706D52068296920F496
:100FE000604040EAC100206000F016F82168084A1D
:100FF000C1F30311515CC840064908600020FFF7A7
:10100000F9FE0020C5E70000003C0240083802401D
:10101000A41900080C000020224810B5006810F048
:101020000C02214815D04110042A11D01D4C241F58
:10103000082A0FD00C2A0CD12268236802F03F0244
:101040005B0221D52068C0F38810A0FB010120E0DD
:10105000084610BD2268236802F03F025B0205D5F6
:101060002068C0F38810A0FB010104E02168C1F3EF
:101070008811A1FB00010023FFF7C0F82168C1F32C
:101080000141491C49000AE02168C1F38811A1FB14
:1010900000010023FFF7B2F82168C1F30271B0FB31
:1010A000F1F010BD083802400024F4002DE9F84F9B
:1010B0000546DFF828B30078ABF10407C007A7F1B5
:1010C000040451D0DBF800105846C1F38101012916
:1010D0000FD00168C1F38101022902D139684902A8
:1010E00007D40068C0F38100032809D138684002A2
:1010F00006D52068800337D56868002872D033E0B1
:101100006868B0F5803F10D0B0F5A02F206810D0EF
:1011100020F480302060206820F4802020606868FF
:10112000A8B1FFF73FFE06460DE0206840F480308E
:10113000F4E740F480202060F7E700BFFFF732FEBD
:10114000801B642878D820688003F7D50CE0FFF76F
:1011500029FE064605E000BFFFF724FE801B642839
:10116000F0D820688003F7D42878DFF874928007DD
:101170004FF0000A46D5DBF80010584611F00C0F6E
:101180000FD00168C1F38101022902D139684902F7
:1011900007D50068C0F38100032809D138684002F0
:1011A00006D42068800715D5E86801281AD111E017
:1011B000E868C0B10120C9F80000FFF7F3FD06465A
:1011C00005E000BFFFF7EEFD801B0228BAD82068BB
:1011D0008007F7D52068296920F0F80040EAC100AF
:1011E00020600FE0F7E0C9F800A0FFF7DBFD06463E
:1011F00005E000BFFFF7D6FD801B02281CD8206841
:101200008007F7D42878000727D5DFF8D081754804
:10121000696908F16C0881B101210160FFF7C2FD25
:10122000064604E0FFF7BEFD801B022804D8D8F86C
:1012300000008007F6D510E089E0C0F800A0FFF7B5
:10124000B1FD064605E000BFFFF7ACFD801B02289C
:101250007DD8D8F800008007F6D42878400769D5F3
:101260005E484FF0000838300068C0000BD45B487F
:101270003830016841F08051016000684FF001088A
:1012800000F080500090584E3068C00511D430688E
:1012900040F480703060FFF785FD009006E000BFED
:1012A000FFF780FD0099401A022850D83068C00529
:1012B000F6D54A4EA868683601280FD00528306850
:1012C00010D020F001003060306820F00400306061
:1012D000A868B8B1FFF766FD00900FE0306840F0F5
:1012E0000100F4E740F004003060F7E7FFF75AFD33
:1012F0000099411A41F28830814264D830688007F1
:10130000F4D50EE0FFF74EFD009007E0FFF74AFD31
:101310000099411A41F28830814254D830688007E0
:10132000F4D4B8F1000F05D02C483830016821F012
:1013300080510160A869A8B3DBF80010C1F38101F6
:10134000022948D00228C9F860A005D000E03AE0A0
:10135000FFF728FD054639E0FFF724FD064604E0C7
:10136000FFF720FD801B02282DD820688001F7D4CC
:10137000F5E907010843E9681C4A490802EB014105
:10138000AA6841EA82110843297C40EA0160297D6C
:1013900040EA017038600120C9F86000FFF702FDE3
:1013A000054606E015E000BFFFF7FCFC401B0228E5
:1013B00009D820688001F7D50BE000BFFFF7F2FCE9
:1013C000401B022802D90320BDE8F88F2068800165
:1013D000F4D40020F8E70120F6E7000008380240C6
:1013E00000004742800E4742007000400000FFFFAF
:1013F00010B5401EB0F1807F01D3012010BD4FF029
:10140000E02460610F21601700F080FA0020A061E5
:1014100007202061002010BD70B590F83C20012A03
:1014200019D0012400F83C4F0222427050F83C3C95
:101430005A689D6822F070060A684968324325F0B0
:10144000800529435A6050F83C2C9160447000217B
:101450000170084670BD022070BD10B5040003D0B5
:1014600094F83D0010B107E0012010BD002084F881
:101470003C00204600F00CF8022084F83D00211DBD
:10148000206800F0A9F9012084F83D00002010BD7B
:1014900008B500680649884208D10648016841F04D
:1014A00002010160006800F00200009008BD000029
:1014B000000400404038024070B5044690F83C00FB
:1014C000012817D0012584F83C50022084F83D0003
:1014D0002068826822F0770222F47F4282600868E6
:1014E000502830D00DDC20284DD005DC98B31028D2
:1014F0003BD148E0022070BD302844D0402834D190
:1015000039E0602828D0702806D0B0F5805F2CD054
:10151000B0F5005F29D10AE0CB68D1E9012120684C
:1015200000F0BEF92068816841F0770109E0CB68DE
:10153000D1E90121206800F0B3F92068816841F405
:101540008041816011E0CA684968206800F0BAF9FA
:101550005021206807E016E0CA684968206800F05A
:10156000C2F96021206800F0A5F984F83D50002000
:1015700084F83C0070BDCA684968206800F0A2F990
:1015800040212068EFE7226801461046EBE7FEE7BE
:101590007FB50024194800940194029416490394DD
:1015A000016001254FF480310561C0E90114057621
:1015B00080F820401249C0E90A140326C661C460BD
:1015C00080F830504561FFF781F80095CDE901546E
:1015D00069460A48FEF7BEFF0A20009002200190EB
:1015E00069460648FEF7B6FF0B20CDE900066946BE
:1015F0000248FEF7AFFF7FBD002001401C00002025
:101600000100000F30B587B014216846FEF72EFEAA
:101610001E480024016841F004010160016801F0E6
:1016200004010591016841F080010160016801F049
:1016300080010591016841F001010160016801F03C
:1016400001010591016841F0020101600068104D3F
:1016500000F002000590002220212846FFF79CFBA5
:101660004FF4005000900B48CDE9010469460A4848
:10167000FFF7C0FA202000900120CDE9010469465F
:1016800028460394FFF7B6FA07B030BD3038024061
:1016900000000240000021100008024010B586B092
:1016A00000241248009401940294039404940E4977
:1016B00005940160C721C0E90114C4608021046160
:1016C0008161FFF7CAFE4FF48050009069460748D9
:1016D000FFF7F2FE2020CDE9040404A90348FFF738
:1016E0009BFE06B010BD0000000400406400002016
:1016F000FEE7704770477047FFF75ABB30B593B0AD
:1017000034216846FEF7B2FD14210DA8FEF7AEFDA8
:101710001A480025016841F080510160006800F01E
:10172000805012901648016821F4404141F48041F4
:1017300001600068022400F44040129001200390F0
:101740001020009406940490CDE907504FF4A8703F
:1017500009900420CDE90A0468460C94FFF7A6FC22
:101760000DA90F2081E83100E002CDE9100502212A
:101770000DA8FFF7B9FB13B030BD000040380240A0
:10178000007000401048016841F4700101600F488A
:10179000016841F0010101600C4A0021083211602A
:1017A00002680B4B1A400260031D0A4A1A60026865
:1017B00022F48022026005480C300160024958067C
:1017C000803908607047000088ED00E00038024072
:1017D000FFFFF6FE10300024F0B50268254C264DC0
:1017E000264E274F274B4FF0804CA04209D0604532
:1017F00007D0A84205D0B04203D0B84201D09842E9
:1018000004D122F0700E4A6842EA0E02A0421BD0B8
:10181000604519D0A84217D0B04215D0B84213D0B5
:10182000984211D0184DA8420ED0184DA8420BD0A6
:10183000174DA84208D0174DA84205D0164DA84212
:1018400002D0164DA84203D122F44075CA682A433B
:101850004D6922F080022A4302608A68C2620A68E7
:101860008262A04201D0984201D10969016301213D
:101870004161F0BD0000014000040040000800404C
:10188000000C0040000401400040014000440140C1
:101890000048014000180040001C004000200040AB
:1018A00010B5846842EA032224F47F440A432243A9
:1018B000826010BD826822F070020A4342F0070184
:1018C0008160704710B5036A046A24F00104046261
:1018D000846924F0F00444EA021423F00A020A4363
:1018E0008461026210BD10B5036A23F01003036225
:1018F0008369046A23F4704343EA023224F0A003AC
:1019000043EA01118261016210BDFEE70907090E79
:10191000002804DB00F1E02080F80014704700F09C
:101920000F0000F1E02080F8141D704702E008C8A5
:10193000121F08C1002AFAD170477047002001E049
:1019400001C1121F002AFBD17047000008B5FFF744
:1019500037FAFFF7D3FEFFF755FE0E48016841F452
:10196000800101600068002200F4800000901146B0
:101970003820FFF787FA3820FFF776FAFFF708FEDE
:10198000FFF78CFE0449032201F10C00FEF724FF4F
:10199000FEE700003038024010000020000610165C
:1019A0000006101600000000000000000102030401
:1019B00006070809D41900080000002010000000E4
:1019C0002C190008E419000810000020F804000099
:1019D0003C19000801000000100000000000000099
:0419E0000024F400EB
:04000005080001C529
:00000001FF
