:020000040800F2
:10000000A8040020D90100084D110008491100087A
:100010004B110008E5020008ED1400080000000084
:100020000000000000000000000000005111000866
:10003000E7020008000000004F11000853110008FB
:10004000F3010008F3010008F3010008F3010008C0
:10005000F3010008F3010008F3010008F3010008B0
:10006000F3010008F3010008F3010008F3010008A0
:10007000F3010008F3010008F3010008F301000890
:10008000F3010008F3010008F3010008F301000880
:10009000F3010008F3010008F3010008F301000870
:1000A000F3010008F3010008F3010008F301000860
:1000B000F3010008F3010008F3010008F301000850
:1000C000F3010008F3010008F3010008F301000840
:1000D000F3010008F3010008F3010008F301000830
:1000E000F3010008F3010008F3010008F301000820
:1000F000F3010008F3010008F3010008F301000810
:10010000F3010008F3010008F3010008F3010008FF
:10011000F3010008F30100082D120008F3010008A4
:10012000F3010008F3010008F3010008F3010008DF
:10013000F30100080000000000000000F3010008C7
:10014000F3010008F3010008F3010008F3010008BF
:10015000F3010008F3010008F3010008F3010008AF
:10016000F3010008F3010008F3010008F30100089F
:10017000F3010008F3010008F3010008000000008B
:1001800000000000F3010008000000000000000073
:10019000F30100080000000000000000F301000867
:1001A000000000000000000000000000F301000853
:1001B000F3010008F3010008F3010008F30100084F
:1001C000F3010008DFF80CD000F07AF8004800478F
:1001D00015150008A8040020064880470648004777
:1001E000FEE7FEE7FEE7FEE7FEE7FEE7FEE7FEE7E7
:1001F000FEE7FEE7E1110008C50100082DE9F05F08
:100200000546002092469B46884606468146402485
:100210001BE0284641464746224600F041F8534637
:100220005A46C01A914110D311461846224600F092
:1002300028F82D1A67EB01084F46224601200021BD
:1002400000F01FF817EB00094E41201EA4F1010435
:10025000DFDC484631462A464346BDE8F09FD2B22D
:1002600001E000F8012B491EFBD270470022F6E79F
:1002700010B513460A4604461946FFF7F0FF20461C
:1002800010BD202A04DB203A00FA02F1002070475A
:100290009140C2F1200320FA03F3194390407047C4
:1002A000202A04DB203A21FA02F00021704721FACB
:1002B00002F3D040C2F12002914008431946704732
:1002C000064C074D06E0E06840F0010394E80700A3
:1002D00098471034AC42F6D3FFF778FFB416000805
:1002E000D4160008FEE77047704790F805C0022357
:1002F000BCF1010F13D0037142F080024FF47C6314
:1003000002FA01FC03FA01F103681A6822EA01010A
:1003100041EA0C0119600023012143710171184663
:10032000704790F805C00223BCF1010F21D080B5C1
:10033000037140F6FE73D0F800E003FA02FCDEF829
:10034000003023EA0C0CD1E900311943002391401D
:1003500041EA0C01CEF80010C0219140DEF80020E7
:1003600022EA0101CEF80010012143710171BDE8BC
:10037000804018467047704758B110B504460220B7
:100380002071204600F04EF800202061607120713D
:1003900010BD012070473022002908BF2C220068C0
:1003A0008058704710B504460068416B890410D529
:1003B00004212171216941F0010121614FF40051B3
:1003C0004163016821F4805101602046FFF7D3FFAB
:1003D0002068416B890058BF10BD0421217121693B
:1003E00041F0020121614FF000514163016821F0A9
:1003F000805101602046BDE81040FFF775BF78B11D
:1004000010B50446007920B900206071204600F044
:100410001BF802200121207100202061217110BDF4
:100420000120704701682348814218BF7047054981
:1004300000F5C6300A6822F000520A60202100F060
:100440007FB800BF4038024010B586B0044601A80E
:100450001421FFF70BFF21681648814227D10021A4
:10046000154A00F5C6300091136943F0005313613B
:10047000136903F000530093009B0091136843F04D
:1004800001031360126802F001020092009A0391C6
:10049000032102912021019101A900F0BDF836202D
:1004A0000021002200F0F0F9362000F0DFF906B05C
:1004B00010BD00BF007400403038024081B04FF0E2
:1004C000000C0029CDF800C000680090009810448E
:1004D00014BF14300830009000980360002001B071
:1004E000704743790222012B27D002710122002993
:1004F000427102FA01FC0268136843EA0C031360BC
:1005000013680BD011685B0313D501F46011B1F5CA
:10051000601F0ED1516841F0020109E011685B07CC
:1005200007D501F03801382903D1516841F00101A4
:100530005160002201214271017110467047000094
:100540002DE9F04F914A4FF0070A4FF000094FF0A4
:10055000010C4FF00008002790428D4A08BF4FF071
:10056000060A02444FEAB223062B38BF4FEAB22AEA
:10057000884AA2F57E7B102F08BFBDE8F08F0CFAE9
:1005800007F20A4242D0BC0809F00C0E0F235BF8B8
:1005900024C003FA0EF60AFA0EF30CEA06059D4291
:1005A00014D15BF82430B3434BF82430794B1E460A
:1005B0001B6893433360736893437360B3689343DA
:1005C000B360754B1E461B68934333600323066874
:1005D0000F25D2434FF0010C03FA08F39E43066047
:1005E00009F01C0605FA06F66FF0030505EA570543
:1005F00005442C6A24EA06062E6286689E438660BD
:10060000466832404260C2689A43C26009F10409F8
:1006100008F102080137AEE72DE9F84F5B4A4FF0C9
:10062000070A4FF0010B4FF000084FF0000E904208
:10063000574A08BF4FF0060A02444FEAB223062B7E
:1006400038BF4FEAB22A0022102A08BFBDE8F88F4F
:100650000B680BFA02F6334200F091804B6843F0CE
:100660001004122C13D16FF003040EF01C030F279B
:1006700004EA520507FA03FC05442C6A24EA0C0C30
:100680000C6904FA03F343EA0C032B624B6803275B
:1006900003F00305122B07FA08F4076805FA08F5BA
:1006A0006FEA040C27EA040747EA0507076013D836
:1006B0000BFA03F414F0061F0ED08468CD6804EA28
:1006C0000C0405FA08F52C438460C3F30014456854
:1006D0009440B5432C434460C4688D68DB0004EA51
:1006E0000C0705FA08F547EA0507C76047D5002358
:1006F000284C0EF00C050093284BA4461F461B689F
:1007000043F480433B603B6803F48043009322F052
:1007100003032344224C009FA1461F590F24AC40E1
:100720000AFA05F5A7432F4343F80970DCF80030B7
:100730004D6843EA0607EC0358BF23EA0607CCF8E6
:100740000070AC03DCF8043043EA060758BF23EA24
:100750000607CCF80470EC02DCF8083043EA060720
:1007600058BF23EA06070C4BCCF80870AD021C46B4
:100770001B6843EA060758BF23EA0607276008F10B
:1007800002080EF1040E01325EE700BF00180240BD
:100790000000FEBF003C01400C3C014044380240D8
:1007A00008FCFFFF05480068704700BF1F48034969
:1007B00000780A6810440860704700BFA400002059
:1007C00080B50B48016841F400710160016841F493
:1007D00080610160016841F480710160032000F0D4
:1007E00071F8002000F006F800F022F8002080BD2B
:1007F000003C024070B50D4E04464FF47A713078DB
:10080000B1FBF0F089490968B1FBF0F000F0DAFAC9
:1008100001250F2C08D838B94FF0FF3021460022AF
:10082000002500F031F87460284670BD00000020FB
:1008300082B000200C4901904A6842F480424A602C
:100840004A6802F480420192019A0090086840F0E0
:1008500080500860086800F08050009000980720E1
:1008600002B000F02FB800BF40380240002808DB7B
:1008700000F01F010122400902FA01F1014A42F889
:100880002010704700E100E080B5144B1B68C3F3F3
:10089000022CBCF1030E8CF007034FF0FF3C38BF75
:1008A0004FF0000E042B28BF04230CFA03F39943E6
:1008B0000CFA0EF301FA0EF19A431143BDE88040A1
:1008C00000F016BE05494FF6FF030A681A4060F3B0
:1008D0000A22034810430860704700BF0CED00E097
:1008E0000000FA052DE9F041002800F08380434B19
:1008F00004468846D3F8000400F00F00884207D26F
:1009000083F80084D3F8000400F00F00404571D153
:100910002068810711D5410742BF996841F4E05131
:100920009960010742BF996841F4604199609968F4
:10093000A26821F0F00111439960C0072AD06068D5
:10094000811E022903D21968890109D452E00128C5
:1009500003D11968890303D44CE01968890749D584
:1009600099681D4621F0030108439860FFF71AFFBC
:10097000064641F28837A86861682B4600F00C00F3
:10098000B0EB810F06D0FFF70DFF801BB842F2D904
:10099000032430E0D3F8000400F00F00404507D9ED
:1009A00083F80084D3F8000400F00F00404521D103
:1009B0002068410705D59968E26821F4E0511143A8
:1009C0009960000706D59868216920F4604040EAE4
:1009D000C10098601C4600F02FF8A168084A002466
:1009E000C1F30311515CC840104908600020FFF7B3
:1009F00001FF00E001242046BDE8F08100380240FC
:100A00009A16000809480A490A4A00680968C1F3A9
:100A10008221515CC840704704480549054A006876
:100A20000968C1F34231515CC8407047080000209A
:100A300008380240AA16000810B5204C6068C0F3C0
:100A400081011F48032915D0022904D0012904BFC0
:100A50001C4810BD10BD2168236801F03F022168C9
:100A60005B02C1F3881114D4A1FB00010023FFF73E
:100A7000C5FB12E02168236801F03F0221685B0298
:100A8000C1F3881110D4A1FB00010023FFF7B6FBCE
:100A90000EE00C484843B0FBF2F021680222C1F39B
:100AA000014102EB410106E006484843B0FBF2F089
:100AB0002168C1F30271B0FBF1F010BD04380240AF
:100AC0000024F40000127A002DE9FC41044600786D
:100AD000B94EC00737D0B06800F00C0004282BD006
:100AE000B06800F00C00082802D17068400223D4DE
:100AF000B06800F00C000C2802D1706840021BD4D2
:100B00006768B7F5803F07D03068B7F5A02F40F091
:100B1000138140F480203060306840F480303060D1
:100B2000FFF740FE0546306880030CD4FFF73AFE1D
:100B3000401B6428F7D9A6E03068800303D56068BD
:100B4000002800F0DA802078800734D5B06810F0F3
:100B50000C0F0FD0B06800F00C00082802D17068AC
:100B6000400207D5B06800F00C000C2809D170686D
:100B7000400206D43068800716D5E068012813D0FB
:100B8000BBE0E068002800F080808C480121016013
:100B9000FFF708FE05463068800705D4FFF702FE20
:100BA000401B0228F7D96EE03068216920F0F80078
:100BB00040EAC10030602078000721D5606978B133
:100BC0007E480121C0F8801EFFF7ECFD0546706FDE
:100BD000800715D4FFF7E6FD401B0228F7D952E045
:100BE00076480021C0F8801EFFF7DCFD0546706FD7
:100BF000800705D5FFF7D6FD401B0228F7D942E054
:100C00002078400771D5306C4FF00008C0000CD43C
:100C1000CDF804804FF00108306C40F08050306413
:100C2000306C00F0805001900198654F3868C00525
:100C30000FD4386840F480703860FFF7B3FD054684
:100C40003868C00505D4FFF7ADFD401B0228F7D971
:100C500019E0A768012F05D0306F052F26D140F08D
:100C600004003067306F40F001003067FFF79AFDF5
:100C7000054641F28837306F80072FD4FFF792FD89
:100C8000401BB842F7D9032092E04C480021016094
:100C9000FFF788FD0546306880077FF58CAFFFF7CA
:100CA00081FD411B03200229F5D981E020F00100DC
:100CB0003067306F20F004003067FFF773FD0546A2
:100CC000002FD6D141F28837306F800706D5FFF765
:100CD00069FD411B0320B942F6D969E0B8F1000F64
:100CE0001EBF306C20F080503064A769002F5ED0AA
:100CF000B06800F00C00082801D1012058E02F490D
:100D0000002088460866FFF74DFD0546022F09D1F1
:100D10003068800128D5FFF745FD411B03200229DB
:100D2000F6D945E03068800141D5FFF73BFD411B16
:100D300003200329F6D33BE020F480303060306894
:100D400020F480203060FFF72DFD0546002F7FF452
:100D5000EAAE306880037FF5F6AEFFF723FD411B56
:100D600003206429F5D923E004F11C078FCF256BFC
:100D70000843D90340EA82104FF6FF72914340EADC
:100D80000760A1F58031084340EA057070600120DA
:100D9000C8F86000FFF706FD04463068800106D4FD
:100DA000FFF700FD011B03200229F6D900E0002017
:100DB00002B0BDE8F08100BF0038024000004742A9
:100DC00000700040411E0020B0EB116F1CBF0120DD
:100DD0007047044AF023516003490B70072190606B
:100DE0001160704710E000E023ED00E070477047AD
:100DF00090F83C300222012B19D010B580F83D202C
:100E00000268D2F804E0D2F808C0D1E900342EF02C
:100E10007001194351602CF0800121439160002240
:100E2000012180F83C2080F83D10BDE810401046BC
:100E30007047B0B110B5044690F83D0028B90020C5
:100E400084F83C00204600F00FF80220211D84F8B1
:100E50003D00206800F0F8F9012084F83D000020F2
:100E600010BD01207047000000680D49884218BF7E
:100E70007047E0B5002000220190D748016841F09A
:100E8000100101600021006800F01000019001983D
:100E90003620FFF7F9FC3620BDE88C40FFF7E6BCB2
:100EA00000100040022180F83D1001688A6802F0BD
:100EB0000702062A1EBF0A6842F001020A600121E9
:100EC00080F83D1000207047704710B50446006858
:100ED0000169890744BFC1685FEA817138D401693B
:100EE000490744BFC1685FEA41713DD40169090700
:100EF00044BFC1685FEA017143D40169C90644BFB8
:100F0000C1685FEAC16148D40169C9071CBFC168F3
:100F10005FEAC1714ED10169090644BFC1685FEA49
:100F200001614FD40169490644BFC1685FEA41616C
:100F300050D40169890646BFC1685FEA816110BD6E
:100F40006FF0200101612046BDE81040FFF74FBF60
:100F50006FF002010161012121778069800741D092
:100F60002046FFF7B1FF43E06FF004010161022169
:100F70002177806910F4407F3ED02046FFF7A4FF20
:100F800040E06FF00801016104212177C06980070A
:100F90003CD02046FFF798FF3EE06FF01001016162
:100FA00008212177C06910F4407F39D02046FFF72F
:100FB0008BFF3BE06FF001010161204600F03CF83F
:100FC0002068A8E76FF0800101612046FFF70EFF5F
:100FD0002068A7E76FF040010161204600F02DF87E
:100FE0002068A6E7204600F025F8204600F023F808
:100FF00000202077206872E7204600F01BF820468A
:1010000000F019F80020207720686FE7204600F0F4
:1010100011F8204600F00FF80020207720686CE7D8
:10102000204600F007F8204600F005F80020207761
:10103000206869E7704770477047704750B310B534
:10104000044690F8390028B9002084F8380020467A
:1010500000F022F8242084F839002068C16821F4C7
:101060000051C160204600F057F92068016921F461
:1010700090410161416921F02A014161C16841F457
:101080000051C16000202021E06384F8391084F809
:101090003A1010BD0120704770472DE9F041044619
:1010A00090F8390020280AD10E460120002949D0A5
:1010B0001746002A46D094F83800012802D10220B1
:1010C000BDE8F08100201D46E063012084F838006F
:1010D000212084F83900FFF765FB8046E784A78468
:1010E0001DE0E08C802142462B460138E0842046FA
:1010F000A76800F0CFF9B7F5805F0BD1C8B9318888
:1011000020686FF35F2141602069002814BF013619
:10111000023604E068B9206816F8011B4160E08CD3
:101120000028DED12046402142462B4600F0B2F98D
:1011300010B10320BDE8F0810020202184F83800A0
:1011400084F83910BDE8F081FEE7FEE7704770478C
:101150007047FFF72BBB000070B592B005AC1421AF
:10116000201DFFF783F800251B4801220226009569
:10117000016841F080510160006800F080500090EB
:10118000009800951548016862F38F31016000688E
:1011900000F4404000900098CDE9106604200F90C4
:1011A0004FF4A8700E9010200D90CDE90B65CDE99D
:1011B000082020460596FFF787FC4FF480500495E1
:1011C000022103900F20CDE9016500906846FFF7EA
:1011D00089FB12B070BD00BF403802400070004073
:1011E00010B50E480F4CD0F8801041F47001C0F8D3
:1011F00080100B490A6842F001020A6000228A60EE
:101200000B6823400B60084B4B600B6823F4802372
:101210000B60CA604FF00061016010BD08ED00E096
:1012200000380240FFFFF6FE1030002480B504486D
:10123000FFF7B8F80348BDE88040FFF746BE00BF9F
:1012400010000020240000200268B0F1804F0ED072
:10125000264B98420BD0264B984208D0254B9842FB
:1012600005D0254B984202D0244B984203D14B68BD
:1012700022F070021A43B0F1804F20D01B4B9842ED
:101280001DD01B4B98421AD01A4B984217D01C4BBA
:10129000984214D01B4B984211D01B4B98420ED051
:1012A000164B98420BD0144B984208D0174B9842DB
:1012B00005D0174B984202D0164B984203D1CB6809
:1012C00022F440721A434B6922F080021A430A4BFF
:1012D00002608A68C2620A68826240F480629A424E
:1012E00004BF0969016301214161704700040040A6
:1012F00000080040000C00400004014000000140D4
:1013000000180040001C0040002000400040014048
:1013100000480140004401402DE9F04704460068C0
:1013200049F20C650169E26821F440511143016101
:10133000A168D4E90423E769C6681143AE43B7F551
:10134000004F41EA030141EA070141EA0601C16099
:101350004169A26921F4407141EA020141614A49AF
:1013600040F480603FD188420CBFDFF820A1DFF855
:1013700020A1D047D4F804908046D047676806463D
:10138000D047616819257F00684306FB05F34900D3
:10139000B3FBF7F3B0FBF1F06421B0FBF1F202FB19
:1013A0001102181A4FEA49031044322202EBC0001E
:1013B0004FF4F872B0FBF1F002EA400008FB05F2CE
:1013C000B2FBF3F2B2FBF1F100EB0116D04761681A
:1013D00068434900B0FBF1F7D047616868430722D2
:1013E000032349003CE0884214BFDFF8A4A0DFF8E3
:1013F0009CA0D047D4F804908046D0476768064642
:10140000D04761681925BF00684306FB05F38900D2
:10141000B3FBF7F3B0FBF1F06421B0FBF1F202FB98
:101420001102181A4FEA89031044322202EB00100D
:1014300008FB05F2B0FBF1F0B2FBF3F200F0F000B4
:10144000B2FBF1F100EB0116D047616868438900F7
:10145000B0FBF1F7D047616868430F22042389008D
:10146000B0FBF1F0391A6427B0FBF7F505FB170064
:101470000844216898403230B0FBF7F01040304308
:101480008860BDE8F08700BF00140140190A000819
:10149000050A00082DE9F0411D4690460F46044616
:1014A0005E1C206801683940B94204BF0020BDE8D5
:1014B000F081002EF5D035B1FFF774F9A0EB0800EC
:1014C000A842EED92068C16821F4D071C160416999
:1014D00021F0010141612020002184F8390084F8C5
:1014E000381084F83A000320BDE8F081FEE70000E0
:1014F00010B5074C00F00F03044AB0F1FF3F23443E
:10150000C8BF83180801187010BD00BF00E400E0D8
:1015100014ED00E088B0FFF753F9504C2046FEF779
:101520002BFFFFF719FE00264D484F4F02ADCDE9C6
:1015300005660196016841F004010160016801F04F
:101540000401019101990196016841F08001016057
:10155000016801F08001019101990196016841F053
:1015600001010160016801F00101019101990196F9
:10157000016841F0020101602946006800F00200A4
:10158000019001980496374803904FF40050029060
:1015900007F5FC30FFF740F807204FF00C0829460C
:1015A00006900320CDE904600220039007F5F8308F
:1015B000CDF80880FFF730F807F5C84020602046D6
:1015C000CDE90266FEF71BFF02A920461022FEF7B6
:1015D000A8FE40F2FF702546E662C4E90666C4E94B
:1015E0000806202045F8147F039602902846FFF74E
:1015F00020FC02A92846FFF7FBFB2846FFF752FC18
:101600001A4D4FF4C0604FF4165107F55052C5E91A
:101610000021C5E90266C5E904082846C5E9066651
:10162000FFF70CFD12A128460C22FFF736FD2046DD
:1016300010214FF41062FEF758FE20461021FEF7ED
:1016400050FF2046102100224FF48073FEF736FF32
:1016500020461021FEF79FFEFAE700BF1000002091
:1016600030380240000021100010004064000020CB
:1016700048656C6C6F20576F726C640002E008C89C
:10168000121F08C1002AFAD170477047002001E0FC
:1016900001C1121F002AFBD17047000000000000AA
:1016A000000001020304060708090000000001020F
:1016B00003040000D81600080000002010000000FD
:1016C0007C160008E81600081000002098040000AE
:1016D0008C1600080000000001000000100000004F
:0816E0000024F40000000000EA
:04000005080001C529
:00000001FF
